{
  "_format": "hh-sol-artifact-1",
  "contractName": "Registration",
  "sourceName": "contracts/Registration.sol",
  "abi": [
    {
      "inputs": [],
      "stateMutability": "nonpayable",
      "type": "constructor"
    },
    {
      "inputs": [],
      "name": "notOwner",
      "type": "error"
    },
    {
      "anonymous": false,
      "inputs": [
        {
          "indexed": true,
          "internalType": "address",
          "name": "hash",
          "type": "address"
        },
        {
          "indexed": true,
          "internalType": "uint256",
          "name": "experience",
          "type": "uint256"
        }
      ],
      "name": "instructorRegistered",
      "type": "event"
    },
    {
      "anonymous": false,
      "inputs": [
        {
          "indexed": true,
          "internalType": "address",
          "name": "hash",
          "type": "address"
        },
        {
          "indexed": false,
          "internalType": "string",
          "name": "_lastName",
          "type": "string"
        }
      ],
      "name": "instructorVerified",
      "type": "event"
    },
    {
      "anonymous": false,
      "inputs": [
        {
          "indexed": true,
          "internalType": "address",
          "name": "_hash",
          "type": "address"
        }
      ],
      "name": "studentRegistered",
      "type": "event"
    },
    {
      "stateMutability": "payable",
      "type": "fallback"
    },
    {
      "inputs": [],
      "name": "Owner",
      "outputs": [
        {
          "internalType": "address",
          "name": "",
          "type": "address"
        }
      ],
      "stateMutability": "view",
      "type": "function"
    },
    {
      "inputs": [
        {
          "internalType": "address[]",
          "name": "_adminAddresses",
          "type": "address[]"
        }
      ],
      "name": "addAdmin",
      "outputs": [],
      "stateMutability": "nonpayable",
      "type": "function"
    },
    {
      "inputs": [
        {
          "internalType": "uint256",
          "name": "",
          "type": "uint256"
        }
      ],
      "name": "admins",
      "outputs": [
        {
          "internalType": "address",
          "name": "",
          "type": "address"
        }
      ],
      "stateMutability": "view",
      "type": "function"
    },
    {
      "inputs": [
        {
          "internalType": "string",
          "name": "_firstName",
          "type": "string"
        },
        {
          "internalType": "string",
          "name": "_lastName",
          "type": "string"
        },
        {
          "internalType": "string",
          "name": "_gender",
          "type": "string"
        },
        {
          "internalType": "string",
          "name": "_emailAddress",
          "type": "string"
        }
      ],
      "name": "enrollStudent",
      "outputs": [],
      "stateMutability": "nonpayable",
      "type": "function"
    },
    {
      "inputs": [
        {
          "internalType": "address",
          "name": "_instructorAddress",
          "type": "address"
        }
      ],
      "name": "fireInstructor",
      "outputs": [],
      "stateMutability": "nonpayable",
      "type": "function"
    },
    {
      "inputs": [],
      "name": "instructorCount",
      "outputs": [
        {
          "internalType": "uint256",
          "name": "",
          "type": "uint256"
        }
      ],
      "stateMutability": "view",
      "type": "function"
    },
    {
      "inputs": [],
      "name": "instructorRegistrationFee",
      "outputs": [
        {
          "internalType": "uint256",
          "name": "",
          "type": "uint256"
        }
      ],
      "stateMutability": "view",
      "type": "function"
    },
    {
      "inputs": [
        {
          "internalType": "uint256",
          "name": "",
          "type": "uint256"
        }
      ],
      "name": "instructors",
      "outputs": [
        {
          "internalType": "string",
          "name": "Firstname",
          "type": "string"
        },
        {
          "internalType": "string",
          "name": "Lastname",
          "type": "string"
        },
        {
          "internalType": "string",
          "name": "Gender",
          "type": "string"
        },
        {
          "internalType": "string",
          "name": "emailAddress",
          "type": "string"
        },
        {
          "internalType": "uint256",
          "name": "experience",
          "type": "uint256"
        },
        {
          "internalType": "address",
          "name": "hash",
          "type": "address"
        },
        {
          "internalType": "enum Registration.VerificationState",
          "name": "verificationState",
          "type": "uint8"
        }
      ],
      "stateMutability": "view",
      "type": "function"
    },
    {
      "inputs": [
        {
          "internalType": "address",
          "name": "",
          "type": "address"
        }
      ],
      "name": "isInstructor",
      "outputs": [
        {
          "internalType": "bool",
          "name": "",
          "type": "bool"
        }
      ],
      "stateMutability": "view",
      "type": "function"
    },
    {
      "inputs": [
        {
          "internalType": "address",
          "name": "",
          "type": "address"
        }
      ],
      "name": "isInstructorVerified",
      "outputs": [
        {
          "internalType": "bool",
          "name": "",
          "type": "bool"
        }
      ],
      "stateMutability": "view",
      "type": "function"
    },
    {
      "inputs": [
        {
          "internalType": "address",
          "name": "",
          "type": "address"
        }
      ],
      "name": "isStudent",
      "outputs": [
        {
          "internalType": "bool",
          "name": "",
          "type": "bool"
        }
      ],
      "stateMutability": "view",
      "type": "function"
    },
    {
      "inputs": [
        {
          "internalType": "string",
          "name": "_firstName",
          "type": "string"
        },
        {
          "internalType": "string",
          "name": "_lastName",
          "type": "string"
        },
        {
          "internalType": "string",
          "name": "_gender",
          "type": "string"
        },
        {
          "internalType": "string",
          "name": "_emailAddress",
          "type": "string"
        },
        {
          "internalType": "uint256",
          "name": "_experience",
          "type": "uint256"
        }
      ],
      "name": "registerInstructor",
      "outputs": [],
      "stateMutability": "payable",
      "type": "function"
    },
    {
      "inputs": [],
      "name": "studentCount",
      "outputs": [
        {
          "internalType": "uint256",
          "name": "",
          "type": "uint256"
        }
      ],
      "stateMutability": "view",
      "type": "function"
    },
    {
      "inputs": [
        {
          "internalType": "uint256",
          "name": "",
          "type": "uint256"
        }
      ],
      "name": "students",
      "outputs": [
        {
          "internalType": "string",
          "name": "firstName",
          "type": "string"
        },
        {
          "internalType": "string",
          "name": "lastName",
          "type": "string"
        },
        {
          "internalType": "string",
          "name": "Gender",
          "type": "string"
        },
        {
          "internalType": "string",
          "name": "emailAddress",
          "type": "string"
        },
        {
          "internalType": "uint256",
          "name": "id",
          "type": "uint256"
        },
        {
          "internalType": "address",
          "name": "hash",
          "type": "address"
        }
      ],
      "stateMutability": "view",
      "type": "function"
    },
    {
      "inputs": [],
      "name": "verifiedInstructorCount",
      "outputs": [
        {
          "internalType": "uint256",
          "name": "",
          "type": "uint256"
        }
      ],
      "stateMutability": "view",
      "type": "function"
    },
    {
      "inputs": [
        {
          "internalType": "uint256",
          "name": "",
          "type": "uint256"
        }
      ],
      "name": "verifiedInstructors",
      "outputs": [
        {
          "internalType": "address",
          "name": "",
          "type": "address"
        }
      ],
      "stateMutability": "view",
      "type": "function"
    },
    {
      "inputs": [
        {
          "internalType": "address[]",
          "name": "_instructorAddress",
          "type": "address[]"
        }
      ],
      "name": "verifyInstructors",
      "outputs": [],
      "stateMutability": "nonpayable",
      "type": "function"
    },
    {
      "inputs": [],
      "name": "withdraw",
      "outputs": [],
      "stateMutability": "nonpayable",
      "type": "function"
    },
    {
      "stateMutability": "payable",
      "type": "receive"
    }
  ],
  "bytecode": "0x60c0604052600060a05234801561001557600080fd5b503360805260805160a051611fc061005b600039600081816102440152610a01015260008181610354015281816108340152818161088001526109450152611fc06000f3fe6080604052600436106101015760003560e01c806382f7d3921161008f578063b4a6167811610061578063b4a6167814610322578063b4a99a4e14610342578063d45cf55b14610376578063d862ff9514610396578063e581f9ee146103b657005b806382f7d392146102795780638d532554146102a95780638dae48f9146102dc578063a3afcea2146102f257005b80633ccfd60b116100d35780633ccfd60b146101bd5780633d0950a8146101d257806364af64a9146101f2578063682e42811461023257806380358ead1461026657005b80630472e3ca1461010a57806306ead22e1461013357806314bfd6d0146101655780632823af781461019d57005b3661010857005b005b34801561011657600080fd5b5061012060035481565b6040519081526020015b60405180910390f35b34801561013f57600080fd5b5061015361014e366004611a1c565b6103cc565b60405161012a96959493929190611a82565b34801561017157600080fd5b50610185610180366004611a1c565b610642565b6040516001600160a01b03909116815260200161012a565b3480156101a957600080fd5b506101086101b8366004611b56565b61066c565b3480156101c957600080fd5b50610108610832565b3480156101de57600080fd5b506101086101ed366004611b56565b610943565b3480156101fe57600080fd5b5061022261020d366004611c03565b60096020526000908152604090205460ff1681565b604051901515815260200161012a565b34801561023e57600080fd5b506101207f000000000000000000000000000000000000000000000000000000000000000081565b610108610274366004611c95565b6109ff565b34801561028557600080fd5b50610222610294366004611c03565b60076020526000908152604090205460ff1681565b3480156102b557600080fd5b506102c96102c4366004611a1c565b610cf7565b60405161012a9796959493929190611d60565b3480156102e857600080fd5b5061012060025481565b3480156102fe57600080fd5b5061022261030d366004611c03565b60086020526000908152604090205460ff1681565b34801561032e57600080fd5b5061010861033d366004611df6565b610f78565b34801561034e57600080fd5b506101857f000000000000000000000000000000000000000000000000000000000000000081565b34801561038257600080fd5b50610185610391366004611a1c565b61112c565b3480156103a257600080fd5b506101086103b1366004611c03565b61113c565b3480156103c257600080fd5b5061012060015481565b600481815481106103dc57600080fd5b90600052602060002090600602016000915090508060000180546103ff90611ea3565b80601f016020809104026020016040519081016040528092919081815260200182805461042b90611ea3565b80156104785780601f1061044d57610100808354040283529160200191610478565b820191906000526020600020905b81548152906001019060200180831161045b57829003601f168201915b50505050509080600101805461048d90611ea3565b80601f01602080910402602001604051908101604052809291908181526020018280546104b990611ea3565b80156105065780601f106104db57610100808354040283529160200191610506565b820191906000526020600020905b8154815290600101906020018083116104e957829003601f168201915b50505050509080600201805461051b90611ea3565b80601f016020809104026020016040519081016040528092919081815260200182805461054790611ea3565b80156105945780601f1061056957610100808354040283529160200191610594565b820191906000526020600020905b81548152906001019060200180831161057757829003601f168201915b5050505050908060030180546105a990611ea3565b80601f01602080910402602001604051908101604052809291908181526020018280546105d590611ea3565b80156106225780601f106105f757610100808354040283529160200191610622565b820191906000526020600020905b81548152906001019060200180831161060557829003601f168201915b5050505060048301546005909301549192916001600160a01b0316905086565b6000818154811061065257600080fd5b6000918252602090912001546001600160a01b0316905081565b60008054806020026020016040519081016040528092919081815260200182805480156106c257602002820191906000526020600020905b81546001600160a01b031681526001909101906020018083116106a4575b50505050506000805b8251811015610722578281815181106106e6576106e6611ede565b60200260200101516001600160a01b0316336001600160a01b031614156107105760019150610722565b8061071a81611f0a565b9150506106cb565b5060018115151461074e5760405162461bcd60e51b815260040161074590611f25565b60405180910390fd5b60005b835181101561082c57600061077e85838151811061077157610771611ede565b6020026020010151611428565b600160c0820181905260a0820180516006805493840181556000527ff652222313e28459528d920b65115c16c04f3efc82aaedc97be59f3f377c0d3f90920180546001600160a01b0319166001600160a01b039384161790555160208301516040519394509116917f3208c53e69106ad2cdd490d2233799337c41fa0601c89b87acf0a6ed3bc7f0949161081191611f4a565b60405180910390a2508061082481611f0a565b915050610751565b50505050565b7f0000000000000000000000000000000000000000000000000000000000000000336001600160a01b0382161461087c5760405163251c9d6360e01b815260040160405180910390fd5b60007f00000000000000000000000000000000000000000000000000000000000000006001600160a01b03164760405160006040518083038185875af1925050503d80600081146108e9576040519150601f19603f3d011682016040523d82523d6000602084013e6108ee565b606091505b505090508061093f5760405162461bcd60e51b815260206004820152601760248201527f54686973205472616e73616374696f6e204661696c65640000000000000000006044820152606401610745565b5050565b7f0000000000000000000000000000000000000000000000000000000000000000336001600160a01b0382161461098d5760405163251c9d6360e01b815260040160405180910390fd5b60005b82518110156109fa5760008382815181106109ad576109ad611ede565b60209081029190910181015182546001810184556000938452919092200180546001600160a01b0319166001600160a01b03909216919091179055806109f281611f0a565b915050610990565b505050565b7f0000000000000000000000000000000000000000000000000000000000000000803414610a645760405162461bcd60e51b8152602060048201526012602482015271496e73756666696369656e742046756e647360701b6044820152606401610745565b858585858560008551118015610a7b575060008451115b8015610a88575060008351115b8015610a95575060008351115b8015610aa2575060008251115b8015610aae5750600081115b610aeb5760405162461bcd60e51b815260206004820152600e60248201526d63616e277420626520656d70747960901b6044820152606401610745565b3360009081526008602052604090205460ff1615610b435760405162461bcd60e51b815260206004820152601560248201527430b63932b0b23c9030b71034b739ba393ab1ba37b960591b6044820152606401610745565b60006040518060e001604052808d81526020018c81526020018b81526020018a8152602001898152602001336001600160a01b0316815260200160006001811115610b9057610b90611d4a565b90526005805460018101825560009190915281518051929350839260069092027f036b6384b5eca791c62761152d0c79bb0604c104a5fb6f4eb0703f3154bb3db00191610be591839160209190910190611875565b506020828101518051610bfe9260018501920190611875565b5060408201518051610c1a916002840191602090910190611875565b5060608201518051610c36916003840191602090910190611875565b506080820151600482015560a08201516005820180546001600160a01b039092166001600160a01b031983168117825560c0850151926001600160a81b03191617600160a01b836001811115610c8e57610c8e611d4a565b0217905550506003805491506000610ca583611f0a565b919050555080608001518160a001516001600160a01b03167f5f15cd5ddbeb6f221b9ff9af80a646b9d52716055eb2d3c1c477759364c208e860405160405180910390a3505050505050505050505050565b60058181548110610d0757600080fd5b9060005260206000209060060201600091509050806000018054610d2a90611ea3565b80601f0160208091040260200160405190810160405280929190818152602001828054610d5690611ea3565b8015610da35780601f10610d7857610100808354040283529160200191610da3565b820191906000526020600020905b815481529060010190602001808311610d8657829003601f168201915b505050505090806001018054610db890611ea3565b80601f0160208091040260200160405190810160405280929190818152602001828054610de490611ea3565b8015610e315780601f10610e0657610100808354040283529160200191610e31565b820191906000526020600020905b815481529060010190602001808311610e1457829003601f168201915b505050505090806002018054610e4690611ea3565b80601f0160208091040260200160405190810160405280929190818152602001828054610e7290611ea3565b8015610ebf5780601f10610e9457610100808354040283529160200191610ebf565b820191906000526020600020905b815481529060010190602001808311610ea257829003601f168201915b505050505090806003018054610ed490611ea3565b80601f0160208091040260200160405190810160405280929190818152602001828054610f0090611ea3565b8015610f4d5780601f10610f2257610100808354040283529160200191610f4d565b820191906000526020600020905b815481529060010190602001808311610f3057829003601f168201915b5050505060048301546005909301549192916001600160a01b0381169150600160a01b900460ff1687565b3360009081526007602052604090205460ff1615610fd85760405162461bcd60e51b815260206004820152601f60248201527f616c7265616479207265676973746572656420617320612073747564656e74006044820152606401610745565b60006040518060c001604052808681526020018581526020018481526020018381526020016001600081548092919061101090611f0a565b909155508152336020918201526004805460018101825560009190915282518051939450849360069092027f8a35acfbc15ff81a39ae7d344fd709f28e8600b4aa8c65c6b64bfe7fe36bd19b019261106d92849290910190611875565b5060208281015180516110869260018501920190611875565b50604082015180516110a2916002840191602090910190611875565b50606082015180516110be916003840191602090910190611875565b50608082810151600483015560a092830151600590920180546001600160a01b0319166001600160a01b03938416179055830151600155908201516040519116907f0e2041cc651cc18ec0a779dc9785f573eb366eaacf6d772cd1d06d97b7e17e2a90600090a25050505050565b6006818154811061065257600080fd5b600080548060200260200160405190810160405280929190818152602001828054801561119257602002820191906000526020600020905b81546001600160a01b03168152600190910190602001808311611174575b50505050506000805b82518110156111f2578281815181106111b6576111b6611ede565b60200260200101516001600160a01b0316336001600160a01b031614156111e057600191506111f2565b806111ea81611f0a565b91505061119b565b506001811515146112155760405162461bcd60e51b815260040161074590611f25565b60005b60055481101561082c57836001600160a01b03166005828154811061123f5761123f611ede565b60009182526020909120600560069092020101546001600160a01b03161415611416576005805461127290600190611f5d565b8154811061128257611282611ede565b9060005260206000209060060201600582815481106112a3576112a3611ede565b906000526020600020906006020160008201816000019080546112c590611ea3565b6112d09291906118f9565b5060018201816001019080546112e590611ea3565b6112f09291906118f9565b50600282018160020190805461130590611ea3565b6113109291906118f9565b50600382018160030190805461132590611ea3565b6113309291906118f9565b50600482810154908201556005808301805491830180546001600160a01b031981166001600160a01b039094169384178255915460ff600160a01b91829004169391926001600160a81b0319169091179083600181111561139357611393611d4a565b021790555090505060058054806113ac576113ac611f74565b600082815260208120600019909201916006830201906113cc8282611974565b6113da600183016000611974565b6113e8600283016000611974565b6113f6600383016000611974565b506000600482015560050180546001600160a81b0319169055905561082c565b8061142081611f0a565b915050611218565b6114306119b1565b600080548060200260200160405190810160405280929190818152602001828054801561148657602002820191906000526020600020905b81546001600160a01b03168152600190910190602001808311611468575b50505050506000805b82518110156114e6578281815181106114aa576114aa611ede565b60200260200101516001600160a01b0316336001600160a01b031614156114d457600191506114e6565b806114de81611f0a565b91505061148f565b506001811515146115095760405162461bcd60e51b815260040161074590611f25565b60005b600554811015611831576005818154811061152957611529611ede565b60009182526020909120600560069092020101546001600160a01b038681169116141561181f576005818154811061156357611563611ede565b90600052602060002090600602016040518060e001604052908160008201805461158c90611ea3565b80601f01602080910402602001604051908101604052809291908181526020018280546115b890611ea3565b80156116055780601f106115da57610100808354040283529160200191611605565b820191906000526020600020905b8154815290600101906020018083116115e857829003601f168201915b5050505050815260200160018201805461161e90611ea3565b80601f016020809104026020016040519081016040528092919081815260200182805461164a90611ea3565b80156116975780601f1061166c57610100808354040283529160200191611697565b820191906000526020600020905b81548152906001019060200180831161167a57829003601f168201915b505050505081526020016002820180546116b090611ea3565b80601f01602080910402602001604051908101604052809291908181526020018280546116dc90611ea3565b80156117295780601f106116fe57610100808354040283529160200191611729565b820191906000526020600020905b81548152906001019060200180831161170c57829003601f168201915b5050505050815260200160038201805461174290611ea3565b80601f016020809104026020016040519081016040528092919081815260200182805461176e90611ea3565b80156117bb5780601f10611790576101008083540402835291602001916117bb565b820191906000526020600020905b81548152906001019060200180831161179e57829003601f168201915b50505091835250506004820154602082015260058201546001600160a01b0381166040830152606090910190600160a01b900460ff16600181111561180257611802611d4a565b600181111561181357611813611d4a565b8152505093505061186e565b8061182981611f0a565b91505061150c565b5060405162461bcd60e51b81526020600482015260116024820152702737ba1030b71024b739ba393ab1ba37b960791b6044820152606401610745565b5050919050565b82805461188190611ea3565b90600052602060002090601f0160209004810192826118a357600085556118e9565b82601f106118bc57805160ff19168380011785556118e9565b828001600101855582156118e9579182015b828111156118e95782518255916020019190600101906118ce565b506118f5929150611a07565b5090565b82805461190590611ea3565b90600052602060002090601f01602090048101928261192757600085556118e9565b82601f1061193857805485556118e9565b828001600101855582156118e957600052602060002091601f016020900482015b828111156118e9578254825591600101919060010190611959565b50805461198090611ea3565b6000825580601f10611990575050565b601f0160209004906000526020600020908101906119ae9190611a07565b50565b6040518060e00160405280606081526020016060815260200160608152602001606081526020016000815260200160006001600160a01b0316815260200160006001811115611a0257611a02611d4a565b905290565b5b808211156118f55760008155600101611a08565b600060208284031215611a2e57600080fd5b5035919050565b6000815180845260005b81811015611a5b57602081850181015186830182015201611a3f565b81811115611a6d576000602083870101525b50601f01601f19169290920160200192915050565b60c081526000611a9560c0830189611a35565b8281036020840152611aa78189611a35565b90508281036040840152611abb8188611a35565b90508281036060840152611acf8187611a35565b608084019590955250506001600160a01b039190911660a090910152949350505050565b634e487b7160e01b600052604160045260246000fd5b604051601f8201601f1916810167ffffffffffffffff81118282101715611b3257611b32611af3565b604052919050565b80356001600160a01b0381168114611b5157600080fd5b919050565b60006020808385031215611b6957600080fd5b823567ffffffffffffffff80821115611b8157600080fd5b818501915085601f830112611b9557600080fd5b813581811115611ba757611ba7611af3565b8060051b9150611bb8848301611b09565b8181529183018401918481019088841115611bd257600080fd5b938501935b83851015611bf757611be885611b3a565b82529385019390850190611bd7565b98975050505050505050565b600060208284031215611c1557600080fd5b611c1e82611b3a565b9392505050565b600082601f830112611c3657600080fd5b813567ffffffffffffffff811115611c5057611c50611af3565b611c63601f8201601f1916602001611b09565b818152846020838601011115611c7857600080fd5b816020850160208301376000918101602001919091529392505050565b600080600080600060a08688031215611cad57600080fd5b853567ffffffffffffffff80821115611cc557600080fd5b611cd189838a01611c25565b96506020880135915080821115611ce757600080fd5b611cf389838a01611c25565b95506040880135915080821115611d0957600080fd5b611d1589838a01611c25565b94506060880135915080821115611d2b57600080fd5b50611d3888828901611c25565b95989497509295608001359392505050565b634e487b7160e01b600052602160045260246000fd5b60e081526000611d7360e083018a611a35565b8281036020840152611d85818a611a35565b90508281036040840152611d998189611a35565b90508281036060840152611dad8188611a35565b608084018790526001600160a01b03861660a085015291505060028310611de457634e487b7160e01b600052602160045260246000fd5b8260c083015298975050505050505050565b60008060008060808587031215611e0c57600080fd5b843567ffffffffffffffff80821115611e2457600080fd5b611e3088838901611c25565b95506020870135915080821115611e4657600080fd5b611e5288838901611c25565b94506040870135915080821115611e6857600080fd5b611e7488838901611c25565b93506060870135915080821115611e8a57600080fd5b50611e9787828801611c25565b91505092959194509250565b600181811c90821680611eb757607f821691505b60208210811415611ed857634e487b7160e01b600052602260045260246000fd5b50919050565b634e487b7160e01b600052603260045260246000fd5b634e487b7160e01b600052601160045260246000fd5b6000600019821415611f1e57611f1e611ef4565b5060010190565b6020808252600b908201526a4f6e6c792041646d696e7360a81b604082015260600190565b602081526000611c1e6020830184611a35565b600082821015611f6f57611f6f611ef4565b500390565b634e487b7160e01b600052603160045260246000fdfea264697066735822122015ab9aeccc98536f233820499e28ca15a72f51ae174ac1543615aacd80da3f4064736f6c634300080c0033",
  "linkReferences": {},
  "deployedLinkReferences": {}
}