{
  "_format": "hh-sol-artifact-1",
  "contractName": "Registration",
  "sourceName": "contracts/Registration.sol",
  "abi": [
    {
      "inputs": [],
      "stateMutability": "nonpayable",
      "type": "constructor"
    },
    {
      "inputs": [],
      "name": "notOwner",
      "type": "error"
    },
    {
      "anonymous": false,
      "inputs": [
        {
          "indexed": true,
          "internalType": "address",
          "name": "hash",
          "type": "address"
        },
        {
          "indexed": true,
          "internalType": "uint256",
          "name": "experience",
          "type": "uint256"
        }
      ],
      "name": "instructorRegistered",
      "type": "event"
    },
    {
      "anonymous": false,
      "inputs": [
        {
          "indexed": true,
          "internalType": "address",
          "name": "hash",
          "type": "address"
        },
        {
          "indexed": false,
          "internalType": "string",
          "name": "_lastName",
          "type": "string"
        }
      ],
      "name": "instructorVerified",
      "type": "event"
    },
    {
      "anonymous": false,
      "inputs": [
        {
          "indexed": true,
          "internalType": "address",
          "name": "_hash",
          "type": "address"
        }
      ],
      "name": "studentRegistered",
      "type": "event"
    },
    {
      "stateMutability": "payable",
      "type": "fallback"
    },
    {
      "inputs": [],
      "name": "Owner",
      "outputs": [
        {
          "internalType": "address",
          "name": "",
          "type": "address"
        }
      ],
      "stateMutability": "view",
      "type": "function"
    },
    {
      "inputs": [
        {
          "internalType": "address[]",
          "name": "_adminAddresses",
          "type": "address[]"
        }
      ],
      "name": "addAdmin",
      "outputs": [],
      "stateMutability": "nonpayable",
      "type": "function"
    },
    {
      "inputs": [
        {
          "internalType": "uint256",
          "name": "",
          "type": "uint256"
        }
      ],
      "name": "admins",
      "outputs": [
        {
          "internalType": "address",
          "name": "",
          "type": "address"
        }
      ],
      "stateMutability": "view",
      "type": "function"
    },
    {
      "inputs": [
        {
          "internalType": "string",
          "name": "_firstName",
          "type": "string"
        },
        {
          "internalType": "string",
          "name": "_lastName",
          "type": "string"
        },
        {
          "internalType": "string",
          "name": "_gender",
          "type": "string"
        },
        {
          "internalType": "string",
          "name": "_emailAddress",
          "type": "string"
        }
      ],
      "name": "enrollStudent",
      "outputs": [],
      "stateMutability": "nonpayable",
      "type": "function"
    },
    {
      "inputs": [
        {
          "internalType": "address",
          "name": "_instructorAddress",
          "type": "address"
        }
      ],
      "name": "fireInstructor",
      "outputs": [],
      "stateMutability": "nonpayable",
      "type": "function"
    },
    {
      "inputs": [],
      "name": "instructorCount",
      "outputs": [
        {
          "internalType": "uint256",
          "name": "",
          "type": "uint256"
        }
      ],
      "stateMutability": "view",
      "type": "function"
    },
    {
      "inputs": [],
      "name": "instructorRegistrationFee",
      "outputs": [
        {
          "internalType": "uint256",
          "name": "",
          "type": "uint256"
        }
      ],
      "stateMutability": "view",
      "type": "function"
    },
    {
      "inputs": [
        {
          "internalType": "uint256",
          "name": "",
          "type": "uint256"
        }
      ],
      "name": "instructors",
      "outputs": [
        {
          "internalType": "string",
          "name": "Firstname",
          "type": "string"
        },
        {
          "internalType": "string",
          "name": "Lastname",
          "type": "string"
        },
        {
          "internalType": "string",
          "name": "Gender",
          "type": "string"
        },
        {
          "internalType": "string",
          "name": "emailAddress",
          "type": "string"
        },
        {
          "internalType": "uint256",
          "name": "experience",
          "type": "uint256"
        },
        {
          "internalType": "address",
          "name": "hash",
          "type": "address"
        },
        {
          "internalType": "enum Registration.VerificationState",
          "name": "verificationState",
          "type": "uint8"
        }
      ],
      "stateMutability": "view",
      "type": "function"
    },
    {
      "inputs": [
        {
          "internalType": "address",
          "name": "",
          "type": "address"
        }
      ],
      "name": "isInstructor",
      "outputs": [
        {
          "internalType": "bool",
          "name": "",
          "type": "bool"
        }
      ],
      "stateMutability": "view",
      "type": "function"
    },
    {
      "inputs": [
        {
          "internalType": "address",
          "name": "",
          "type": "address"
        }
      ],
      "name": "isInstructorVerified",
      "outputs": [
        {
          "internalType": "bool",
          "name": "",
          "type": "bool"
        }
      ],
      "stateMutability": "view",
      "type": "function"
    },
    {
      "inputs": [
        {
          "internalType": "address",
          "name": "",
          "type": "address"
        }
      ],
      "name": "isStudent",
      "outputs": [
        {
          "internalType": "bool",
          "name": "",
          "type": "bool"
        }
      ],
      "stateMutability": "view",
      "type": "function"
    },
    {
      "inputs": [
        {
          "internalType": "string",
          "name": "_firstName",
          "type": "string"
        },
        {
          "internalType": "string",
          "name": "_lastName",
          "type": "string"
        },
        {
          "internalType": "string",
          "name": "_gender",
          "type": "string"
        },
        {
          "internalType": "string",
          "name": "_emailAddress",
          "type": "string"
        },
        {
          "internalType": "uint256",
          "name": "_experience",
          "type": "uint256"
        }
      ],
      "name": "registerInstructor",
      "outputs": [],
      "stateMutability": "payable",
      "type": "function"
    },
    {
      "inputs": [],
      "name": "studentCount",
      "outputs": [
        {
          "internalType": "uint256",
          "name": "",
          "type": "uint256"
        }
      ],
      "stateMutability": "view",
      "type": "function"
    },
    {
      "inputs": [
        {
          "internalType": "uint256",
          "name": "",
          "type": "uint256"
        }
      ],
      "name": "students",
      "outputs": [
        {
          "internalType": "string",
          "name": "firstName",
          "type": "string"
        },
        {
          "internalType": "string",
          "name": "lastName",
          "type": "string"
        },
        {
          "internalType": "string",
          "name": "Gender",
          "type": "string"
        },
        {
          "internalType": "string",
          "name": "emailAddress",
          "type": "string"
        },
        {
          "internalType": "uint256",
          "name": "id",
          "type": "uint256"
        },
        {
          "internalType": "address",
          "name": "hash",
          "type": "address"
        }
      ],
      "stateMutability": "view",
      "type": "function"
    },
    {
      "inputs": [],
      "name": "verifiedInstructorCount",
      "outputs": [
        {
          "internalType": "uint256",
          "name": "",
          "type": "uint256"
        }
      ],
      "stateMutability": "view",
      "type": "function"
    },
    {
      "inputs": [
        {
          "internalType": "uint256",
          "name": "",
          "type": "uint256"
        }
      ],
      "name": "verifiedInstructors",
      "outputs": [
        {
          "internalType": "address",
          "name": "",
          "type": "address"
        }
      ],
      "stateMutability": "view",
      "type": "function"
    },
    {
      "inputs": [
        {
          "internalType": "address[]",
          "name": "_instructorAddress",
          "type": "address[]"
        }
      ],
      "name": "verifyInstructors",
      "outputs": [],
      "stateMutability": "nonpayable",
      "type": "function"
    },
    {
      "inputs": [],
      "name": "withdraw",
      "outputs": [],
      "stateMutability": "nonpayable",
      "type": "function"
    },
    {
      "stateMutability": "payable",
      "type": "receive"
    }
  ],
  "bytecode": "0x60c0604052600060a05234801561001557600080fd5b503360805260805160a05161203161005b600039600081816102440152610a00015260008181610354015281816108330152818161087f015261094401526120316000f3fe6080604052600436106101015760003560e01c806382f7d3921161008f578063b4a6167811610061578063b4a6167814610322578063b4a99a4e14610342578063d45cf55b14610376578063d862ff9514610396578063e581f9ee146103b657005b806382f7d392146102795780638d532554146102a95780638dae48f9146102dc578063a3afcea2146102f257005b80633ccfd60b116100d35780633ccfd60b146101bd5780633d0950a8146101d257806364af64a9146101f2578063682e42811461023257806380358ead1461026657005b80630472e3ca1461010a57806306ead22e1461013357806314bfd6d0146101655780632823af781461019d57005b3661010857005b005b34801561011657600080fd5b5061012060035481565b6040519081526020015b60405180910390f35b34801561013f57600080fd5b5061015361014e3660046118ac565b6103cc565b60405161012a9695949392919061190b565b34801561017157600080fd5b506101856101803660046118ac565b610642565b6040516001600160a01b03909116815260200161012a565b3480156101a957600080fd5b506101086101b83660046119df565b61066c565b3480156101c957600080fd5b50610108610831565b3480156101de57600080fd5b506101086101ed3660046119df565b610942565b3480156101fe57600080fd5b5061022261020d366004611a8c565b60096020526000908152604090205460ff1681565b604051901515815260200161012a565b34801561023e57600080fd5b506101207f000000000000000000000000000000000000000000000000000000000000000081565b610108610274366004611b1e565b6109fe565b34801561028557600080fd5b50610222610294366004611a8c565b60076020526000908152604090205460ff1681565b3480156102b557600080fd5b506102c96102c43660046118ac565b610cdc565b60405161012a9796959493929190611be9565b3480156102e857600080fd5b5061012060025481565b3480156102fe57600080fd5b5061022261030d366004611a8c565b60086020526000908152604090205460ff1681565b34801561032e57600080fd5b5061010861033d366004611c7f565b610f5d565b34801561034e57600080fd5b506101857f000000000000000000000000000000000000000000000000000000000000000081565b34801561038257600080fd5b506101856103913660046118ac565b6110f3565b3480156103a257600080fd5b506101086103b1366004611a8c565b611103565b3480156103c257600080fd5b5061012060015481565b600481815481106103dc57600080fd5b90600052602060002090600602016000915090508060000180546103ff90611d2c565b80601f016020809104026020016040519081016040528092919081815260200182805461042b90611d2c565b80156104785780601f1061044d57610100808354040283529160200191610478565b820191906000526020600020905b81548152906001019060200180831161045b57829003601f168201915b50505050509080600101805461048d90611d2c565b80601f01602080910402602001604051908101604052809291908181526020018280546104b990611d2c565b80156105065780601f106104db57610100808354040283529160200191610506565b820191906000526020600020905b8154815290600101906020018083116104e957829003601f168201915b50505050509080600201805461051b90611d2c565b80601f016020809104026020016040519081016040528092919081815260200182805461054790611d2c565b80156105945780601f1061056957610100808354040283529160200191610594565b820191906000526020600020905b81548152906001019060200180831161057757829003601f168201915b5050505050908060030180546105a990611d2c565b80601f01602080910402602001604051908101604052809291908181526020018280546105d590611d2c565b80156106225780601f106105f757610100808354040283529160200191610622565b820191906000526020600020905b81548152906001019060200180831161060557829003601f168201915b5050505060048301546005909301549192916001600160a01b0316905086565b6000818154811061065257600080fd5b6000918252602090912001546001600160a01b0316905081565b60008054806020026020016040519081016040528092919081815260200182805480156106c257602002820191906000526020600020905b81546001600160a01b031681526001909101906020018083116106a4575b50505050506000805b8251811015610721578281815181106106e6576106e6611d66565b60200260200101516001600160a01b0316336001600160a01b03160361070f5760019150610721565b8061071981611d92565b9150506106cb565b5060018115151461074d5760405162461bcd60e51b815260040161074490611dab565b60405180910390fd5b60005b835181101561082b57600061077d85838151811061077057610770611d66565b60200260200101516113b4565b600160c0820181905260a0820180516006805493840181556000527ff652222313e28459528d920b65115c16c04f3efc82aaedc97be59f3f377c0d3f90920180546001600160a01b0319166001600160a01b039384161790555160208301516040519394509116917f3208c53e69106ad2cdd490d2233799337c41fa0601c89b87acf0a6ed3bc7f0949161081091611dd0565b60405180910390a2508061082381611d92565b915050610750565b50505050565b7f0000000000000000000000000000000000000000000000000000000000000000336001600160a01b0382161461087b5760405163251c9d6360e01b815260040160405180910390fd5b60007f00000000000000000000000000000000000000000000000000000000000000006001600160a01b03164760405160006040518083038185875af1925050503d80600081146108e8576040519150601f19603f3d011682016040523d82523d6000602084013e6108ed565b606091505b505090508061093e5760405162461bcd60e51b815260206004820152601760248201527f54686973205472616e73616374696f6e204661696c65640000000000000000006044820152606401610744565b5050565b7f0000000000000000000000000000000000000000000000000000000000000000336001600160a01b0382161461098c5760405163251c9d6360e01b815260040160405180910390fd5b60005b82518110156109f95760008382815181106109ac576109ac611d66565b60209081029190910181015182546001810184556000938452919092200180546001600160a01b0319166001600160a01b03909216919091179055806109f181611d92565b91505061098f565b505050565b7f0000000000000000000000000000000000000000000000000000000000000000803414610a635760405162461bcd60e51b8152602060048201526012602482015271496e73756666696369656e742046756e647360701b6044820152606401610744565b858585858560008551118015610a7a575060008451115b8015610a87575060008351115b8015610a94575060008351115b8015610aa1575060008251115b8015610aad5750600081115b610aea5760405162461bcd60e51b815260206004820152600e60248201526d63616e277420626520656d70747960901b6044820152606401610744565b3360009081526008602052604090205460ff1615610b425760405162461bcd60e51b815260206004820152601560248201527430b63932b0b23c9030b71034b739ba393ab1ba37b960591b6044820152606401610744565b60006040518060e001604052808d81526020018c81526020018b81526020018a8152602001898152602001336001600160a01b0316815260200160006001811115610b8f57610b8f611bd3565b9052600580546001810182556000919091528151919250829160069091027f036b6384b5eca791c62761152d0c79bb0604c104a5fb6f4eb0703f3154bb3db001908190610bdc9082611e31565b5060208201516001820190610bf19082611e31565b5060408201516002820190610c069082611e31565b5060608201516003820190610c1b9082611e31565b506080820151600482015560a08201516005820180546001600160a01b039092166001600160a01b031983168117825560c0850151926001600160a81b03191617600160a01b836001811115610c7357610c73611bd3565b0217905550506003805491506000610c8a83611d92565b919050555080608001518160a001516001600160a01b03167f5f15cd5ddbeb6f221b9ff9af80a646b9d52716055eb2d3c1c477759364c208e860405160405180910390a3505050505050505050505050565b60058181548110610cec57600080fd5b9060005260206000209060060201600091509050806000018054610d0f90611d2c565b80601f0160208091040260200160405190810160405280929190818152602001828054610d3b90611d2c565b8015610d885780601f10610d5d57610100808354040283529160200191610d88565b820191906000526020600020905b815481529060010190602001808311610d6b57829003601f168201915b505050505090806001018054610d9d90611d2c565b80601f0160208091040260200160405190810160405280929190818152602001828054610dc990611d2c565b8015610e165780601f10610deb57610100808354040283529160200191610e16565b820191906000526020600020905b815481529060010190602001808311610df957829003601f168201915b505050505090806002018054610e2b90611d2c565b80601f0160208091040260200160405190810160405280929190818152602001828054610e5790611d2c565b8015610ea45780601f10610e7957610100808354040283529160200191610ea4565b820191906000526020600020905b815481529060010190602001808311610e8757829003601f168201915b505050505090806003018054610eb990611d2c565b80601f0160208091040260200160405190810160405280929190818152602001828054610ee590611d2c565b8015610f325780601f10610f0757610100808354040283529160200191610f32565b820191906000526020600020905b815481529060010190602001808311610f1557829003601f168201915b5050505060048301546005909301549192916001600160a01b0381169150600160a01b900460ff1687565b3360009081526007602052604090205460ff1615610fbd5760405162461bcd60e51b815260206004820152601f60248201527f616c7265616479207265676973746572656420617320612073747564656e74006044820152606401610744565b60006040518060c0016040528086815260200185815260200184815260200183815260200160016000815480929190610ff590611d92565b90915550815233602090910152600480546001810182556000919091528151919250829160069091027f8a35acfbc15ff81a39ae7d344fd709f28e8600b4aa8c65c6b64bfe7fe36bd19b0190819061104d9082611e31565b50602082015160018201906110629082611e31565b50604082015160028201906110779082611e31565b506060820151600382019061108c9082611e31565b506080820151600482015560a091820151600590910180546001600160a01b0319166001600160a01b03928316179055908201516040519116907f0e2041cc651cc18ec0a779dc9785f573eb366eaacf6d772cd1d06d97b7e17e2a90600090a25050505050565b6006818154811061065257600080fd5b600080548060200260200160405190810160405280929190818152602001828054801561115957602002820191906000526020600020905b81546001600160a01b0316815260019091019060200180831161113b575b50505050506000805b82518110156111b85782818151811061117d5761117d611d66565b60200260200101516001600160a01b0316336001600160a01b0316036111a657600191506111b8565b806111b081611d92565b915050611162565b506001811515146111db5760405162461bcd60e51b815260040161074490611dab565b60005b60055481101561082b57836001600160a01b03166005828154811061120557611205611d66565b60009182526020909120600560069092020101546001600160a01b0316036113a2576005805461123790600190611ef1565b8154811061124757611247611d66565b90600052602060002090600602016005828154811061126857611268611d66565b60009182526020909120600690910201806112838382611f0a565b5060018181019061129690840182611f0a565b506002818101906112a990840182611f0a565b506003818101906112bc90840182611f0a565b50600482810154908201556005808301805491830180546001600160a01b031981166001600160a01b039094169384178255915460ff600160a01b91829004169391926001600160a81b0319169091179083600181111561131f5761131f611bd3565b0217905550905050600580548061133857611338611fe5565b600082815260208120600019909201916006830201906113588282611800565b611366600183016000611800565b611374600283016000611800565b611382600383016000611800565b506000600482015560050180546001600160a81b0319169055905561082b565b806113ac81611d92565b9150506111de565b6113bc61183d565b600080548060200260200160405190810160405280929190818152602001828054801561141257602002820191906000526020600020905b81546001600160a01b031681526001909101906020018083116113f4575b50505050506000805b82518110156114715782818151811061143657611436611d66565b60200260200101516001600160a01b0316336001600160a01b03160361145f5760019150611471565b8061146981611d92565b91505061141b565b506001811515146114945760405162461bcd60e51b815260040161074490611dab565b60005b6005548110156117bc57600581815481106114b4576114b4611d66565b60009182526020909120600560069092020101546001600160a01b03908116908616036117aa57600581815481106114ee576114ee611d66565b90600052602060002090600602016040518060e001604052908160008201805461151790611d2c565b80601f016020809104026020016040519081016040528092919081815260200182805461154390611d2c565b80156115905780601f1061156557610100808354040283529160200191611590565b820191906000526020600020905b81548152906001019060200180831161157357829003601f168201915b505050505081526020016001820180546115a990611d2c565b80601f01602080910402602001604051908101604052809291908181526020018280546115d590611d2c565b80156116225780601f106115f757610100808354040283529160200191611622565b820191906000526020600020905b81548152906001019060200180831161160557829003601f168201915b5050505050815260200160028201805461163b90611d2c565b80601f016020809104026020016040519081016040528092919081815260200182805461166790611d2c565b80156116b45780601f10611689576101008083540402835291602001916116b4565b820191906000526020600020905b81548152906001019060200180831161169757829003601f168201915b505050505081526020016003820180546116cd90611d2c565b80601f01602080910402602001604051908101604052809291908181526020018280546116f990611d2c565b80156117465780601f1061171b57610100808354040283529160200191611746565b820191906000526020600020905b81548152906001019060200180831161172957829003601f168201915b50505091835250506004820154602082015260058201546001600160a01b0381166040830152606090910190600160a01b900460ff16600181111561178d5761178d611bd3565b600181111561179e5761179e611bd3565b815250509350506117f9565b806117b481611d92565b915050611497565b5060405162461bcd60e51b81526020600482015260116024820152702737ba1030b71024b739ba393ab1ba37b960791b6044820152606401610744565b5050919050565b50805461180c90611d2c565b6000825580601f1061181c575050565b601f01602090049060005260206000209081019061183a9190611893565b50565b6040518060e00160405280606081526020016060815260200160608152602001606081526020016000815260200160006001600160a01b031681526020016000600181111561188e5761188e611bd3565b905290565b5b808211156118a85760008155600101611894565b5090565b6000602082840312156118be57600080fd5b5035919050565b6000815180845260005b818110156118eb576020818501810151868301820152016118cf565b506000602082860101526020601f19601f83011685010191505092915050565b60c08152600061191e60c08301896118c5565b828103602084015261193081896118c5565b9050828103604084015261194481886118c5565b9050828103606084015261195881876118c5565b608084019590955250506001600160a01b039190911660a090910152949350505050565b634e487b7160e01b600052604160045260246000fd5b604051601f8201601f1916810167ffffffffffffffff811182821017156119bb576119bb61197c565b604052919050565b80356001600160a01b03811681146119da57600080fd5b919050565b600060208083850312156119f257600080fd5b823567ffffffffffffffff80821115611a0a57600080fd5b818501915085601f830112611a1e57600080fd5b813581811115611a3057611a3061197c565b8060051b9150611a41848301611992565b8181529183018401918481019088841115611a5b57600080fd5b938501935b83851015611a8057611a71856119c3565b82529385019390850190611a60565b98975050505050505050565b600060208284031215611a9e57600080fd5b611aa7826119c3565b9392505050565b600082601f830112611abf57600080fd5b813567ffffffffffffffff811115611ad957611ad961197c565b611aec601f8201601f1916602001611992565b818152846020838601011115611b0157600080fd5b816020850160208301376000918101602001919091529392505050565b600080600080600060a08688031215611b3657600080fd5b853567ffffffffffffffff80821115611b4e57600080fd5b611b5a89838a01611aae565b96506020880135915080821115611b7057600080fd5b611b7c89838a01611aae565b95506040880135915080821115611b9257600080fd5b611b9e89838a01611aae565b94506060880135915080821115611bb457600080fd5b50611bc188828901611aae565b95989497509295608001359392505050565b634e487b7160e01b600052602160045260246000fd5b60e081526000611bfc60e083018a6118c5565b8281036020840152611c0e818a6118c5565b90508281036040840152611c2281896118c5565b90508281036060840152611c3681886118c5565b608084018790526001600160a01b03861660a085015291505060028310611c6d57634e487b7160e01b600052602160045260246000fd5b8260c083015298975050505050505050565b60008060008060808587031215611c9557600080fd5b843567ffffffffffffffff80821115611cad57600080fd5b611cb988838901611aae565b95506020870135915080821115611ccf57600080fd5b611cdb88838901611aae565b94506040870135915080821115611cf157600080fd5b611cfd88838901611aae565b93506060870135915080821115611d1357600080fd5b50611d2087828801611aae565b91505092959194509250565b600181811c90821680611d4057607f821691505b602082108103611d6057634e487b7160e01b600052602260045260246000fd5b50919050565b634e487b7160e01b600052603260045260246000fd5b634e487b7160e01b600052601160045260246000fd5b600060018201611da457611da4611d7c565b5060010190565b6020808252600b908201526a4f6e6c792041646d696e7360a81b604082015260600190565b602081526000611aa760208301846118c5565b601f8211156109f957600081815260208120601f850160051c81016020861015611e0a5750805b601f850160051c820191505b81811015611e2957828155600101611e16565b505050505050565b815167ffffffffffffffff811115611e4b57611e4b61197c565b611e5f81611e598454611d2c565b84611de3565b602080601f831160018114611e945760008415611e7c5750858301515b600019600386901b1c1916600185901b178555611e29565b600085815260208120601f198616915b82811015611ec357888601518255948401946001909101908401611ea4565b5085821015611ee15787850151600019600388901b60f8161c191681555b5050505050600190811b01905550565b81810381811115611f0457611f04611d7c565b92915050565b818103611f15575050565b611f1f8254611d2c565b67ffffffffffffffff811115611f3757611f3761197c565b611f4581611e598454611d2c565b6000601f821160018114611f795760008315611f615750848201545b600019600385901b1c1916600184901b178455611fde565b600085815260209020601f19841690600086815260209020845b83811015611fb35782860154825560019586019590910190602001611f93565b5085831015611fd15781850154600019600388901b60f8161c191681555b50505060018360011b0184555b5050505050565b634e487b7160e01b600052603160045260246000fdfea2646970667358221220740c1a552954324df28a63a05e625a595869bf124bfa39ade8d84a1fb0cedf4d64736f6c63430008110033",
  "linkReferences": {},
  "deployedLinkReferences": {}
}