{
  "_format": "hh-sol-artifact-1",
  "contractName": "CourseModule",
  "sourceName": "contracts/CourseModule.sol",
  "abi": [
    {
      "inputs": [
        {
          "internalType": "string",
          "name": "_baseURI",
          "type": "string"
        }
      ],
      "stateMutability": "nonpayable",
      "type": "constructor"
    },
    {
      "inputs": [],
      "name": "notOwner",
      "type": "error"
    },
    {
      "anonymous": false,
      "inputs": [
        {
          "indexed": true,
          "internalType": "address",
          "name": "_to",
          "type": "address"
        }
      ],
      "name": "certificateClaimed",
      "type": "event"
    },
    {
      "anonymous": false,
      "inputs": [
        {
          "indexed": true,
          "internalType": "address",
          "name": "_contractAddress",
          "type": "address"
        }
      ],
      "name": "certificateCreated",
      "type": "event"
    },
    {
      "anonymous": false,
      "inputs": [
        {
          "indexed": true,
          "internalType": "address",
          "name": "_to",
          "type": "address"
        }
      ],
      "name": "certificationIssued",
      "type": "event"
    },
    {
      "anonymous": false,
      "inputs": [
        {
          "indexed": false,
          "internalType": "string",
          "name": "_courseName",
          "type": "string"
        },
        {
          "indexed": true,
          "internalType": "uint256",
          "name": "_courseFee",
          "type": "uint256"
        }
      ],
      "name": "courseListed",
      "type": "event"
    },
    {
      "inputs": [
        {
          "internalType": "address",
          "name": "",
          "type": "address"
        }
      ],
      "name": "addressToCourseListed",
      "outputs": [
        {
          "internalType": "string",
          "name": "courseName",
          "type": "string"
        },
        {
          "internalType": "string",
          "name": "courseSymbol",
          "type": "string"
        },
        {
          "internalType": "string",
          "name": "courseDuration",
          "type": "string"
        },
        {
          "internalType": "uint256",
          "name": "Fee",
          "type": "uint256"
        },
        {
          "internalType": "address",
          "name": "InstructorHash",
          "type": "address"
        }
      ],
      "stateMutability": "view",
      "type": "function"
    },
    {
      "inputs": [],
      "name": "certifcationURI",
      "outputs": [
        {
          "internalType": "string",
          "name": "",
          "type": "string"
        }
      ],
      "stateMutability": "view",
      "type": "function"
    },
    {
      "inputs": [
        {
          "internalType": "uint256",
          "name": "",
          "type": "uint256"
        }
      ],
      "name": "certificationArray",
      "outputs": [
        {
          "internalType": "contract Certification",
          "name": "",
          "type": "address"
        }
      ],
      "stateMutability": "view",
      "type": "function"
    },
    {
      "inputs": [],
      "name": "claimCertificate",
      "outputs": [],
      "stateMutability": "nonpayable",
      "type": "function"
    },
    {
      "inputs": [],
      "name": "courseFee",
      "outputs": [
        {
          "internalType": "uint256",
          "name": "",
          "type": "uint256"
        }
      ],
      "stateMutability": "view",
      "type": "function"
    },
    {
      "inputs": [],
      "name": "createCertificate",
      "outputs": [],
      "stateMutability": "nonpayable",
      "type": "function"
    },
    {
      "inputs": [],
      "name": "instructorsAddress",
      "outputs": [
        {
          "internalType": "address payable",
          "name": "",
          "type": "address"
        }
      ],
      "stateMutability": "view",
      "type": "function"
    },
    {
      "inputs": [
        {
          "internalType": "address",
          "name": "",
          "type": "address"
        }
      ],
      "name": "isCertificateClaimed",
      "outputs": [
        {
          "internalType": "bool",
          "name": "",
          "type": "bool"
        }
      ],
      "stateMutability": "view",
      "type": "function"
    },
    {
      "inputs": [
        {
          "internalType": "address",
          "name": "",
          "type": "address"
        }
      ],
      "name": "isSubscriber",
      "outputs": [
        {
          "internalType": "bool",
          "name": "",
          "type": "bool"
        }
      ],
      "stateMutability": "view",
      "type": "function"
    },
    {
      "inputs": [
        {
          "internalType": "address",
          "name": "_to",
          "type": "address"
        }
      ],
      "name": "issueCertificate",
      "outputs": [],
      "stateMutability": "nonpayable",
      "type": "function"
    },
    {
      "inputs": [
        {
          "internalType": "string",
          "name": "_courseName",
          "type": "string"
        },
        {
          "internalType": "string",
          "name": "_courseDuration",
          "type": "string"
        },
        {
          "internalType": "string",
          "name": "_courseSymbol",
          "type": "string"
        },
        {
          "internalType": "uint256",
          "name": "_courseFee",
          "type": "uint256"
        }
      ],
      "name": "listCourse",
      "outputs": [],
      "stateMutability": "nonpayable",
      "type": "function"
    },
    {
      "inputs": [
        {
          "internalType": "uint256",
          "name": "",
          "type": "uint256"
        }
      ],
      "name": "module",
      "outputs": [
        {
          "internalType": "string",
          "name": "courseName",
          "type": "string"
        },
        {
          "internalType": "string",
          "name": "courseSymbol",
          "type": "string"
        },
        {
          "internalType": "string",
          "name": "courseDuration",
          "type": "string"
        },
        {
          "internalType": "uint256",
          "name": "Fee",
          "type": "uint256"
        },
        {
          "internalType": "address",
          "name": "InstructorHash",
          "type": "address"
        }
      ],
      "stateMutability": "view",
      "type": "function"
    },
    {
      "inputs": [],
      "name": "purchaseCount",
      "outputs": [
        {
          "internalType": "uint256",
          "name": "",
          "type": "uint256"
        }
      ],
      "stateMutability": "view",
      "type": "function"
    },
    {
      "inputs": [],
      "name": "purchaseModule",
      "outputs": [],
      "stateMutability": "payable",
      "type": "function"
    },
    {
      "inputs": [
        {
          "internalType": "uint256",
          "name": "",
          "type": "uint256"
        }
      ],
      "name": "subscribers",
      "outputs": [
        {
          "internalType": "address",
          "name": "",
          "type": "address"
        }
      ],
      "stateMutability": "view",
      "type": "function"
    },
    {
      "inputs": [],
      "name": "withdraw",
      "outputs": [],
      "stateMutability": "nonpayable",
      "type": "function"
    }
  ],
  "bytecode": "0x60806040523480156200001157600080fd5b506040516200337b3803806200337b83398101604081905262000034916200011f565b600080546001600160a01b0319163317905580516200005b90600390602084019062000063565b505062000238565b8280546200007190620001fb565b90600052602060002090601f016020900481019282620000955760008555620000e0565b82601f10620000b057805160ff1916838001178555620000e0565b82800160010185558215620000e0579182015b82811115620000e0578251825591602001919060010190620000c3565b50620000ee929150620000f2565b5090565b5b80821115620000ee5760008155600101620000f3565b634e487b7160e01b600052604160045260246000fd5b600060208083850312156200013357600080fd5b82516001600160401b03808211156200014b57600080fd5b818501915085601f8301126200016057600080fd5b81518181111562000175576200017562000109565b604051601f8201601f19908116603f01168101908382118183101715620001a057620001a062000109565b816040528281528886848701011115620001b957600080fd5b600093505b82841015620001dd5784840186015181850187015292850192620001be565b82841115620001ef5760008684830101525b98975050505050505050565b600181811c908216806200021057607f821691505b602082108114156200023257634e487b7160e01b600052602260045260246000fd5b50919050565b61313380620002486000396000f3fe608060405260043610620001075760003560e01c8063609ebec51162000095578063c4804ef01162000060578063c4804ef014620002ac578063d5fdcfa814620002f1578063d986f2ca1462000316578063dc969c09146200034a57600080fd5b8063609ebec514620002505780636a8ea6e8146200025a5780636e6b7984146200027c578063b2db85f7146200029457600080fd5b8063421928e911620000d6578063421928e914620001a7578063430f75da14620001cc57806359221a681462000204578063593963dc146200022957600080fd5b806302f2c5e0146200010c5780631236939f14620001265780632b85ed9c14620001685780633ccfd60b146200018f575b600080fd5b3480156200011957600080fd5b50620001246200036f565b005b3480156200013357600080fd5b506200014b6200014536600462000f7f565b6200048f565b6040516001600160a01b0390911681526020015b60405180910390f35b3480156200017557600080fd5b506200018060065481565b6040519081526020016200015f565b3480156200019c57600080fd5b5062000124620004ba565b348015620001b457600080fd5b5062000124620001c636600462000f99565b62000586565b348015620001d957600080fd5b50620001f1620001eb36600462000f7f565b620006b0565b6040516200015f9594939291906200101b565b3480156200021157600080fd5b506200014b6200022336600462000f7f565b620008b1565b3480156200023657600080fd5b5062000241620008c2565b6040516200015f91906200107d565b6200012462000958565b3480156200026757600080fd5b506000546200014b906001600160a01b031681565b3480156200028957600080fd5b506200018060055481565b348015620002a157600080fd5b506200012462000a12565b348015620002b957600080fd5b50620002e0620002cb36600462000f99565b60086020526000908152604090205460ff1681565b60405190151581526020016200015f565b348015620002fe57600080fd5b5062000124620003103660046200113d565b62000be2565b3480156200032357600080fd5b50620002e06200033536600462000f99565b60096020526000908152604090205460ff1681565b3480156200035757600080fd5b50620001f16200036936600462000f99565b62000eae565b3360008181526008602052604090205460ff16620003aa5760405162461bcd60e51b8152600401620003a190620011d7565b60405180910390fd5b60006002600081548110620003c357620003c36200121d565b9060005260206000200160009054906101000a90046001600160a01b03169050806001600160a01b031663723f53526040518163ffffffff1660e01b81526004016020604051808303816000875af115801562000424573d6000803e3d6000fd5b505050506040513d601f19601f820116820180604052508101906200044a919062001233565b5033600081815260096020526040808220805460ff19166001179055517f7fea4aa4184f18390a26e6b9fb5dc295f3cad41ad8f65daef086a3c74777a3b39190a25050565b60028181548110620004a057600080fd5b6000918252602090912001546001600160a01b0316905081565b6000546001600160a01b0316338114620004e75760405163251c9d6360e01b815260040160405180910390fd5b600080546040516001600160a01b039091169047908381818185875af1925050503d806000811462000536576040519150601f19603f3d011682016040523d82523d6000602084013e6200053b565b606091505b5050905080620005825760405162461bcd60e51b815260206004820152601160248201527015da5d1a191c985dd85b0811985a5b1959607a1b6044820152606401620003a1565b5050565b6000546001600160a01b0316338114620005b35760405163251c9d6360e01b815260040160405180910390fd5b6001600160a01b038216600090815260086020526040902054829060ff16620005f05760405162461bcd60e51b8152600401620003a190620011d7565b600060026000815481106200060957620006096200121d565b600091825260209091200154604051636f24726160e01b81526001600160a01b03868116600483015290911691508190636f24726190602401600060405180830381600087803b1580156200065d57600080fd5b505af115801562000672573d6000803e3d6000fd5b50506040516001600160a01b03871692507f807e367e1e9cf2116fd328021489352a16bb98bf0c0d0a4fe78c59c29b5ee6769150600090a250505050565b60018181548110620006c157600080fd5b9060005260206000209060050201600091509050806000018054620006e6906200124d565b80601f016020809104026020016040519081016040528092919081815260200182805462000714906200124d565b8015620007655780601f10620007395761010080835404028352916020019162000765565b820191906000526020600020905b8154815290600101906020018083116200074757829003601f168201915b5050505050908060010180546200077c906200124d565b80601f0160208091040260200160405190810160405280929190818152602001828054620007aa906200124d565b8015620007fb5780601f10620007cf57610100808354040283529160200191620007fb565b820191906000526020600020905b815481529060010190602001808311620007dd57829003601f168201915b50505050509080600201805462000812906200124d565b80601f016020809104026020016040519081016040528092919081815260200182805462000840906200124d565b8015620008915780601f10620008655761010080835404028352916020019162000891565b820191906000526020600020905b8154815290600101906020018083116200087357829003601f168201915b5050505060038301546004909301549192916001600160a01b0316905085565b60048181548110620004a057600080fd5b60038054620008d1906200124d565b80601f0160208091040260200160405190810160405280929190818152602001828054620008ff906200124d565b8015620009505780601f10620009245761010080835404028352916020019162000950565b820191906000526020600020905b8154815290600101906020018083116200093257829003601f168201915b505050505081565b600554803414620009a15760405162461bcd60e51b8152602060048201526012602482015271496e73756666696369656e742046756e647360701b6044820152606401620003a1565b336000908152600860205260409020805460ff1916905560405162461bcd60e51b8152600401620003a19060208082526026908201527f596f75206861766520616c7265616479207075726368617365642074686973206040820152656d6f64756c6560d01b606082015260800190565b6000546001600160a01b031633811462000a3f5760405163251c9d6360e01b815260040160405180910390fd5b6002546001101562000aac5760405162461bcd60e51b815260206004820152602f60248201527f63616e277420637265617465206d6f7265207468616e2031206365727469666960448201526e6361746520706572206d6f64756c6560881b6064820152608401620003a1565b6000600160008154811062000ac55762000ac56200121d565b9060005260206000209060050201600001600160008154811062000aed5762000aed6200121d565b9060005260206000209060050201600101600360405162000b0e9062000ecb565b62000b1c9392919062001332565b604051809103906000f08015801562000b39573d6000803e3d6000fd5b506002805460018101825560008281527f405787fa12a823e0f2b7631cc41b3ba8828b3321ca811111fa75cd3aa3bb5ace90910180546001600160a01b0319166001600160a01b038516179055815492935091829062000b9d5762000b9d6200121d565b60009182526020822001546040516001600160a01b03909116925082917f1e823223254f15ab6d83b3b9a0fe5ed8c603c5e549115baf0350ea5e6d4b66f191a2505050565b6000546001600160a01b031633811462000c0f5760405163251c9d6360e01b815260040160405180910390fd5b848385846000845111801562000c26575060008251115b801562000c34575060008351115b801562000c415750600081115b62000c855760405162461bcd60e51b815260206004820152601360248201527263616e2774206265206c65667420626c616e6b60681b6044820152606401620003a1565b6040805160a0810182528a81526020810189905290810189905260608101879052336080820152600587905560018054111562000d185760405162461bcd60e51b815260206004820152602a60248201527f43616e277420637265617465206d6f7265207468616e20636f757273652070656044820152691c8818dbdb9d1c9858dd60b21b6064820152608401620003a1565b6001805480820182556000919091528151805183926005027fb10e2d527612073b26eecdfd717e6a320cf44b4afac2b0732d9fcbe2b7fa0cf6019162000d649183916020019062000ed9565b50602082810151805162000d7f926001850192019062000ed9565b506040820151805162000d9d91600284019160209091019062000ed9565b5060608201516003820155608090910151600490910180546001600160a01b0319166001600160a01b0390921691909117905533600090815260076020908152604090912082518051849362000df892849291019062000ed9565b50602082810151805162000e13926001850192019062000ed9565b506040820151805162000e3191600284019160209091019062000ed9565b506060828101516003830155608090920151600490910180546001600160a01b0319166001600160a01b0390921691909117905581015181516040517f6c612e7e8adeb795f848b3b0d79f960a9734faccc41bd66f784dfcd5decfaf829162000e9a916200107d565b60405180910390a250505050505050505050565b600760205260009081526040902080548190620006e6906200124d565b611d82806200137c83390190565b82805462000ee7906200124d565b90600052602060002090601f01602090048101928262000f0b576000855562000f56565b82601f1062000f2657805160ff191683800117855562000f56565b8280016001018555821562000f56579182015b8281111562000f5657825182559160200191906001019062000f39565b5062000f6492915062000f68565b5090565b5b8082111562000f64576000815560010162000f69565b60006020828403121562000f9257600080fd5b5035919050565b60006020828403121562000fac57600080fd5b81356001600160a01b038116811462000fc457600080fd5b9392505050565b6000815180845260005b8181101562000ff35760208185018101518683018201520162000fd5565b8181111562001006576000602083870101525b50601f01601f19169290920160200192915050565b60a0815260006200103060a083018862000fcb565b828103602084015262001044818862000fcb565b905082810360408401526200105a818762000fcb565b606084019590955250506001600160a01b03919091166080909101529392505050565b60208152600062000fc4602083018462000fcb565b634e487b7160e01b600052604160045260246000fd5b600082601f830112620010ba57600080fd5b813567ffffffffffffffff80821115620010d857620010d862001092565b604051601f8301601f19908116603f0116810190828211818310171562001103576200110362001092565b816040528381528660208588010111156200111d57600080fd5b836020870160208301376000602085830101528094505050505092915050565b600080600080608085870312156200115457600080fd5b843567ffffffffffffffff808211156200116d57600080fd5b6200117b88838901620010a8565b955060208701359150808211156200119257600080fd5b620011a088838901620010a8565b94506040870135915080821115620011b757600080fd5b50620011c687828801620010a8565b949793965093946060013593505050565b60208082526026908201527f4f6e6c792053756273637269626572732063616e20636c61696d20636572746960408201526566696361746560d01b606082015260800190565b634e487b7160e01b600052603260045260246000fd5b6000602082840312156200124657600080fd5b5051919050565b600181811c908216806200126257607f821691505b602082108114156200128457634e487b7160e01b600052602260045260246000fd5b50919050565b8054600090600181811c9080831680620012a557607f831692505b6020808410821415620012c857634e487b7160e01b600052602260045260246000fd5b83885260208801828015620012e65760018114620012f85762001325565b60ff1987168252828201975062001325565b60008981526020902060005b878110156200131f5781548482015290860190840162001304565b83019850505b5050505050505092915050565b6060815260006200134760608301866200128a565b82810360208401526200135b81866200128a565b905082810360408401526200137181856200128a565b969550505050505056fe60a06040523480156200001157600080fd5b5060405162001d8238038062001d828339810160408190526200003491620001fc565b8251839083906200004d90600090602085019062000089565b5080516200006390600190602084019062000089565b5050336080525080516200007f90600890602084019062000089565b50505050620002ca565b82805462000097906200028d565b90600052602060002090601f016020900481019282620000bb576000855562000106565b82601f10620000d657805160ff191683800117855562000106565b8280016001018555821562000106579182015b8281111562000106578251825591602001919060010190620000e9565b506200011492915062000118565b5090565b5b8082111562000114576000815560010162000119565b634e487b7160e01b600052604160045260246000fd5b600082601f8301126200015757600080fd5b81516001600160401b03808211156200017457620001746200012f565b604051601f8301601f19908116603f011681019082821181831017156200019f576200019f6200012f565b81604052838152602092508683858801011115620001bc57600080fd5b600091505b83821015620001e05785820183015181830184015290820190620001c1565b83821115620001f25760008385830101525b9695505050505050565b6000806000606084860312156200021257600080fd5b83516001600160401b03808211156200022a57600080fd5b620002388783880162000145565b945060208601519150808211156200024f57600080fd5b6200025d8783880162000145565b935060408601519150808211156200027457600080fd5b50620002838682870162000145565b9150509250925092565b600181811c90821680620002a257607f821691505b60208210811415620002c457634e487b7160e01b600052602260045260246000fd5b50919050565b608051611a8e620002f4600039600081816102860152818161055501526106ff0152611a8e6000f3fe608060405234801561001057600080fd5b50600436106101375760003560e01c80636f247261116100b8578063aa46a4001161007c578063aa46a40014610277578063b4a99a4e14610281578063b88d4fde146102a8578063c87b56dd146102bb578063e985e9c5146102ce578063f5caa7631461030a57600080fd5b80636f2472611461022057806370a0823114610233578063723f53521461025457806395d89b411461025c578063a22cb4651461026457600080fd5b806323b872dd116100ff57806323b872dd146101cc57806337f902f0146101df57806342842e0e146101f25780636352211e146102055780636c0360eb1461021857600080fd5b806301ffc9a71461013c57806306fdde0314610164578063081812fc14610179578063095ea7b3146101a457806320c5429b146101b9575b600080fd5b61014f61014a366004611611565b61032d565b60405190151581526020015b60405180910390f35b61016c61037f565b60405161015b9190611686565b61018c610187366004611699565b610411565b6040516001600160a01b03909116815260200161015b565b6101b76101b23660046116ce565b610438565b005b6101b76101c7366004611699565b610553565b6101b76101da3660046116f8565b6105aa565b61016c6101ed366004611734565b6105db565b6101b76102003660046116f8565b610675565b61018c610213366004611699565b610690565b61016c6106f0565b6101b761022e366004611734565b6106fd565b610246610241366004611734565b61076c565b60405190815260200161015b565b6102466107f2565b61016c610942565b6101b761027236600461174f565b610951565b6007546102469081565b61018c7f000000000000000000000000000000000000000000000000000000000000000081565b6101b76102b63660046117a1565b61095c565b61016c6102c9366004611699565b610994565b61014f6102dc36600461187d565b6001600160a01b03918216600090815260056020908152604080832093909416825291909152205460ff1690565b61014f610318366004611734565b60096020526000908152604090205460ff1681565b60006001600160e01b031982166380ac58cd60e01b148061035e57506001600160e01b03198216635b5e139f60e01b145b8061037957506301ffc9a760e01b6001600160e01b03198316145b92915050565b60606000805461038e906118b0565b80601f01602080910402602001604051908101604052809291908181526020018280546103ba906118b0565b80156104075780601f106103dc57610100808354040283529160200191610407565b820191906000526020600020905b8154815290600101906020018083116103ea57829003601f168201915b5050505050905090565b600061041c8261099f565b506000908152600460205260409020546001600160a01b031690565b600061044382610690565b9050806001600160a01b0316836001600160a01b031614156104b65760405162461bcd60e51b815260206004820152602160248201527f4552433732313a20617070726f76616c20746f2063757272656e74206f776e656044820152603960f91b60648201526084015b60405180910390fd5b336001600160a01b03821614806104d257506104d281336102dc565b6105445760405162461bcd60e51b815260206004820152603d60248201527f4552433732313a20617070726f76652063616c6c6572206973206e6f7420746f60448201527f6b656e206f776e6572206f7220617070726f76656420666f7220616c6c00000060648201526084016104ad565b61054e8383610a01565b505050565b7f0000000000000000000000000000000000000000000000000000000000000000336001600160a01b0382161461059d5760405163251c9d6360e01b815260040160405180910390fd5b6105a682610a6f565b5050565b6105b43382610ae2565b6105d05760405162461bcd60e51b81526004016104ad906118eb565b61054e838383610b61565b600a60205260009081526040902080546105f4906118b0565b80601f0160208091040260200160405190810160405280929190818152602001828054610620906118b0565b801561066d5780601f106106425761010080835404028352916020019161066d565b820191906000526020600020905b81548152906001019060200180831161065057829003601f168201915b505050505081565b61054e8383836040518060200160405280600081525061095c565b6000818152600260205260408120546001600160a01b0316806103795760405162461bcd60e51b8152602060048201526018602482015277115490cdcc8c4e881a5b9d985b1a59081d1bdad95b88125160421b60448201526064016104ad565b600880546105f4906118b0565b7f0000000000000000000000000000000000000000000000000000000000000000336001600160a01b038216146107475760405163251c9d6360e01b815260040160405180910390fd5b506001600160a01b03166000908152600960205260409020805460ff19166001179055565b60006001600160a01b0382166107d65760405162461bcd60e51b815260206004820152602960248201527f4552433732313a2061646472657373207a65726f206973206e6f7420612076616044820152683634b21037bbb732b960b91b60648201526084016104ad565b506001600160a01b031660009081526003602052604090205490565b3360009081526009602052604081205460ff166108455760405162461bcd60e51b8152602060048201526011602482015270111959dc9959481b9bdd081a5cdcdd5959607a1b60448201526064016104ad565b610853600780546001019055565b600061085e60075490565b905061086a3382610cc5565b6108fe816008805461087b906118b0565b80601f01602080910402602001604051908101604052809291908181526020018280546108a7906118b0565b80156108f45780601f106108c9576101008083540402835291602001916108f4565b820191906000526020600020905b8154815290600101906020018083116108d757829003601f168201915b5050505050610e50565b336000908152600a602052604090206008805461091a906118b0565b6109259291906114b1565b50336000908152600960205260409020805460ff19169055905090565b60606001805461038e906118b0565b6105a6338383610eea565b6109663383610ae2565b6109825760405162461bcd60e51b81526004016104ad906118eb565b61098e84848484610fb9565b50505050565b606061037982610fec565b6000818152600260205260409020546001600160a01b03166109fe5760405162461bcd60e51b8152602060048201526018602482015277115490cdcc8c4e881a5b9d985b1a59081d1bdad95b88125160421b60448201526064016104ad565b50565b600081815260046020526040902080546001600160a01b0319166001600160a01b0384169081179091558190610a3682610690565b6001600160a01b03167f8c5be1e5ebec7d5bd14f71427d1e84f3dd0314c0f7b2291e5b200ac8c7c3b92560405160405180910390a45050565b33610a7982610690565b6001600160a01b031614610ad95760405162461bcd60e51b815260206004820152602160248201527f4f6e6c79204f776e65722063616e2063616c6c20746869732066756e6374696f6044820152603760f91b60648201526084016104ad565b6109fe816110f5565b600080610aee83610690565b9050806001600160a01b0316846001600160a01b03161480610b3557506001600160a01b0380821660009081526005602090815260408083209388168352929052205460ff165b80610b595750836001600160a01b0316610b4e84610411565b6001600160a01b0316145b949350505050565b826001600160a01b0316610b7482610690565b6001600160a01b031614610b9a5760405162461bcd60e51b81526004016104ad90611938565b6001600160a01b038216610bfc5760405162461bcd60e51b8152602060048201526024808201527f4552433732313a207472616e7366657220746f20746865207a65726f206164646044820152637265737360e01b60648201526084016104ad565b826001600160a01b0316610c0f82610690565b6001600160a01b031614610c355760405162461bcd60e51b81526004016104ad90611938565b600081815260046020908152604080832080546001600160a01b03199081169091556001600160a01b0387811680865260038552838620805460001901905590871680865283862080546001019055868652600290945282852080549092168417909155905184937fddf252ad1be2c89b69c2b068fc378daa952ba7f163c4a11628f55a4df523b3ef91a4505050565b6001600160a01b038216610d1b5760405162461bcd60e51b815260206004820181905260248201527f4552433732313a206d696e7420746f20746865207a65726f206164647265737360448201526064016104ad565b6000818152600260205260409020546001600160a01b031615610d805760405162461bcd60e51b815260206004820152601c60248201527f4552433732313a20746f6b656e20616c7265616479206d696e7465640000000060448201526064016104ad565b6000818152600260205260409020546001600160a01b031615610de55760405162461bcd60e51b815260206004820152601c60248201527f4552433732313a20746f6b656e20616c7265616479206d696e7465640000000060448201526064016104ad565b6001600160a01b038216600081815260036020908152604080832080546001019055848352600290915280822080546001600160a01b0319168417905551839291907fddf252ad1be2c89b69c2b068fc378daa952ba7f163c4a11628f55a4df523b3ef908290a45050565b6000828152600260205260409020546001600160a01b0316610ecb5760405162461bcd60e51b815260206004820152602e60248201527f45524337323155524953746f726167653a2055524920736574206f66206e6f6e60448201526d32bc34b9ba32b73a103a37b5b2b760911b60648201526084016104ad565b6000828152600660209081526040909120825161054e9284019061153c565b816001600160a01b0316836001600160a01b03161415610f4c5760405162461bcd60e51b815260206004820152601960248201527f4552433732313a20617070726f766520746f2063616c6c65720000000000000060448201526064016104ad565b6001600160a01b03838116600081815260056020908152604080832094871680845294825291829020805460ff191686151590811790915591519182527f17307eab39ab6107e8899845ad3d59bd9653f200f220920489ca2b5937696c31910160405180910390a3505050565b610fc4848484610b61565b610fd084848484611135565b61098e5760405162461bcd60e51b81526004016104ad9061197d565b6060610ff78261099f565b60008281526006602052604081208054611010906118b0565b80601f016020809104026020016040519081016040528092919081815260200182805461103c906118b0565b80156110895780601f1061105e57610100808354040283529160200191611089565b820191906000526020600020905b81548152906001019060200180831161106c57829003601f168201915b5050505050905060006110a760408051602081019091526000815290565b90508051600014156110ba575092915050565b8151156110ec5780826040516020016110d49291906119cf565b60405160208183030381529060405292505050919050565b610b5984611233565b6110fe816112a7565b60008181526006602052604090208054611117906118b0565b1590506109fe5760008181526006602052604081206109fe916115b0565b60006001600160a01b0384163b1561122857604051630a85bd0160e11b81526001600160a01b0385169063150b7a02906111799033908990889088906004016119fe565b6020604051808303816000875af19250505080156111b4575060408051601f3d908101601f191682019092526111b191810190611a3b565b60015b61120e573d8080156111e2576040519150601f19603f3d011682016040523d82523d6000602084013e6111e7565b606091505b5080516112065760405162461bcd60e51b81526004016104ad9061197d565b805181602001fd5b6001600160e01b031916630a85bd0160e11b149050610b59565b506001949350505050565b606061123e8261099f565b600061125560408051602081019091526000815290565b9050600081511161127557604051806020016040528060008152506112a0565b8061127f8461133c565b6040516020016112909291906119cf565b6040516020818303038152906040525b9392505050565b60006112b282610690565b90506112bd82610690565b600083815260046020908152604080832080546001600160a01b03199081169091556001600160a01b0385168085526003845282852080546000190190558785526002909352818420805490911690555192935084927fddf252ad1be2c89b69c2b068fc378daa952ba7f163c4a11628f55a4df523b3ef908390a45050565b60606000611349836113d9565b600101905060008167ffffffffffffffff8111156113695761136961178b565b6040519080825280601f01601f191660200182016040528015611393576020820181803683370190505b5090508181016020015b600019016f181899199a1a9b1b9c1cb0b131b232b360811b600a86061a8153600a85049450846113cc576113d1565b61139d565b509392505050565b60008072184f03e93ff9f4daa797ed6e38ed64bf6a1f0160401b83106114185772184f03e93ff9f4daa797ed6e38ed64bf6a1f0160401b830492506040015b6d04ee2d6d415b85acef81000000008310611444576d04ee2d6d415b85acef8100000000830492506020015b662386f26fc10000831061146257662386f26fc10000830492506010015b6305f5e100831061147a576305f5e100830492506008015b612710831061148e57612710830492506004015b606483106114a0576064830492506002015b600a83106103795760010192915050565b8280546114bd906118b0565b90600052602060002090601f0160209004810192826114df576000855561152c565b82601f106114f0578054855561152c565b8280016001018555821561152c57600052602060002091601f016020900482015b8281111561152c578254825591600101919060010190611511565b506115389291506115e6565b5090565b828054611548906118b0565b90600052602060002090601f01602090048101928261156a576000855561152c565b82601f1061158357805160ff191683800117855561152c565b8280016001018555821561152c579182015b8281111561152c578251825591602001919060010190611595565b5080546115bc906118b0565b6000825580601f106115cc575050565b601f0160209004906000526020600020908101906109fe91905b5b8082111561153857600081556001016115e7565b6001600160e01b0319811681146109fe57600080fd5b60006020828403121561162357600080fd5b81356112a0816115fb565b60005b83811015611649578181015183820152602001611631565b8381111561098e5750506000910152565b6000815180845261167281602086016020860161162e565b601f01601f19169290920160200192915050565b6020815260006112a0602083018461165a565b6000602082840312156116ab57600080fd5b5035919050565b80356001600160a01b03811681146116c957600080fd5b919050565b600080604083850312156116e157600080fd5b6116ea836116b2565b946020939093013593505050565b60008060006060848603121561170d57600080fd5b611716846116b2565b9250611724602085016116b2565b9150604084013590509250925092565b60006020828403121561174657600080fd5b6112a0826116b2565b6000806040838503121561176257600080fd5b61176b836116b2565b91506020830135801515811461178057600080fd5b809150509250929050565b634e487b7160e01b600052604160045260246000fd5b600080600080608085870312156117b757600080fd5b6117c0856116b2565b93506117ce602086016116b2565b925060408501359150606085013567ffffffffffffffff808211156117f257600080fd5b818701915087601f83011261180657600080fd5b8135818111156118185761181861178b565b604051601f8201601f19908116603f011681019083821181831017156118405761184061178b565b816040528281528a602084870101111561185957600080fd5b82602086016020830137600060208483010152809550505050505092959194509250565b6000806040838503121561189057600080fd5b611899836116b2565b91506118a7602084016116b2565b90509250929050565b600181811c908216806118c457607f821691505b602082108114156118e557634e487b7160e01b600052602260045260246000fd5b50919050565b6020808252602d908201527f4552433732313a2063616c6c6572206973206e6f7420746f6b656e206f776e6560408201526c1c881bdc88185c1c1c9bdd9959609a1b606082015260800190565b60208082526025908201527f4552433732313a207472616e736665722066726f6d20696e636f72726563742060408201526437bbb732b960d91b606082015260800190565b60208082526032908201527f4552433732313a207472616e7366657220746f206e6f6e20455243373231526560408201527131b2b4bb32b91034b6b83632b6b2b73a32b960711b606082015260800190565b600083516119e181846020880161162e565b8351908301906119f581836020880161162e565b01949350505050565b6001600160a01b0385811682528416602082015260408101839052608060608201819052600090611a319083018461165a565b9695505050505050565b600060208284031215611a4d57600080fd5b81516112a0816115fb56fea26469706673582212200b9ae8a0edf571e7bff97288a6d5f18eecccf5311c4d35f9d6271580c34fa42b64736f6c634300080c0033a2646970667358221220dcb76b2aae7ca96791587ec6cecc056fc4d138885ad09a25de79c158cdb3153964736f6c634300080c0033",
  "linkReferences": {},
  "deployedLinkReferences": {}
}