{
  "_format": "hh-sol-artifact-1",
  "contractName": "Web3Edu",
  "sourceName": "contracts/WEB3EDU.sol",
  "abi": [
    {
      "inputs": [],
      "name": "notOwner",
      "type": "error"
    },
    {
      "anonymous": false,
      "inputs": [
        {
          "indexed": true,
          "internalType": "address",
          "name": "hash",
          "type": "address"
        },
        {
          "indexed": true,
          "internalType": "uint256",
          "name": "experience",
          "type": "uint256"
        }
      ],
      "name": "instructorRegistered",
      "type": "event"
    },
    {
      "anonymous": false,
      "inputs": [
        {
          "indexed": true,
          "internalType": "address",
          "name": "hash",
          "type": "address"
        },
        {
          "indexed": false,
          "internalType": "string",
          "name": "_lastName",
          "type": "string"
        }
      ],
      "name": "instructorVerified",
      "type": "event"
    },
    {
      "anonymous": false,
      "inputs": [
        {
          "indexed": true,
          "internalType": "address",
          "name": "_student",
          "type": "address"
        }
      ],
      "name": "moduleCertficateClaimed",
      "type": "event"
    },
    {
      "anonymous": false,
      "inputs": [
        {
          "indexed": true,
          "internalType": "address",
          "name": "_client",
          "type": "address"
        },
        {
          "indexed": false,
          "internalType": "uint256",
          "name": "_amount",
          "type": "uint256"
        }
      ],
      "name": "modulePurchase",
      "type": "event"
    },
    {
      "anonymous": false,
      "inputs": [
        {
          "indexed": true,
          "internalType": "address",
          "name": "_instructor",
          "type": "address"
        },
        {
          "indexed": false,
          "internalType": "uint256",
          "name": "_courseFee",
          "type": "uint256"
        },
        {
          "indexed": false,
          "internalType": "uint256",
          "name": "_moduleIndex",
          "type": "uint256"
        }
      ],
      "name": "newMouduleCreated",
      "type": "event"
    },
    {
      "anonymous": false,
      "inputs": [
        {
          "indexed": true,
          "internalType": "address",
          "name": "_hash",
          "type": "address"
        }
      ],
      "name": "studentRegistered",
      "type": "event"
    },
    {
      "stateMutability": "payable",
      "type": "fallback"
    },
    {
      "inputs": [],
      "name": "Owner",
      "outputs": [
        {
          "internalType": "address",
          "name": "",
          "type": "address"
        }
      ],
      "stateMutability": "view",
      "type": "function"
    },
    {
      "inputs": [
        {
          "internalType": "address[]",
          "name": "_adminAddresses",
          "type": "address[]"
        }
      ],
      "name": "addAdmin",
      "outputs": [],
      "stateMutability": "nonpayable",
      "type": "function"
    },
    {
      "inputs": [
        {
          "internalType": "uint256",
          "name": "",
          "type": "uint256"
        }
      ],
      "name": "admins",
      "outputs": [
        {
          "internalType": "address",
          "name": "",
          "type": "address"
        }
      ],
      "stateMutability": "view",
      "type": "function"
    },
    {
      "inputs": [
        {
          "internalType": "uint256",
          "name": "_moduleIndex",
          "type": "uint256"
        }
      ],
      "name": "claimCertificate",
      "outputs": [],
      "stateMutability": "nonpayable",
      "type": "function"
    },
    {
      "inputs": [
        {
          "internalType": "uint256",
          "name": "",
          "type": "uint256"
        }
      ],
      "name": "courseModules",
      "outputs": [
        {
          "internalType": "contract CourseModule",
          "name": "",
          "type": "address"
        }
      ],
      "stateMutability": "view",
      "type": "function"
    },
    {
      "inputs": [
        {
          "internalType": "string",
          "name": "_courseName",
          "type": "string"
        },
        {
          "internalType": "string",
          "name": "_courseSymbol",
          "type": "string"
        },
        {
          "internalType": "uint256",
          "name": "_courseFee",
          "type": "uint256"
        },
        {
          "internalType": "string",
          "name": "_certificateURI",
          "type": "string"
        },
        {
          "internalType": "string",
          "name": "_courseDuration",
          "type": "string"
        }
      ],
      "name": "createNewModule",
      "outputs": [],
      "stateMutability": "payable",
      "type": "function"
    },
    {
      "inputs": [
        {
          "internalType": "string",
          "name": "_firstName",
          "type": "string"
        },
        {
          "internalType": "string",
          "name": "_lastName",
          "type": "string"
        },
        {
          "internalType": "string",
          "name": "_gender",
          "type": "string"
        },
        {
          "internalType": "string",
          "name": "_emailAddress",
          "type": "string"
        }
      ],
      "name": "enrollStudent",
      "outputs": [],
      "stateMutability": "nonpayable",
      "type": "function"
    },
    {
      "inputs": [
        {
          "internalType": "address",
          "name": "_instructorAddress",
          "type": "address"
        }
      ],
      "name": "fireInstructor",
      "outputs": [],
      "stateMutability": "nonpayable",
      "type": "function"
    },
    {
      "inputs": [],
      "name": "instructorCount",
      "outputs": [
        {
          "internalType": "uint256",
          "name": "",
          "type": "uint256"
        }
      ],
      "stateMutability": "view",
      "type": "function"
    },
    {
      "inputs": [],
      "name": "instructorRegistrationFee",
      "outputs": [
        {
          "internalType": "uint256",
          "name": "",
          "type": "uint256"
        }
      ],
      "stateMutability": "view",
      "type": "function"
    },
    {
      "inputs": [
        {
          "internalType": "uint256",
          "name": "",
          "type": "uint256"
        }
      ],
      "name": "instructors",
      "outputs": [
        {
          "internalType": "string",
          "name": "Firstname",
          "type": "string"
        },
        {
          "internalType": "string",
          "name": "Lastname",
          "type": "string"
        },
        {
          "internalType": "string",
          "name": "Gender",
          "type": "string"
        },
        {
          "internalType": "string",
          "name": "emailAddress",
          "type": "string"
        },
        {
          "internalType": "uint256",
          "name": "experience",
          "type": "uint256"
        },
        {
          "internalType": "address",
          "name": "hash",
          "type": "address"
        },
        {
          "internalType": "enum Registration.VerificationState",
          "name": "verificationState",
          "type": "uint8"
        }
      ],
      "stateMutability": "view",
      "type": "function"
    },
    {
      "inputs": [
        {
          "internalType": "address",
          "name": "",
          "type": "address"
        }
      ],
      "name": "isInstructor",
      "outputs": [
        {
          "internalType": "bool",
          "name": "",
          "type": "bool"
        }
      ],
      "stateMutability": "view",
      "type": "function"
    },
    {
      "inputs": [
        {
          "internalType": "address",
          "name": "",
          "type": "address"
        }
      ],
      "name": "isInstructorVerified",
      "outputs": [
        {
          "internalType": "bool",
          "name": "",
          "type": "bool"
        }
      ],
      "stateMutability": "view",
      "type": "function"
    },
    {
      "inputs": [
        {
          "internalType": "address",
          "name": "",
          "type": "address"
        }
      ],
      "name": "isStudent",
      "outputs": [
        {
          "internalType": "bool",
          "name": "",
          "type": "bool"
        }
      ],
      "stateMutability": "view",
      "type": "function"
    },
    {
      "inputs": [
        {
          "internalType": "address",
          "name": "to",
          "type": "address"
        },
        {
          "internalType": "uint256",
          "name": "_moduleIndex",
          "type": "uint256"
        }
      ],
      "name": "issueCertificate",
      "outputs": [],
      "stateMutability": "nonpayable",
      "type": "function"
    },
    {
      "inputs": [],
      "name": "moduleCreationFee",
      "outputs": [
        {
          "internalType": "uint256",
          "name": "",
          "type": "uint256"
        }
      ],
      "stateMutability": "view",
      "type": "function"
    },
    {
      "inputs": [],
      "name": "numberOfModulesCreated",
      "outputs": [
        {
          "internalType": "uint256",
          "name": "",
          "type": "uint256"
        }
      ],
      "stateMutability": "view",
      "type": "function"
    },
    {
      "inputs": [],
      "name": "numberOfModulesPurchased",
      "outputs": [
        {
          "internalType": "uint256",
          "name": "",
          "type": "uint256"
        }
      ],
      "stateMutability": "view",
      "type": "function"
    },
    {
      "inputs": [
        {
          "internalType": "uint256",
          "name": "_moduleIndex",
          "type": "uint256"
        }
      ],
      "name": "purchaseModule",
      "outputs": [],
      "stateMutability": "nonpayable",
      "type": "function"
    },
    {
      "inputs": [
        {
          "internalType": "string",
          "name": "_firstName",
          "type": "string"
        },
        {
          "internalType": "string",
          "name": "_lastName",
          "type": "string"
        },
        {
          "internalType": "string",
          "name": "_gender",
          "type": "string"
        },
        {
          "internalType": "string",
          "name": "_emailAddress",
          "type": "string"
        },
        {
          "internalType": "uint256",
          "name": "_experience",
          "type": "uint256"
        }
      ],
      "name": "registerInstructor",
      "outputs": [],
      "stateMutability": "payable",
      "type": "function"
    },
    {
      "inputs": [],
      "name": "studentCount",
      "outputs": [
        {
          "internalType": "uint256",
          "name": "",
          "type": "uint256"
        }
      ],
      "stateMutability": "view",
      "type": "function"
    },
    {
      "inputs": [
        {
          "internalType": "uint256",
          "name": "",
          "type": "uint256"
        }
      ],
      "name": "students",
      "outputs": [
        {
          "internalType": "string",
          "name": "firstName",
          "type": "string"
        },
        {
          "internalType": "string",
          "name": "lastName",
          "type": "string"
        },
        {
          "internalType": "string",
          "name": "Gender",
          "type": "string"
        },
        {
          "internalType": "string",
          "name": "emailAddress",
          "type": "string"
        },
        {
          "internalType": "uint256",
          "name": "id",
          "type": "uint256"
        },
        {
          "internalType": "address",
          "name": "hash",
          "type": "address"
        }
      ],
      "stateMutability": "view",
      "type": "function"
    },
    {
      "inputs": [],
      "name": "verifiedInstructorCount",
      "outputs": [
        {
          "internalType": "uint256",
          "name": "",
          "type": "uint256"
        }
      ],
      "stateMutability": "view",
      "type": "function"
    },
    {
      "inputs": [
        {
          "internalType": "uint256",
          "name": "",
          "type": "uint256"
        }
      ],
      "name": "verifiedInstructors",
      "outputs": [
        {
          "internalType": "address",
          "name": "",
          "type": "address"
        }
      ],
      "stateMutability": "view",
      "type": "function"
    },
    {
      "inputs": [
        {
          "internalType": "address[]",
          "name": "_instructorAddress",
          "type": "address[]"
        }
      ],
      "name": "verifyInstructors",
      "outputs": [],
      "stateMutability": "nonpayable",
      "type": "function"
    },
    {
      "inputs": [],
      "name": "withdraw",
      "outputs": [],
      "stateMutability": "nonpayable",
      "type": "function"
    },
    {
      "stateMutability": "payable",
      "type": "receive"
    }
  ],
  "bytecode": "0x60e0604052600060a05266470de4df82000060c05234801561002057600080fd5b503360805260805160a05160c051615db6610077600039600081816102f10152610c63015260008181610391015261112c0152600081816104fa01528181610a6f01528181610abc0152610b850152615db66000f3fe608060405260043610620001935760003560e01c806380358ead11620000d9578063b4a61678116200008f578063d862ff951162000069578063d862ff951462000541578063d9a26b3b1462000566578063e581f9ee146200058b578063e79fa05e14620005a357005b8063b4a6167814620004c1578063b4a99a4e14620004e6578063d45cf55b146200051c57005b806380358ead14620003d857806382f7d39214620003ef5780638d53255414620004235780638dae48f9146200045d578063980a62741462000475578063a3afcea2146200048d57005b80633d0950a811620001495780634dfcab7111620001235780634dfcab71146200031357806364af64a91462000338578063682e4281146200037d5780636c4ecd8414620003b357005b80633d0950a814620002a1578063450434c414620002c65780634b9befad14620002dd57005b80630472e3ca146200019d57806306ead22e14620001c8578063085964b7146200020157806314bfd6d0146200023f5780632823af7814620002645780633ccfd60b146200028957005b366200019b57005b005b348015620001aa57600080fd5b50620001b560035481565b6040519081526020015b60405180910390f35b348015620001d557600080fd5b50620001ed620001e7366004620022e7565b620005bb565b604051620001bf9695949392919062002351565b3480156200020e57600080fd5b506200022662000220366004620022e7565b62000852565b6040516001600160a01b039091168152602001620001bf565b3480156200024c57600080fd5b50620002266200025e366004620022e7565b6200087d565b3480156200027157600080fd5b506200019b6200028336600462002431565b6200088e565b3480156200029657600080fd5b506200019b62000a6d565b348015620002ae57600080fd5b506200019b620002c036600462002431565b62000b83565b6200019b620002d736600462002562565b62000c47565b348015620002ea57600080fd5b50620001b57f000000000000000000000000000000000000000000000000000000000000000081565b3480156200032057600080fd5b506200019b62000332366004620022e7565b62000f4c565b3480156200034557600080fd5b506200036c6200035736600462002626565b60096020526000908152604090205460ff1681565b6040519015158152602001620001bf565b3480156200038a57600080fd5b50620001b57f000000000000000000000000000000000000000000000000000000000000000081565b348015620003c057600080fd5b506200019b620003d23660046200264b565b62001086565b6200019b620003e936600462002678565b6200112a565b348015620003fc57600080fd5b506200036c6200040e36600462002626565b60076020526000908152604090205460ff1681565b3480156200043057600080fd5b506200044862000442366004620022e7565b6200143d565b604051620001bf979695949392919062002750565b3480156200046a57600080fd5b50620001b560025481565b3480156200048257600080fd5b50620001b5600d5481565b3480156200049a57600080fd5b506200036c620004ac36600462002626565b60086020526000908152604090205460ff1681565b348015620004ce57600080fd5b506200019b620004e0366004620027ef565b620016df565b348015620004f357600080fd5b50620002267f000000000000000000000000000000000000000000000000000000000000000081565b3480156200052957600080fd5b50620002266200053b366004620022e7565b6200189f565b3480156200054e57600080fd5b506200019b6200056036600462002626565b620018b0565b3480156200057357600080fd5b506200019b62000585366004620022e7565b62001bd9565b3480156200059857600080fd5b50620001b560015481565b348015620005b057600080fd5b50620001b5600c5481565b60048181548110620005cc57600080fd5b9060005260206000209060060201600091509050806000018054620005f190620028a9565b80601f01602080910402602001604051908101604052809291908181526020018280546200061f90620028a9565b8015620006705780601f10620006445761010080835404028352916020019162000670565b820191906000526020600020905b8154815290600101906020018083116200065257829003601f168201915b5050505050908060010180546200068790620028a9565b80601f0160208091040260200160405190810160405280929190818152602001828054620006b590620028a9565b8015620007065780601f10620006da5761010080835404028352916020019162000706565b820191906000526020600020905b815481529060010190602001808311620006e857829003601f168201915b5050505050908060020180546200071d90620028a9565b80601f01602080910402602001604051908101604052809291908181526020018280546200074b90620028a9565b80156200079c5780601f1062000770576101008083540402835291602001916200079c565b820191906000526020600020905b8154815290600101906020018083116200077e57829003601f168201915b505050505090806003018054620007b390620028a9565b80601f0160208091040260200160405190810160405280929190818152602001828054620007e190620028a9565b8015620008325780601f10620008065761010080835404028352916020019162000832565b820191906000526020600020905b8154815290600101906020018083116200081457829003601f168201915b5050505060048301546005909301549192916001600160a01b0316905086565b600b81815481106200086357600080fd5b6000918252602090912001546001600160a01b0316905081565b600081815481106200086357600080fd5b6000805480602002602001604051908101604052809291908181526020018280548015620008e657602002820191906000526020600020905b81546001600160a01b03168152600190910190602001808311620008c7575b50505050506000805b82518110156200094f578281815181106200090e576200090e620028e6565b60200260200101516001600160a01b0316336001600160a01b031614156200093a57600191506200094f565b80620009468162002912565b915050620008ef565b506001811515146200097e5760405162461bcd60e51b8152600401620009759062002930565b60405180910390fd5b60005b835181101562000a67576000620009b4858381518110620009a657620009a6620028e6565b602002602001015162001c84565b600160c0820181905260a0820180516006805493840181556000527ff652222313e28459528d920b65115c16c04f3efc82aaedc97be59f3f377c0d3f90920180546001600160a01b0319166001600160a01b039384161790555160208301516040519394509116917f3208c53e69106ad2cdd490d2233799337c41fa0601c89b87acf0a6ed3bc7f0949162000a499162002955565b60405180910390a2508062000a5e8162002912565b91505062000981565b50505050565b7f0000000000000000000000000000000000000000000000000000000000000000336001600160a01b0382161462000ab85760405163251c9d6360e01b815260040160405180910390fd5b60007f00000000000000000000000000000000000000000000000000000000000000006001600160a01b03164760405160006040518083038185875af1925050503d806000811462000b27576040519150601f19603f3d011682016040523d82523d6000602084013e62000b2c565b606091505b505090508062000b7f5760405162461bcd60e51b815260206004820152601760248201527f54686973205472616e73616374696f6e204661696c6564000000000000000000604482015260640162000975565b5050565b7f0000000000000000000000000000000000000000000000000000000000000000336001600160a01b0382161462000bce5760405163251c9d6360e01b815260040160405180910390fd5b60005b825181101562000c4257600083828151811062000bf25762000bf2620028e6565b60209081029190910181015182546001810184556000938452919092200180546001600160a01b0319166001600160a01b039092169190911790558062000c398162002912565b91505062000bd1565b505050565b336000908152600960205260409020805460ff191660011790557f000000000000000000000000000000000000000000000000000000000000000080341462000cc85760405162461bcd60e51b8152602060048201526012602482015271496e73756666696369656e742046756e647360701b604482015260640162000975565b858583866000845111801562000cdf575060008251115b801562000ced575060008351115b801562000cfa5750600081115b62000d3e5760405162461bcd60e51b815260206004820152601360248201527263616e2774206265206c65667420626c616e6b60681b604482015260640162000975565b600087511162000d915760405162461bcd60e51b815260206004820152601f60248201527f43657274696669636174696f6e5552492063616e277420626520626c616e6b00604482015260640162000975565b60008760405162000da29062002114565b62000dae919062002955565b604051809103906000f08015801562000dcb573d6000803e3d6000fd5b50600b80546001810182556000919091527f0175b7a638427703f0dbe7bb9bbf987a2551717b34e79f33b5b1008d1fa01db90180546001600160a01b0319166001600160a01b038316908117909155604051631abfb9f560e31b81529192509063d5fdcfa89062000e47908e908e908c908f906004016200296a565b600060405180830381600087803b15801562000e6257600080fd5b505af115801562000e77573d6000803e3d6000fd5b50505050806001600160a01b031663b2db85f76040518163ffffffff1660e01b8152600401600060405180830381600087803b15801562000eb757600080fd5b505af115801562000ecc573d6000803e3d6000fd5b505050506001600160a01b0381166000908152600a602052604081208a9055600c8054908262000efc8362002912565b90915550604080518c81526020810183905291925033917ffa1ac61934e3e39160711b1de6eb1355c83746741323a9c62c4f15e2419d534b910160405180910390a2505050505050505050505050565b6000600b828154811062000f645762000f64620028e6565b60009182526020822001546040805163609ebec560e01b815290516001600160a01b039092169350839263609ebec59260048084019382900301818387803b15801562000fb057600080fd5b505af115801562000fc5573d6000803e3d6000fd5b5050600d805492509050600062000fdc8362002912565b9190505550336001600160a01b03167f367f33c842fab786bbfd0d841ddb562e35f908dc32e1e3b3d916ab79204d22a3826001600160a01b0316636e6b79846040518163ffffffff1660e01b8152600401602060405180830381865afa1580156200104b573d6000803e3d6000fd5b505050506040513d601f19601f82011682018060405250810190620010719190620029bb565b60405190815260200160405180910390a25050565b336000908152600960205260409020805460ff191660011790556000600b8281548110620010b857620010b8620028e6565b60009182526020909120015460405163421928e960e01b81526001600160a01b0385811660048301529091169150819063421928e990602401600060405180830381600087803b1580156200110c57600080fd5b505af115801562001121573d6000803e3d6000fd5b50505050505050565b7f0000000000000000000000000000000000000000000000000000000000000000803414620011915760405162461bcd60e51b8152602060048201526012602482015271496e73756666696369656e742046756e647360701b604482015260640162000975565b858585858560008551118015620011a9575060008451115b8015620011b7575060008351115b8015620011c5575060008351115b8015620011d3575060008251115b8015620011e05750600081115b6200121f5760405162461bcd60e51b815260206004820152600e60248201526d63616e277420626520656d70747960901b604482015260640162000975565b3360009081526008602052604090205460ff1615620012795760405162461bcd60e51b815260206004820152601560248201527430b63932b0b23c9030b71034b739ba393ab1ba37b960591b604482015260640162000975565b60006040518060e001604052808d81526020018c81526020018b81526020018a8152602001898152602001336001600160a01b0316815260200160006001811115620012c957620012c96200273a565b90526005805460018101825560009190915281518051929350839260069092027f036b6384b5eca791c62761152d0c79bb0604c104a5fb6f4eb0703f3154bb3db00191620013209183916020919091019062002122565b5060208281015180516200133b926001850192019062002122565b50604082015180516200135991600284019160209091019062002122565b50606082015180516200137791600384019160209091019062002122565b506080820151600482015560a08201516005820180546001600160a01b039092166001600160a01b031983168117825560c0850151926001600160a81b03191617600160a01b836001811115620013d257620013d26200273a565b0217905550506003805491506000620013eb8362002912565b919050555080608001518160a001516001600160a01b03167f5f15cd5ddbeb6f221b9ff9af80a646b9d52716055eb2d3c1c477759364c208e860405160405180910390a3505050505050505050505050565b600581815481106200144e57600080fd5b90600052602060002090600602016000915090508060000180546200147390620028a9565b80601f0160208091040260200160405190810160405280929190818152602001828054620014a190620028a9565b8015620014f25780601f10620014c657610100808354040283529160200191620014f2565b820191906000526020600020905b815481529060010190602001808311620014d457829003601f168201915b5050505050908060010180546200150990620028a9565b80601f01602080910402602001604051908101604052809291908181526020018280546200153790620028a9565b8015620015885780601f106200155c5761010080835404028352916020019162001588565b820191906000526020600020905b8154815290600101906020018083116200156a57829003601f168201915b5050505050908060020180546200159f90620028a9565b80601f0160208091040260200160405190810160405280929190818152602001828054620015cd90620028a9565b80156200161e5780601f10620015f2576101008083540402835291602001916200161e565b820191906000526020600020905b8154815290600101906020018083116200160057829003601f168201915b5050505050908060030180546200163590620028a9565b80601f01602080910402602001604051908101604052809291908181526020018280546200166390620028a9565b8015620016b45780601f106200168857610100808354040283529160200191620016b4565b820191906000526020600020905b8154815290600101906020018083116200169657829003601f168201915b5050505060048301546005909301549192916001600160a01b0381169150600160a01b900460ff1687565b3360009081526007602052604090205460ff1615620017415760405162461bcd60e51b815260206004820152601f60248201527f616c7265616479207265676973746572656420617320612073747564656e7400604482015260640162000975565b60006040518060c00160405280868152602001858152602001848152602001838152602001600160008154809291906200177b9062002912565b909155508152336020918201526004805460018101825560009190915282518051939450849360069092027f8a35acfbc15ff81a39ae7d344fd709f28e8600b4aa8c65c6b64bfe7fe36bd19b0192620017da9284929091019062002122565b506020828101518051620017f5926001850192019062002122565b50604082015180516200181391600284019160209091019062002122565b50606082015180516200183191600384019160209091019062002122565b50608082810151600483015560a092830151600590920180546001600160a01b0319166001600160a01b03938416179055830151600155908201516040519116907f0e2041cc651cc18ec0a779dc9785f573eb366eaacf6d772cd1d06d97b7e17e2a90600090a25050505050565b600681815481106200086357600080fd5b60008054806020026020016040519081016040528092919081815260200182805480156200190857602002820191906000526020600020905b81546001600160a01b03168152600190910190602001808311620018e9575b50505050506000805b82518110156200197157828181518110620019305762001930620028e6565b60200260200101516001600160a01b0316336001600160a01b031614156200195c576001915062001971565b80620019688162002912565b91505062001911565b50600181151514620019975760405162461bcd60e51b8152600401620009759062002930565b60005b60055481101562000a6757836001600160a01b031660058281548110620019c557620019c5620028e6565b60009182526020909120600560069092020101546001600160a01b0316141562001bc45760058054620019fb90600190620029d5565b8154811062001a0e5762001a0e620028e6565b90600052602060002090600602016005828154811062001a325762001a32620028e6565b9060005260206000209060060201600082018160000190805462001a5690620028a9565b62001a63929190620021b1565b50600182018160010190805462001a7a90620028a9565b62001a87929190620021b1565b50600282018160020190805462001a9e90620028a9565b62001aab929190620021b1565b50600382018160030190805462001ac290620028a9565b62001acf929190620021b1565b50600482810154908201556005808301805491830180546001600160a01b031981166001600160a01b039094169384178255915460ff600160a01b91829004169391926001600160a81b0319169091179083600181111562001b355762001b356200273a565b0217905550905050600580548062001b515762001b51620029ef565b6000828152602081206000199092019160068302019062001b73828262002235565b62001b8360018301600062002235565b62001b9360028301600062002235565b62001ba360038301600062002235565b506000600482015560050180546001600160a81b0319169055905562000a67565b8062001bd08162002912565b9150506200199a565b6000600b828154811062001bf15762001bf1620028e6565b6000918252602082200154604080516217962f60e51b815290516001600160a01b03909216935083926302f2c5e09260048084019382900301818387803b15801562001c3c57600080fd5b505af115801562001c51573d6000803e3d6000fd5b50506040513392507f90ba78ed6bd885840baff34286c0ec643c3723dd3eeed0e350e8993105af77909150600090a25050565b62001c8e62002277565b600080548060200260200160405190810160405280929190818152602001828054801562001ce657602002820191906000526020600020905b81546001600160a01b0316815260019091019060200180831162001cc7575b50505050506000805b825181101562001d4f5782818151811062001d0e5762001d0e620028e6565b60200260200101516001600160a01b0316336001600160a01b0316141562001d3a576001915062001d4f565b8062001d468162002912565b91505062001cef565b5060018115151462001d755760405162461bcd60e51b8152600401620009759062002930565b60005b600554811015620020cf576005818154811062001d995762001d99620028e6565b60009182526020909120600560069092020101546001600160a01b0386811691161415620020ba576005818154811062001dd75762001dd7620028e6565b90600052602060002090600602016040518060e001604052908160008201805462001e0290620028a9565b80601f016020809104026020016040519081016040528092919081815260200182805462001e3090620028a9565b801562001e815780601f1062001e555761010080835404028352916020019162001e81565b820191906000526020600020905b81548152906001019060200180831162001e6357829003601f168201915b5050505050815260200160018201805462001e9c90620028a9565b80601f016020809104026020016040519081016040528092919081815260200182805462001eca90620028a9565b801562001f1b5780601f1062001eef5761010080835404028352916020019162001f1b565b820191906000526020600020905b81548152906001019060200180831162001efd57829003601f168201915b5050505050815260200160028201805462001f3690620028a9565b80601f016020809104026020016040519081016040528092919081815260200182805462001f6490620028a9565b801562001fb55780601f1062001f895761010080835404028352916020019162001fb5565b820191906000526020600020905b81548152906001019060200180831162001f9757829003601f168201915b5050505050815260200160038201805462001fd090620028a9565b80601f016020809104026020016040519081016040528092919081815260200182805462001ffe90620028a9565b80156200204f5780601f1062002023576101008083540402835291602001916200204f565b820191906000526020600020905b8154815290600101906020018083116200203157829003601f168201915b50505091835250506004820154602082015260058201546001600160a01b0381166040830152606090910190600160a01b900460ff1660018111156200209957620020996200273a565b6001811115620020ad57620020ad6200273a565b815250509350506200210d565b80620020c68162002912565b91505062001d78565b5060405162461bcd60e51b81526020600482015260116024820152702737ba1030b71024b739ba393ab1ba37b960791b604482015260640162000975565b5050919050565b61337b8062002a0683390190565b8280546200213090620028a9565b90600052602060002090601f0160209004810192826200215457600085556200219f565b82601f106200216f57805160ff19168380011785556200219f565b828001600101855582156200219f579182015b828111156200219f57825182559160200191906001019062002182565b50620021ad929150620022d0565b5090565b828054620021bf90620028a9565b90600052602060002090601f016020900481019282620021e357600085556200219f565b82601f10620021f657805485556200219f565b828001600101855582156200219f57600052602060002091601f016020900482015b828111156200219f57825482559160010191906001019062002218565b5080546200224390620028a9565b6000825580601f1062002254575050565b601f016020900490600052602060002090810190620022749190620022d0565b50565b6040518060e00160405280606081526020016060815260200160608152602001606081526020016000815260200160006001600160a01b0316815260200160006001811115620022cb57620022cb6200273a565b905290565b5b80821115620021ad5760008155600101620022d1565b600060208284031215620022fa57600080fd5b5035919050565b6000815180845260005b8181101562002329576020818501810151868301820152016200230b565b818111156200233c576000602083870101525b50601f01601f19169290920160200192915050565b60c0815260006200236660c083018962002301565b82810360208401526200237a818962002301565b9050828103604084015262002390818862002301565b90508281036060840152620023a6818762002301565b608084019590955250506001600160a01b039190911660a090910152949350505050565b634e487b7160e01b600052604160045260246000fd5b604051601f8201601f1916810167ffffffffffffffff811182821017156200240c576200240c620023ca565b604052919050565b80356001600160a01b03811681146200242c57600080fd5b919050565b600060208083850312156200244557600080fd5b823567ffffffffffffffff808211156200245e57600080fd5b818501915085601f8301126200247357600080fd5b813581811115620024885762002488620023ca565b8060051b91506200249b848301620023e0565b8181529183018401918481019088841115620024b657600080fd5b938501935b83851015620024df57620024cf8562002414565b82529385019390850190620024bb565b98975050505050505050565b600082601f830112620024fd57600080fd5b813567ffffffffffffffff8111156200251a576200251a620023ca565b6200252f601f8201601f1916602001620023e0565b8181528460208386010111156200254557600080fd5b816020850160208301376000918101602001919091529392505050565b600080600080600060a086880312156200257b57600080fd5b853567ffffffffffffffff808211156200259457600080fd5b620025a289838a01620024eb565b96506020880135915080821115620025b957600080fd5b620025c789838a01620024eb565b9550604088013594506060880135915080821115620025e557600080fd5b620025f389838a01620024eb565b935060808801359150808211156200260a57600080fd5b506200261988828901620024eb565b9150509295509295909350565b6000602082840312156200263957600080fd5b620026448262002414565b9392505050565b600080604083850312156200265f57600080fd5b6200266a8362002414565b946020939093013593505050565b600080600080600060a086880312156200269157600080fd5b853567ffffffffffffffff80821115620026aa57600080fd5b620026b889838a01620024eb565b96506020880135915080821115620026cf57600080fd5b620026dd89838a01620024eb565b95506040880135915080821115620026f457600080fd5b6200270289838a01620024eb565b945060608801359150808211156200271957600080fd5b506200272888828901620024eb565b95989497509295608001359392505050565b634e487b7160e01b600052602160045260246000fd5b60e0815260006200276560e083018a62002301565b828103602084015262002779818a62002301565b905082810360408401526200278f818962002301565b90508281036060840152620027a5818862002301565b608084018790526001600160a01b03861660a085015291505060028310620027dd57634e487b7160e01b600052602160045260246000fd5b8260c083015298975050505050505050565b600080600080608085870312156200280657600080fd5b843567ffffffffffffffff808211156200281f57600080fd5b6200282d88838901620024eb565b955060208701359150808211156200284457600080fd5b6200285288838901620024eb565b945060408701359150808211156200286957600080fd5b6200287788838901620024eb565b935060608701359150808211156200288e57600080fd5b506200289d87828801620024eb565b91505092959194509250565b600181811c90821680620028be57607f821691505b60208210811415620028e057634e487b7160e01b600052602260045260246000fd5b50919050565b634e487b7160e01b600052603260045260246000fd5b634e487b7160e01b600052601160045260246000fd5b6000600019821415620029295762002929620028fc565b5060010190565b6020808252600b908201526a4f6e6c792041646d696e7360a81b604082015260600190565b60208152600062002644602083018462002301565b6080815260006200297f608083018762002301565b828103602084015262002993818762002301565b90508281036040840152620029a9818662002301565b91505082606083015295945050505050565b600060208284031215620029ce57600080fd5b5051919050565b600082821015620029ea57620029ea620028fc565b500390565b634e487b7160e01b600052603160045260246000fdfe60806040523480156200001157600080fd5b506040516200337b3803806200337b83398101604081905262000034916200011f565b600080546001600160a01b0319163317905580516200005b90600390602084019062000063565b505062000238565b8280546200007190620001fb565b90600052602060002090601f016020900481019282620000955760008555620000e0565b82601f10620000b057805160ff1916838001178555620000e0565b82800160010185558215620000e0579182015b82811115620000e0578251825591602001919060010190620000c3565b50620000ee929150620000f2565b5090565b5b80821115620000ee5760008155600101620000f3565b634e487b7160e01b600052604160045260246000fd5b600060208083850312156200013357600080fd5b82516001600160401b03808211156200014b57600080fd5b818501915085601f8301126200016057600080fd5b81518181111562000175576200017562000109565b604051601f8201601f19908116603f01168101908382118183101715620001a057620001a062000109565b816040528281528886848701011115620001b957600080fd5b600093505b82841015620001dd5784840186015181850187015292850192620001be565b82841115620001ef5760008684830101525b98975050505050505050565b600181811c908216806200021057607f821691505b602082108114156200023257634e487b7160e01b600052602260045260246000fd5b50919050565b61313380620002486000396000f3fe608060405260043610620001075760003560e01c8063609ebec51162000095578063c4804ef01162000060578063c4804ef014620002ac578063d5fdcfa814620002f1578063d986f2ca1462000316578063dc969c09146200034a57600080fd5b8063609ebec514620002505780636a8ea6e8146200025a5780636e6b7984146200027c578063b2db85f7146200029457600080fd5b8063421928e911620000d6578063421928e914620001a7578063430f75da14620001cc57806359221a681462000204578063593963dc146200022957600080fd5b806302f2c5e0146200010c5780631236939f14620001265780632b85ed9c14620001685780633ccfd60b146200018f575b600080fd5b3480156200011957600080fd5b50620001246200036f565b005b3480156200013357600080fd5b506200014b6200014536600462000f7f565b6200048f565b6040516001600160a01b0390911681526020015b60405180910390f35b3480156200017557600080fd5b506200018060065481565b6040519081526020016200015f565b3480156200019c57600080fd5b5062000124620004ba565b348015620001b457600080fd5b5062000124620001c636600462000f99565b62000586565b348015620001d957600080fd5b50620001f1620001eb36600462000f7f565b620006b0565b6040516200015f9594939291906200101b565b3480156200021157600080fd5b506200014b6200022336600462000f7f565b620008b1565b3480156200023657600080fd5b5062000241620008c2565b6040516200015f91906200107d565b6200012462000958565b3480156200026757600080fd5b506000546200014b906001600160a01b031681565b3480156200028957600080fd5b506200018060055481565b348015620002a157600080fd5b506200012462000a12565b348015620002b957600080fd5b50620002e0620002cb36600462000f99565b60086020526000908152604090205460ff1681565b60405190151581526020016200015f565b348015620002fe57600080fd5b5062000124620003103660046200113d565b62000be2565b3480156200032357600080fd5b50620002e06200033536600462000f99565b60096020526000908152604090205460ff1681565b3480156200035757600080fd5b50620001f16200036936600462000f99565b62000eae565b3360008181526008602052604090205460ff16620003aa5760405162461bcd60e51b8152600401620003a190620011d7565b60405180910390fd5b60006002600081548110620003c357620003c36200121d565b9060005260206000200160009054906101000a90046001600160a01b03169050806001600160a01b031663723f53526040518163ffffffff1660e01b81526004016020604051808303816000875af115801562000424573d6000803e3d6000fd5b505050506040513d601f19601f820116820180604052508101906200044a919062001233565b5033600081815260096020526040808220805460ff19166001179055517f7fea4aa4184f18390a26e6b9fb5dc295f3cad41ad8f65daef086a3c74777a3b39190a25050565b60028181548110620004a057600080fd5b6000918252602090912001546001600160a01b0316905081565b6000546001600160a01b0316338114620004e75760405163251c9d6360e01b815260040160405180910390fd5b600080546040516001600160a01b039091169047908381818185875af1925050503d806000811462000536576040519150601f19603f3d011682016040523d82523d6000602084013e6200053b565b606091505b5050905080620005825760405162461bcd60e51b815260206004820152601160248201527015da5d1a191c985dd85b0811985a5b1959607a1b6044820152606401620003a1565b5050565b6000546001600160a01b0316338114620005b35760405163251c9d6360e01b815260040160405180910390fd5b6001600160a01b038216600090815260086020526040902054829060ff16620005f05760405162461bcd60e51b8152600401620003a190620011d7565b600060026000815481106200060957620006096200121d565b600091825260209091200154604051636f24726160e01b81526001600160a01b03868116600483015290911691508190636f24726190602401600060405180830381600087803b1580156200065d57600080fd5b505af115801562000672573d6000803e3d6000fd5b50506040516001600160a01b03871692507f807e367e1e9cf2116fd328021489352a16bb98bf0c0d0a4fe78c59c29b5ee6769150600090a250505050565b60018181548110620006c157600080fd5b9060005260206000209060050201600091509050806000018054620006e6906200124d565b80601f016020809104026020016040519081016040528092919081815260200182805462000714906200124d565b8015620007655780601f10620007395761010080835404028352916020019162000765565b820191906000526020600020905b8154815290600101906020018083116200074757829003601f168201915b5050505050908060010180546200077c906200124d565b80601f0160208091040260200160405190810160405280929190818152602001828054620007aa906200124d565b8015620007fb5780601f10620007cf57610100808354040283529160200191620007fb565b820191906000526020600020905b815481529060010190602001808311620007dd57829003601f168201915b50505050509080600201805462000812906200124d565b80601f016020809104026020016040519081016040528092919081815260200182805462000840906200124d565b8015620008915780601f10620008655761010080835404028352916020019162000891565b820191906000526020600020905b8154815290600101906020018083116200087357829003601f168201915b5050505060038301546004909301549192916001600160a01b0316905085565b60048181548110620004a057600080fd5b60038054620008d1906200124d565b80601f0160208091040260200160405190810160405280929190818152602001828054620008ff906200124d565b8015620009505780601f10620009245761010080835404028352916020019162000950565b820191906000526020600020905b8154815290600101906020018083116200093257829003601f168201915b505050505081565b600554803414620009a15760405162461bcd60e51b8152602060048201526012602482015271496e73756666696369656e742046756e647360701b6044820152606401620003a1565b336000908152600860205260409020805460ff1916905560405162461bcd60e51b8152600401620003a19060208082526026908201527f596f75206861766520616c7265616479207075726368617365642074686973206040820152656d6f64756c6560d01b606082015260800190565b6000546001600160a01b031633811462000a3f5760405163251c9d6360e01b815260040160405180910390fd5b6002546001101562000aac5760405162461bcd60e51b815260206004820152602f60248201527f63616e277420637265617465206d6f7265207468616e2031206365727469666960448201526e6361746520706572206d6f64756c6560881b6064820152608401620003a1565b6000600160008154811062000ac55762000ac56200121d565b9060005260206000209060050201600001600160008154811062000aed5762000aed6200121d565b9060005260206000209060050201600101600360405162000b0e9062000ecb565b62000b1c9392919062001332565b604051809103906000f08015801562000b39573d6000803e3d6000fd5b506002805460018101825560008281527f405787fa12a823e0f2b7631cc41b3ba8828b3321ca811111fa75cd3aa3bb5ace90910180546001600160a01b0319166001600160a01b038516179055815492935091829062000b9d5762000b9d6200121d565b60009182526020822001546040516001600160a01b03909116925082917f1e823223254f15ab6d83b3b9a0fe5ed8c603c5e549115baf0350ea5e6d4b66f191a2505050565b6000546001600160a01b031633811462000c0f5760405163251c9d6360e01b815260040160405180910390fd5b848385846000845111801562000c26575060008251115b801562000c34575060008351115b801562000c415750600081115b62000c855760405162461bcd60e51b815260206004820152601360248201527263616e2774206265206c65667420626c616e6b60681b6044820152606401620003a1565b6040805160a0810182528a81526020810189905290810189905260608101879052336080820152600587905560018054111562000d185760405162461bcd60e51b815260206004820152602a60248201527f43616e277420637265617465206d6f7265207468616e20636f757273652070656044820152691c8818dbdb9d1c9858dd60b21b6064820152608401620003a1565b6001805480820182556000919091528151805183926005027fb10e2d527612073b26eecdfd717e6a320cf44b4afac2b0732d9fcbe2b7fa0cf6019162000d649183916020019062000ed9565b50602082810151805162000d7f926001850192019062000ed9565b506040820151805162000d9d91600284019160209091019062000ed9565b5060608201516003820155608090910151600490910180546001600160a01b0319166001600160a01b0390921691909117905533600090815260076020908152604090912082518051849362000df892849291019062000ed9565b50602082810151805162000e13926001850192019062000ed9565b506040820151805162000e3191600284019160209091019062000ed9565b506060828101516003830155608090920151600490910180546001600160a01b0319166001600160a01b0390921691909117905581015181516040517f6c612e7e8adeb795f848b3b0d79f960a9734faccc41bd66f784dfcd5decfaf829162000e9a916200107d565b60405180910390a250505050505050505050565b600760205260009081526040902080548190620006e6906200124d565b611d82806200137c83390190565b82805462000ee7906200124d565b90600052602060002090601f01602090048101928262000f0b576000855562000f56565b82601f1062000f2657805160ff191683800117855562000f56565b8280016001018555821562000f56579182015b8281111562000f5657825182559160200191906001019062000f39565b5062000f6492915062000f68565b5090565b5b8082111562000f64576000815560010162000f69565b60006020828403121562000f9257600080fd5b5035919050565b60006020828403121562000fac57600080fd5b81356001600160a01b038116811462000fc457600080fd5b9392505050565b6000815180845260005b8181101562000ff35760208185018101518683018201520162000fd5565b8181111562001006576000602083870101525b50601f01601f19169290920160200192915050565b60a0815260006200103060a083018862000fcb565b828103602084015262001044818862000fcb565b905082810360408401526200105a818762000fcb565b606084019590955250506001600160a01b03919091166080909101529392505050565b60208152600062000fc4602083018462000fcb565b634e487b7160e01b600052604160045260246000fd5b600082601f830112620010ba57600080fd5b813567ffffffffffffffff80821115620010d857620010d862001092565b604051601f8301601f19908116603f0116810190828211818310171562001103576200110362001092565b816040528381528660208588010111156200111d57600080fd5b836020870160208301376000602085830101528094505050505092915050565b600080600080608085870312156200115457600080fd5b843567ffffffffffffffff808211156200116d57600080fd5b6200117b88838901620010a8565b955060208701359150808211156200119257600080fd5b620011a088838901620010a8565b94506040870135915080821115620011b757600080fd5b50620011c687828801620010a8565b949793965093946060013593505050565b60208082526026908201527f4f6e6c792053756273637269626572732063616e20636c61696d20636572746960408201526566696361746560d01b606082015260800190565b634e487b7160e01b600052603260045260246000fd5b6000602082840312156200124657600080fd5b5051919050565b600181811c908216806200126257607f821691505b602082108114156200128457634e487b7160e01b600052602260045260246000fd5b50919050565b8054600090600181811c9080831680620012a557607f831692505b6020808410821415620012c857634e487b7160e01b600052602260045260246000fd5b83885260208801828015620012e65760018114620012f85762001325565b60ff1987168252828201975062001325565b60008981526020902060005b878110156200131f5781548482015290860190840162001304565b83019850505b5050505050505092915050565b6060815260006200134760608301866200128a565b82810360208401526200135b81866200128a565b905082810360408401526200137181856200128a565b969550505050505056fe60a06040523480156200001157600080fd5b5060405162001d8238038062001d828339810160408190526200003491620001fc565b8251839083906200004d90600090602085019062000089565b5080516200006390600190602084019062000089565b5050336080525080516200007f90600890602084019062000089565b50505050620002ca565b82805462000097906200028d565b90600052602060002090601f016020900481019282620000bb576000855562000106565b82601f10620000d657805160ff191683800117855562000106565b8280016001018555821562000106579182015b8281111562000106578251825591602001919060010190620000e9565b506200011492915062000118565b5090565b5b8082111562000114576000815560010162000119565b634e487b7160e01b600052604160045260246000fd5b600082601f8301126200015757600080fd5b81516001600160401b03808211156200017457620001746200012f565b604051601f8301601f19908116603f011681019082821181831017156200019f576200019f6200012f565b81604052838152602092508683858801011115620001bc57600080fd5b600091505b83821015620001e05785820183015181830184015290820190620001c1565b83821115620001f25760008385830101525b9695505050505050565b6000806000606084860312156200021257600080fd5b83516001600160401b03808211156200022a57600080fd5b620002388783880162000145565b945060208601519150808211156200024f57600080fd5b6200025d8783880162000145565b935060408601519150808211156200027457600080fd5b50620002838682870162000145565b9150509250925092565b600181811c90821680620002a257607f821691505b60208210811415620002c457634e487b7160e01b600052602260045260246000fd5b50919050565b608051611a8e620002f4600039600081816102860152818161055501526106ff0152611a8e6000f3fe608060405234801561001057600080fd5b50600436106101375760003560e01c80636f247261116100b8578063aa46a4001161007c578063aa46a40014610277578063b4a99a4e14610281578063b88d4fde146102a8578063c87b56dd146102bb578063e985e9c5146102ce578063f5caa7631461030a57600080fd5b80636f2472611461022057806370a0823114610233578063723f53521461025457806395d89b411461025c578063a22cb4651461026457600080fd5b806323b872dd116100ff57806323b872dd146101cc57806337f902f0146101df57806342842e0e146101f25780636352211e146102055780636c0360eb1461021857600080fd5b806301ffc9a71461013c57806306fdde0314610164578063081812fc14610179578063095ea7b3146101a457806320c5429b146101b9575b600080fd5b61014f61014a366004611611565b61032d565b60405190151581526020015b60405180910390f35b61016c61037f565b60405161015b9190611686565b61018c610187366004611699565b610411565b6040516001600160a01b03909116815260200161015b565b6101b76101b23660046116ce565b610438565b005b6101b76101c7366004611699565b610553565b6101b76101da3660046116f8565b6105aa565b61016c6101ed366004611734565b6105db565b6101b76102003660046116f8565b610675565b61018c610213366004611699565b610690565b61016c6106f0565b6101b761022e366004611734565b6106fd565b610246610241366004611734565b61076c565b60405190815260200161015b565b6102466107f2565b61016c610942565b6101b761027236600461174f565b610951565b6007546102469081565b61018c7f000000000000000000000000000000000000000000000000000000000000000081565b6101b76102b63660046117a1565b61095c565b61016c6102c9366004611699565b610994565b61014f6102dc36600461187d565b6001600160a01b03918216600090815260056020908152604080832093909416825291909152205460ff1690565b61014f610318366004611734565b60096020526000908152604090205460ff1681565b60006001600160e01b031982166380ac58cd60e01b148061035e57506001600160e01b03198216635b5e139f60e01b145b8061037957506301ffc9a760e01b6001600160e01b03198316145b92915050565b60606000805461038e906118b0565b80601f01602080910402602001604051908101604052809291908181526020018280546103ba906118b0565b80156104075780601f106103dc57610100808354040283529160200191610407565b820191906000526020600020905b8154815290600101906020018083116103ea57829003601f168201915b5050505050905090565b600061041c8261099f565b506000908152600460205260409020546001600160a01b031690565b600061044382610690565b9050806001600160a01b0316836001600160a01b031614156104b65760405162461bcd60e51b815260206004820152602160248201527f4552433732313a20617070726f76616c20746f2063757272656e74206f776e656044820152603960f91b60648201526084015b60405180910390fd5b336001600160a01b03821614806104d257506104d281336102dc565b6105445760405162461bcd60e51b815260206004820152603d60248201527f4552433732313a20617070726f76652063616c6c6572206973206e6f7420746f60448201527f6b656e206f776e6572206f7220617070726f76656420666f7220616c6c00000060648201526084016104ad565b61054e8383610a01565b505050565b7f0000000000000000000000000000000000000000000000000000000000000000336001600160a01b0382161461059d5760405163251c9d6360e01b815260040160405180910390fd5b6105a682610a6f565b5050565b6105b43382610ae2565b6105d05760405162461bcd60e51b81526004016104ad906118eb565b61054e838383610b61565b600a60205260009081526040902080546105f4906118b0565b80601f0160208091040260200160405190810160405280929190818152602001828054610620906118b0565b801561066d5780601f106106425761010080835404028352916020019161066d565b820191906000526020600020905b81548152906001019060200180831161065057829003601f168201915b505050505081565b61054e8383836040518060200160405280600081525061095c565b6000818152600260205260408120546001600160a01b0316806103795760405162461bcd60e51b8152602060048201526018602482015277115490cdcc8c4e881a5b9d985b1a59081d1bdad95b88125160421b60448201526064016104ad565b600880546105f4906118b0565b7f0000000000000000000000000000000000000000000000000000000000000000336001600160a01b038216146107475760405163251c9d6360e01b815260040160405180910390fd5b506001600160a01b03166000908152600960205260409020805460ff19166001179055565b60006001600160a01b0382166107d65760405162461bcd60e51b815260206004820152602960248201527f4552433732313a2061646472657373207a65726f206973206e6f7420612076616044820152683634b21037bbb732b960b91b60648201526084016104ad565b506001600160a01b031660009081526003602052604090205490565b3360009081526009602052604081205460ff166108455760405162461bcd60e51b8152602060048201526011602482015270111959dc9959481b9bdd081a5cdcdd5959607a1b60448201526064016104ad565b610853600780546001019055565b600061085e60075490565b905061086a3382610cc5565b6108fe816008805461087b906118b0565b80601f01602080910402602001604051908101604052809291908181526020018280546108a7906118b0565b80156108f45780601f106108c9576101008083540402835291602001916108f4565b820191906000526020600020905b8154815290600101906020018083116108d757829003601f168201915b5050505050610e50565b336000908152600a602052604090206008805461091a906118b0565b6109259291906114b1565b50336000908152600960205260409020805460ff19169055905090565b60606001805461038e906118b0565b6105a6338383610eea565b6109663383610ae2565b6109825760405162461bcd60e51b81526004016104ad906118eb565b61098e84848484610fb9565b50505050565b606061037982610fec565b6000818152600260205260409020546001600160a01b03166109fe5760405162461bcd60e51b8152602060048201526018602482015277115490cdcc8c4e881a5b9d985b1a59081d1bdad95b88125160421b60448201526064016104ad565b50565b600081815260046020526040902080546001600160a01b0319166001600160a01b0384169081179091558190610a3682610690565b6001600160a01b03167f8c5be1e5ebec7d5bd14f71427d1e84f3dd0314c0f7b2291e5b200ac8c7c3b92560405160405180910390a45050565b33610a7982610690565b6001600160a01b031614610ad95760405162461bcd60e51b815260206004820152602160248201527f4f6e6c79204f776e65722063616e2063616c6c20746869732066756e6374696f6044820152603760f91b60648201526084016104ad565b6109fe816110f5565b600080610aee83610690565b9050806001600160a01b0316846001600160a01b03161480610b3557506001600160a01b0380821660009081526005602090815260408083209388168352929052205460ff165b80610b595750836001600160a01b0316610b4e84610411565b6001600160a01b0316145b949350505050565b826001600160a01b0316610b7482610690565b6001600160a01b031614610b9a5760405162461bcd60e51b81526004016104ad90611938565b6001600160a01b038216610bfc5760405162461bcd60e51b8152602060048201526024808201527f4552433732313a207472616e7366657220746f20746865207a65726f206164646044820152637265737360e01b60648201526084016104ad565b826001600160a01b0316610c0f82610690565b6001600160a01b031614610c355760405162461bcd60e51b81526004016104ad90611938565b600081815260046020908152604080832080546001600160a01b03199081169091556001600160a01b0387811680865260038552838620805460001901905590871680865283862080546001019055868652600290945282852080549092168417909155905184937fddf252ad1be2c89b69c2b068fc378daa952ba7f163c4a11628f55a4df523b3ef91a4505050565b6001600160a01b038216610d1b5760405162461bcd60e51b815260206004820181905260248201527f4552433732313a206d696e7420746f20746865207a65726f206164647265737360448201526064016104ad565b6000818152600260205260409020546001600160a01b031615610d805760405162461bcd60e51b815260206004820152601c60248201527f4552433732313a20746f6b656e20616c7265616479206d696e7465640000000060448201526064016104ad565b6000818152600260205260409020546001600160a01b031615610de55760405162461bcd60e51b815260206004820152601c60248201527f4552433732313a20746f6b656e20616c7265616479206d696e7465640000000060448201526064016104ad565b6001600160a01b038216600081815260036020908152604080832080546001019055848352600290915280822080546001600160a01b0319168417905551839291907fddf252ad1be2c89b69c2b068fc378daa952ba7f163c4a11628f55a4df523b3ef908290a45050565b6000828152600260205260409020546001600160a01b0316610ecb5760405162461bcd60e51b815260206004820152602e60248201527f45524337323155524953746f726167653a2055524920736574206f66206e6f6e60448201526d32bc34b9ba32b73a103a37b5b2b760911b60648201526084016104ad565b6000828152600660209081526040909120825161054e9284019061153c565b816001600160a01b0316836001600160a01b03161415610f4c5760405162461bcd60e51b815260206004820152601960248201527f4552433732313a20617070726f766520746f2063616c6c65720000000000000060448201526064016104ad565b6001600160a01b03838116600081815260056020908152604080832094871680845294825291829020805460ff191686151590811790915591519182527f17307eab39ab6107e8899845ad3d59bd9653f200f220920489ca2b5937696c31910160405180910390a3505050565b610fc4848484610b61565b610fd084848484611135565b61098e5760405162461bcd60e51b81526004016104ad9061197d565b6060610ff78261099f565b60008281526006602052604081208054611010906118b0565b80601f016020809104026020016040519081016040528092919081815260200182805461103c906118b0565b80156110895780601f1061105e57610100808354040283529160200191611089565b820191906000526020600020905b81548152906001019060200180831161106c57829003601f168201915b5050505050905060006110a760408051602081019091526000815290565b90508051600014156110ba575092915050565b8151156110ec5780826040516020016110d49291906119cf565b60405160208183030381529060405292505050919050565b610b5984611233565b6110fe816112a7565b60008181526006602052604090208054611117906118b0565b1590506109fe5760008181526006602052604081206109fe916115b0565b60006001600160a01b0384163b1561122857604051630a85bd0160e11b81526001600160a01b0385169063150b7a02906111799033908990889088906004016119fe565b6020604051808303816000875af19250505080156111b4575060408051601f3d908101601f191682019092526111b191810190611a3b565b60015b61120e573d8080156111e2576040519150601f19603f3d011682016040523d82523d6000602084013e6111e7565b606091505b5080516112065760405162461bcd60e51b81526004016104ad9061197d565b805181602001fd5b6001600160e01b031916630a85bd0160e11b149050610b59565b506001949350505050565b606061123e8261099f565b600061125560408051602081019091526000815290565b9050600081511161127557604051806020016040528060008152506112a0565b8061127f8461133c565b6040516020016112909291906119cf565b6040516020818303038152906040525b9392505050565b60006112b282610690565b90506112bd82610690565b600083815260046020908152604080832080546001600160a01b03199081169091556001600160a01b0385168085526003845282852080546000190190558785526002909352818420805490911690555192935084927fddf252ad1be2c89b69c2b068fc378daa952ba7f163c4a11628f55a4df523b3ef908390a45050565b60606000611349836113d9565b600101905060008167ffffffffffffffff8111156113695761136961178b565b6040519080825280601f01601f191660200182016040528015611393576020820181803683370190505b5090508181016020015b600019016f181899199a1a9b1b9c1cb0b131b232b360811b600a86061a8153600a85049450846113cc576113d1565b61139d565b509392505050565b60008072184f03e93ff9f4daa797ed6e38ed64bf6a1f0160401b83106114185772184f03e93ff9f4daa797ed6e38ed64bf6a1f0160401b830492506040015b6d04ee2d6d415b85acef81000000008310611444576d04ee2d6d415b85acef8100000000830492506020015b662386f26fc10000831061146257662386f26fc10000830492506010015b6305f5e100831061147a576305f5e100830492506008015b612710831061148e57612710830492506004015b606483106114a0576064830492506002015b600a83106103795760010192915050565b8280546114bd906118b0565b90600052602060002090601f0160209004810192826114df576000855561152c565b82601f106114f0578054855561152c565b8280016001018555821561152c57600052602060002091601f016020900482015b8281111561152c578254825591600101919060010190611511565b506115389291506115e6565b5090565b828054611548906118b0565b90600052602060002090601f01602090048101928261156a576000855561152c565b82601f1061158357805160ff191683800117855561152c565b8280016001018555821561152c579182015b8281111561152c578251825591602001919060010190611595565b5080546115bc906118b0565b6000825580601f106115cc575050565b601f0160209004906000526020600020908101906109fe91905b5b8082111561153857600081556001016115e7565b6001600160e01b0319811681146109fe57600080fd5b60006020828403121561162357600080fd5b81356112a0816115fb565b60005b83811015611649578181015183820152602001611631565b8381111561098e5750506000910152565b6000815180845261167281602086016020860161162e565b601f01601f19169290920160200192915050565b6020815260006112a0602083018461165a565b6000602082840312156116ab57600080fd5b5035919050565b80356001600160a01b03811681146116c957600080fd5b919050565b600080604083850312156116e157600080fd5b6116ea836116b2565b946020939093013593505050565b60008060006060848603121561170d57600080fd5b611716846116b2565b9250611724602085016116b2565b9150604084013590509250925092565b60006020828403121561174657600080fd5b6112a0826116b2565b6000806040838503121561176257600080fd5b61176b836116b2565b91506020830135801515811461178057600080fd5b809150509250929050565b634e487b7160e01b600052604160045260246000fd5b600080600080608085870312156117b757600080fd5b6117c0856116b2565b93506117ce602086016116b2565b925060408501359150606085013567ffffffffffffffff808211156117f257600080fd5b818701915087601f83011261180657600080fd5b8135818111156118185761181861178b565b604051601f8201601f19908116603f011681019083821181831017156118405761184061178b565b816040528281528a602084870101111561185957600080fd5b82602086016020830137600060208483010152809550505050505092959194509250565b6000806040838503121561189057600080fd5b611899836116b2565b91506118a7602084016116b2565b90509250929050565b600181811c908216806118c457607f821691505b602082108114156118e557634e487b7160e01b600052602260045260246000fd5b50919050565b6020808252602d908201527f4552433732313a2063616c6c6572206973206e6f7420746f6b656e206f776e6560408201526c1c881bdc88185c1c1c9bdd9959609a1b606082015260800190565b60208082526025908201527f4552433732313a207472616e736665722066726f6d20696e636f72726563742060408201526437bbb732b960d91b606082015260800190565b60208082526032908201527f4552433732313a207472616e7366657220746f206e6f6e20455243373231526560408201527131b2b4bb32b91034b6b83632b6b2b73a32b960711b606082015260800190565b600083516119e181846020880161162e565b8351908301906119f581836020880161162e565b01949350505050565b6001600160a01b0385811682528416602082015260408101839052608060608201819052600090611a319083018461165a565b9695505050505050565b600060208284031215611a4d57600080fd5b81516112a0816115fb56fea26469706673582212200b9ae8a0edf571e7bff97288a6d5f18eecccf5311c4d35f9d6271580c34fa42b64736f6c634300080c0033a2646970667358221220dcb76b2aae7ca96791587ec6cecc056fc4d138885ad09a25de79c158cdb3153964736f6c634300080c0033a26469706673582212209e178aa8bbd5cc750ce108c833ddd406ab10cfdae2058992dccc27710feb7e9d64736f6c634300080c0033",
  "linkReferences": {},
  "deployedLinkReferences": {}
}