{
  "_format": "hh-sol-artifact-1",
  "contractName": "Web3Edu",
  "sourceName": "contracts/WEB3EDU.sol",
  "abi": [
    {
      "inputs": [],
      "name": "notOwner",
      "type": "error"
    },
    {
      "anonymous": false,
      "inputs": [
        {
          "indexed": true,
          "internalType": "address",
          "name": "hash",
          "type": "address"
        },
        {
          "indexed": true,
          "internalType": "uint256",
          "name": "experience",
          "type": "uint256"
        }
      ],
      "name": "instructorRegistered",
      "type": "event"
    },
    {
      "anonymous": false,
      "inputs": [
        {
          "indexed": true,
          "internalType": "address",
          "name": "hash",
          "type": "address"
        },
        {
          "indexed": false,
          "internalType": "string",
          "name": "_lastName",
          "type": "string"
        }
      ],
      "name": "instructorVerified",
      "type": "event"
    },
    {
      "anonymous": false,
      "inputs": [
        {
          "indexed": true,
          "internalType": "address",
          "name": "_student",
          "type": "address"
        }
      ],
      "name": "moduleCertficateClaimed",
      "type": "event"
    },
    {
      "anonymous": false,
      "inputs": [
        {
          "indexed": true,
          "internalType": "address",
          "name": "_client",
          "type": "address"
        },
        {
          "indexed": false,
          "internalType": "uint256",
          "name": "_amount",
          "type": "uint256"
        }
      ],
      "name": "modulePurchase",
      "type": "event"
    },
    {
      "anonymous": false,
      "inputs": [
        {
          "indexed": true,
          "internalType": "address",
          "name": "_instructor",
          "type": "address"
        },
        {
          "indexed": false,
          "internalType": "uint256",
          "name": "_courseFee",
          "type": "uint256"
        },
        {
          "indexed": false,
          "internalType": "uint256",
          "name": "_moduleIndex",
          "type": "uint256"
        }
      ],
      "name": "newMouduleCreated",
      "type": "event"
    },
    {
      "anonymous": false,
      "inputs": [
        {
          "indexed": true,
          "internalType": "address",
          "name": "_hash",
          "type": "address"
        }
      ],
      "name": "studentRegistered",
      "type": "event"
    },
    {
      "stateMutability": "payable",
      "type": "fallback"
    },
    {
      "inputs": [],
      "name": "Owner",
      "outputs": [
        {
          "internalType": "address",
          "name": "",
          "type": "address"
        }
      ],
      "stateMutability": "view",
      "type": "function"
    },
    {
      "inputs": [
        {
          "internalType": "address[]",
          "name": "_adminAddresses",
          "type": "address[]"
        }
      ],
      "name": "addAdmin",
      "outputs": [],
      "stateMutability": "nonpayable",
      "type": "function"
    },
    {
      "inputs": [
        {
          "internalType": "uint256",
          "name": "",
          "type": "uint256"
        }
      ],
      "name": "admins",
      "outputs": [
        {
          "internalType": "address",
          "name": "",
          "type": "address"
        }
      ],
      "stateMutability": "view",
      "type": "function"
    },
    {
      "inputs": [
        {
          "internalType": "uint256",
          "name": "_moduleIndex",
          "type": "uint256"
        }
      ],
      "name": "claimCertificate",
      "outputs": [],
      "stateMutability": "nonpayable",
      "type": "function"
    },
    {
      "inputs": [
        {
          "internalType": "uint256",
          "name": "",
          "type": "uint256"
        }
      ],
      "name": "courseModules",
      "outputs": [
        {
          "internalType": "contract CourseModule",
          "name": "",
          "type": "address"
        }
      ],
      "stateMutability": "view",
      "type": "function"
    },
    {
      "inputs": [
        {
          "internalType": "string",
          "name": "_courseName",
          "type": "string"
        },
        {
          "internalType": "string",
          "name": "_courseSymbol",
          "type": "string"
        },
        {
          "internalType": "uint256",
          "name": "_courseFee",
          "type": "uint256"
        },
        {
          "internalType": "string",
          "name": "_certificateURI",
          "type": "string"
        },
        {
          "internalType": "string",
          "name": "_courseDuration",
          "type": "string"
        }
      ],
      "name": "createNewModule",
      "outputs": [],
      "stateMutability": "payable",
      "type": "function"
    },
    {
      "inputs": [
        {
          "internalType": "string",
          "name": "_firstName",
          "type": "string"
        },
        {
          "internalType": "string",
          "name": "_lastName",
          "type": "string"
        },
        {
          "internalType": "string",
          "name": "_gender",
          "type": "string"
        },
        {
          "internalType": "string",
          "name": "_emailAddress",
          "type": "string"
        }
      ],
      "name": "enrollStudent",
      "outputs": [],
      "stateMutability": "nonpayable",
      "type": "function"
    },
    {
      "inputs": [
        {
          "internalType": "address",
          "name": "_instructorAddress",
          "type": "address"
        }
      ],
      "name": "fireInstructor",
      "outputs": [],
      "stateMutability": "nonpayable",
      "type": "function"
    },
    {
      "inputs": [],
      "name": "instructorCount",
      "outputs": [
        {
          "internalType": "uint256",
          "name": "",
          "type": "uint256"
        }
      ],
      "stateMutability": "view",
      "type": "function"
    },
    {
      "inputs": [],
      "name": "instructorRegistrationFee",
      "outputs": [
        {
          "internalType": "uint256",
          "name": "",
          "type": "uint256"
        }
      ],
      "stateMutability": "view",
      "type": "function"
    },
    {
      "inputs": [
        {
          "internalType": "uint256",
          "name": "",
          "type": "uint256"
        }
      ],
      "name": "instructors",
      "outputs": [
        {
          "internalType": "string",
          "name": "Firstname",
          "type": "string"
        },
        {
          "internalType": "string",
          "name": "Lastname",
          "type": "string"
        },
        {
          "internalType": "string",
          "name": "Gender",
          "type": "string"
        },
        {
          "internalType": "string",
          "name": "emailAddress",
          "type": "string"
        },
        {
          "internalType": "uint256",
          "name": "experience",
          "type": "uint256"
        },
        {
          "internalType": "address",
          "name": "hash",
          "type": "address"
        },
        {
          "internalType": "enum Registration.VerificationState",
          "name": "verificationState",
          "type": "uint8"
        }
      ],
      "stateMutability": "view",
      "type": "function"
    },
    {
      "inputs": [
        {
          "internalType": "address",
          "name": "",
          "type": "address"
        }
      ],
      "name": "isInstructor",
      "outputs": [
        {
          "internalType": "bool",
          "name": "",
          "type": "bool"
        }
      ],
      "stateMutability": "view",
      "type": "function"
    },
    {
      "inputs": [
        {
          "internalType": "address",
          "name": "",
          "type": "address"
        }
      ],
      "name": "isInstructorVerified",
      "outputs": [
        {
          "internalType": "bool",
          "name": "",
          "type": "bool"
        }
      ],
      "stateMutability": "view",
      "type": "function"
    },
    {
      "inputs": [
        {
          "internalType": "address",
          "name": "",
          "type": "address"
        }
      ],
      "name": "isStudent",
      "outputs": [
        {
          "internalType": "bool",
          "name": "",
          "type": "bool"
        }
      ],
      "stateMutability": "view",
      "type": "function"
    },
    {
      "inputs": [
        {
          "internalType": "address",
          "name": "to",
          "type": "address"
        },
        {
          "internalType": "uint256",
          "name": "_moduleIndex",
          "type": "uint256"
        }
      ],
      "name": "issueCertificate",
      "outputs": [],
      "stateMutability": "nonpayable",
      "type": "function"
    },
    {
      "inputs": [],
      "name": "moduleCreationFee",
      "outputs": [
        {
          "internalType": "uint256",
          "name": "",
          "type": "uint256"
        }
      ],
      "stateMutability": "view",
      "type": "function"
    },
    {
      "inputs": [],
      "name": "numberOfModulesCreated",
      "outputs": [
        {
          "internalType": "uint256",
          "name": "",
          "type": "uint256"
        }
      ],
      "stateMutability": "view",
      "type": "function"
    },
    {
      "inputs": [],
      "name": "numberOfModulesPurchased",
      "outputs": [
        {
          "internalType": "uint256",
          "name": "",
          "type": "uint256"
        }
      ],
      "stateMutability": "view",
      "type": "function"
    },
    {
      "inputs": [
        {
          "internalType": "uint256",
          "name": "_moduleIndex",
          "type": "uint256"
        }
      ],
      "name": "purchaseModule",
      "outputs": [],
      "stateMutability": "nonpayable",
      "type": "function"
    },
    {
      "inputs": [
        {
          "internalType": "string",
          "name": "_firstName",
          "type": "string"
        },
        {
          "internalType": "string",
          "name": "_lastName",
          "type": "string"
        },
        {
          "internalType": "string",
          "name": "_gender",
          "type": "string"
        },
        {
          "internalType": "string",
          "name": "_emailAddress",
          "type": "string"
        },
        {
          "internalType": "uint256",
          "name": "_experience",
          "type": "uint256"
        }
      ],
      "name": "registerInstructor",
      "outputs": [],
      "stateMutability": "payable",
      "type": "function"
    },
    {
      "inputs": [],
      "name": "studentCount",
      "outputs": [
        {
          "internalType": "uint256",
          "name": "",
          "type": "uint256"
        }
      ],
      "stateMutability": "view",
      "type": "function"
    },
    {
      "inputs": [
        {
          "internalType": "uint256",
          "name": "",
          "type": "uint256"
        }
      ],
      "name": "students",
      "outputs": [
        {
          "internalType": "string",
          "name": "firstName",
          "type": "string"
        },
        {
          "internalType": "string",
          "name": "lastName",
          "type": "string"
        },
        {
          "internalType": "string",
          "name": "Gender",
          "type": "string"
        },
        {
          "internalType": "string",
          "name": "emailAddress",
          "type": "string"
        },
        {
          "internalType": "uint256",
          "name": "id",
          "type": "uint256"
        },
        {
          "internalType": "address",
          "name": "hash",
          "type": "address"
        }
      ],
      "stateMutability": "view",
      "type": "function"
    },
    {
      "inputs": [],
      "name": "verifiedInstructorCount",
      "outputs": [
        {
          "internalType": "uint256",
          "name": "",
          "type": "uint256"
        }
      ],
      "stateMutability": "view",
      "type": "function"
    },
    {
      "inputs": [
        {
          "internalType": "uint256",
          "name": "",
          "type": "uint256"
        }
      ],
      "name": "verifiedInstructors",
      "outputs": [
        {
          "internalType": "address",
          "name": "",
          "type": "address"
        }
      ],
      "stateMutability": "view",
      "type": "function"
    },
    {
      "inputs": [
        {
          "internalType": "address[]",
          "name": "_instructorAddress",
          "type": "address[]"
        }
      ],
      "name": "verifyInstructors",
      "outputs": [],
      "stateMutability": "nonpayable",
      "type": "function"
    },
    {
      "inputs": [],
      "name": "withdraw",
      "outputs": [],
      "stateMutability": "nonpayable",
      "type": "function"
    },
    {
      "stateMutability": "payable",
      "type": "receive"
    }
  ],
  "bytecode": "0x60e0604052600060a05266470de4df82000060c05234801561002057600080fd5b503360805260805160a05160c051615fd1610077600039600081816102f10152610c62015260008181610391015261112b0152600081816104fa01528181610a6e01528181610abb0152610b840152615fd16000f3fe608060405260043610620001935760003560e01c806380358ead11620000d9578063b4a61678116200008f578063d862ff951162000069578063d862ff951462000541578063d9a26b3b1462000566578063e581f9ee146200058b578063e79fa05e14620005a357005b8063b4a6167814620004c1578063b4a99a4e14620004e6578063d45cf55b146200051c57005b806380358ead14620003d857806382f7d39214620003ef5780638d53255414620004235780638dae48f9146200045d578063980a62741462000475578063a3afcea2146200048d57005b80633d0950a811620001495780634dfcab7111620001235780634dfcab71146200031357806364af64a91462000338578063682e4281146200037d5780636c4ecd8414620003b357005b80633d0950a814620002a1578063450434c414620002c65780634b9befad14620002dd57005b80630472e3ca146200019d57806306ead22e14620001c8578063085964b7146200020157806314bfd6d0146200023f5780632823af7814620002645780633ccfd60b146200028957005b366200019b57005b005b348015620001aa57600080fd5b50620001b560035481565b6040519081526020015b60405180910390f35b348015620001d557600080fd5b50620001ed620001e73660046200215b565b620005bb565b604051620001bf96959493929190620021bd565b3480156200020e57600080fd5b5062000226620002203660046200215b565b62000852565b6040516001600160a01b039091168152602001620001bf565b3480156200024c57600080fd5b50620002266200025e3660046200215b565b6200087d565b3480156200027157600080fd5b506200019b620002833660046200229d565b6200088e565b3480156200029657600080fd5b506200019b62000a6c565b348015620002ae57600080fd5b506200019b620002c03660046200229d565b62000b82565b6200019b620002d7366004620023ce565b62000c46565b348015620002ea57600080fd5b50620001b57f000000000000000000000000000000000000000000000000000000000000000081565b3480156200032057600080fd5b506200019b620003323660046200215b565b62000f4b565b3480156200034557600080fd5b506200036c6200035736600462002492565b60096020526000908152604090205460ff1681565b6040519015158152602001620001bf565b3480156200038a57600080fd5b50620001b57f000000000000000000000000000000000000000000000000000000000000000081565b348015620003c057600080fd5b506200019b620003d2366004620024b7565b62001085565b6200019b620003e9366004620024e4565b62001129565b348015620003fc57600080fd5b506200036c6200040e36600462002492565b60076020526000908152604090205460ff1681565b3480156200043057600080fd5b5062000448620004423660046200215b565b62001422565b604051620001bf9796959493929190620025bc565b3480156200046a57600080fd5b50620001b560025481565b3480156200048257600080fd5b50620001b5600d5481565b3480156200049a57600080fd5b506200036c620004ac36600462002492565b60086020526000908152604090205460ff1681565b348015620004ce57600080fd5b506200019b620004e03660046200265b565b620016c4565b348015620004f357600080fd5b50620002267f000000000000000000000000000000000000000000000000000000000000000081565b3480156200052957600080fd5b50620002266200053b3660046200215b565b62001866565b3480156200054e57600080fd5b506200019b6200056036600462002492565b62001877565b3480156200057357600080fd5b506200019b620005853660046200215b565b62001b5d565b3480156200059857600080fd5b50620001b560015481565b348015620005b057600080fd5b50620001b5600c5481565b60048181548110620005cc57600080fd5b9060005260206000209060060201600091509050806000018054620005f19062002715565b80601f01602080910402602001604051908101604052809291908181526020018280546200061f9062002715565b8015620006705780601f10620006445761010080835404028352916020019162000670565b820191906000526020600020905b8154815290600101906020018083116200065257829003601f168201915b505050505090806001018054620006879062002715565b80601f0160208091040260200160405190810160405280929190818152602001828054620006b59062002715565b8015620007065780601f10620006da5761010080835404028352916020019162000706565b820191906000526020600020905b815481529060010190602001808311620006e857829003601f168201915b5050505050908060020180546200071d9062002715565b80601f01602080910402602001604051908101604052809291908181526020018280546200074b9062002715565b80156200079c5780601f1062000770576101008083540402835291602001916200079c565b820191906000526020600020905b8154815290600101906020018083116200077e57829003601f168201915b505050505090806003018054620007b39062002715565b80601f0160208091040260200160405190810160405280929190818152602001828054620007e19062002715565b8015620008325780601f10620008065761010080835404028352916020019162000832565b820191906000526020600020905b8154815290600101906020018083116200081457829003601f168201915b5050505060048301546005909301549192916001600160a01b0316905086565b600b81815481106200086357600080fd5b6000918252602090912001546001600160a01b0316905081565b600081815481106200086357600080fd5b6000805480602002602001604051908101604052809291908181526020018280548015620008e657602002820191906000526020600020905b81546001600160a01b03168152600190910190602001808311620008c7575b50505050506000805b82518110156200094e578281815181106200090e576200090e62002751565b60200260200101516001600160a01b0316336001600160a01b0316036200093957600191506200094e565b8062000945816200277d565b915050620008ef565b506001811515146200097d5760405162461bcd60e51b8152600401620009749062002799565b60405180910390fd5b60005b835181101562000a66576000620009b3858381518110620009a557620009a562002751565b602002602001015162001c08565b600160c0820181905260a0820180516006805493840181556000527ff652222313e28459528d920b65115c16c04f3efc82aaedc97be59f3f377c0d3f90920180546001600160a01b0319166001600160a01b039384161790555160208301516040519394509116917f3208c53e69106ad2cdd490d2233799337c41fa0601c89b87acf0a6ed3bc7f0949162000a4891620027be565b60405180910390a2508062000a5d816200277d565b91505062000980565b50505050565b7f0000000000000000000000000000000000000000000000000000000000000000336001600160a01b0382161462000ab75760405163251c9d6360e01b815260040160405180910390fd5b60007f00000000000000000000000000000000000000000000000000000000000000006001600160a01b03164760405160006040518083038185875af1925050503d806000811462000b26576040519150601f19603f3d011682016040523d82523d6000602084013e62000b2b565b606091505b505090508062000b7e5760405162461bcd60e51b815260206004820152601760248201527f54686973205472616e73616374696f6e204661696c6564000000000000000000604482015260640162000974565b5050565b7f0000000000000000000000000000000000000000000000000000000000000000336001600160a01b0382161462000bcd5760405163251c9d6360e01b815260040160405180910390fd5b60005b825181101562000c4157600083828151811062000bf15762000bf162002751565b60209081029190910181015182546001810184556000938452919092200180546001600160a01b0319166001600160a01b039092169190911790558062000c38816200277d565b91505062000bd0565b505050565b336000908152600960205260409020805460ff191660011790557f000000000000000000000000000000000000000000000000000000000000000080341462000cc75760405162461bcd60e51b8152602060048201526012602482015271496e73756666696369656e742046756e647360701b604482015260640162000974565b858583866000845111801562000cde575060008251115b801562000cec575060008351115b801562000cf95750600081115b62000d3d5760405162461bcd60e51b815260206004820152601360248201527263616e2774206265206c65667420626c616e6b60681b604482015260640162000974565b600087511162000d905760405162461bcd60e51b815260206004820152601f60248201527f43657274696669636174696f6e5552492063616e277420626520626c616e6b00604482015260640162000974565b60008760405162000da19062002097565b62000dad9190620027be565b604051809103906000f08015801562000dca573d6000803e3d6000fd5b50600b80546001810182556000919091527f0175b7a638427703f0dbe7bb9bbf987a2551717b34e79f33b5b1008d1fa01db90180546001600160a01b0319166001600160a01b038316908117909155604051631abfb9f560e31b81529192509063d5fdcfa89062000e46908e908e908c908f90600401620027d3565b600060405180830381600087803b15801562000e6157600080fd5b505af115801562000e76573d6000803e3d6000fd5b50505050806001600160a01b031663b2db85f76040518163ffffffff1660e01b8152600401600060405180830381600087803b15801562000eb657600080fd5b505af115801562000ecb573d6000803e3d6000fd5b505050506001600160a01b0381166000908152600a602052604081208a9055600c8054908262000efb836200277d565b90915550604080518c81526020810183905291925033917ffa1ac61934e3e39160711b1de6eb1355c83746741323a9c62c4f15e2419d534b910160405180910390a2505050505050505050505050565b6000600b828154811062000f635762000f6362002751565b60009182526020822001546040805163609ebec560e01b815290516001600160a01b039092169350839263609ebec59260048084019382900301818387803b15801562000faf57600080fd5b505af115801562000fc4573d6000803e3d6000fd5b5050600d805492509050600062000fdb836200277d565b9190505550336001600160a01b03167f367f33c842fab786bbfd0d841ddb562e35f908dc32e1e3b3d916ab79204d22a3826001600160a01b0316636e6b79846040518163ffffffff1660e01b8152600401602060405180830381865afa1580156200104a573d6000803e3d6000fd5b505050506040513d601f19601f8201168201806040525081019062001070919062002824565b60405190815260200160405180910390a25050565b336000908152600960205260409020805460ff191660011790556000600b8281548110620010b757620010b762002751565b60009182526020909120015460405163421928e960e01b81526001600160a01b0385811660048301529091169150819063421928e990602401600060405180830381600087803b1580156200110b57600080fd5b505af115801562001120573d6000803e3d6000fd5b50505050505050565b7f0000000000000000000000000000000000000000000000000000000000000000803414620011905760405162461bcd60e51b8152602060048201526012602482015271496e73756666696369656e742046756e647360701b604482015260640162000974565b858585858560008551118015620011a8575060008451115b8015620011b6575060008351115b8015620011c4575060008351115b8015620011d2575060008251115b8015620011df5750600081115b6200121e5760405162461bcd60e51b815260206004820152600e60248201526d63616e277420626520656d70747960901b604482015260640162000974565b3360009081526008602052604090205460ff1615620012785760405162461bcd60e51b815260206004820152601560248201527430b63932b0b23c9030b71034b739ba393ab1ba37b960591b604482015260640162000974565b60006040518060e001604052808d81526020018c81526020018b81526020018a8152602001898152602001336001600160a01b0316815260200160006001811115620012c857620012c8620025a6565b9052600580546001810182556000919091528151919250829160069091027f036b6384b5eca791c62761152d0c79bb0604c104a5fb6f4eb0703f3154bb3db00190819062001317908262002890565b50602082015160018201906200132e908262002890565b506040820151600282019062001345908262002890565b50606082015160038201906200135c908262002890565b506080820151600482015560a08201516005820180546001600160a01b039092166001600160a01b031983168117825560c0850151926001600160a81b03191617600160a01b836001811115620013b757620013b7620025a6565b0217905550506003805491506000620013d0836200277d565b919050555080608001518160a001516001600160a01b03167f5f15cd5ddbeb6f221b9ff9af80a646b9d52716055eb2d3c1c477759364c208e860405160405180910390a3505050505050505050505050565b600581815481106200143357600080fd5b9060005260206000209060060201600091509050806000018054620014589062002715565b80601f0160208091040260200160405190810160405280929190818152602001828054620014869062002715565b8015620014d75780601f10620014ab57610100808354040283529160200191620014d7565b820191906000526020600020905b815481529060010190602001808311620014b957829003601f168201915b505050505090806001018054620014ee9062002715565b80601f01602080910402602001604051908101604052809291908181526020018280546200151c9062002715565b80156200156d5780601f1062001541576101008083540402835291602001916200156d565b820191906000526020600020905b8154815290600101906020018083116200154f57829003601f168201915b505050505090806002018054620015849062002715565b80601f0160208091040260200160405190810160405280929190818152602001828054620015b29062002715565b8015620016035780601f10620015d75761010080835404028352916020019162001603565b820191906000526020600020905b815481529060010190602001808311620015e557829003601f168201915b5050505050908060030180546200161a9062002715565b80601f0160208091040260200160405190810160405280929190818152602001828054620016489062002715565b8015620016995780601f106200166d5761010080835404028352916020019162001699565b820191906000526020600020905b8154815290600101906020018083116200167b57829003601f168201915b5050505060048301546005909301549192916001600160a01b0381169150600160a01b900460ff1687565b3360009081526007602052604090205460ff1615620017265760405162461bcd60e51b815260206004820152601f60248201527f616c7265616479207265676973746572656420617320612073747564656e7400604482015260640162000974565b60006040518060c001604052808681526020018581526020018481526020018381526020016001600081548092919062001760906200277d565b90915550815233602090910152600480546001810182556000919091528151919250829160069091027f8a35acfbc15ff81a39ae7d344fd709f28e8600b4aa8c65c6b64bfe7fe36bd19b01908190620017ba908262002890565b5060208201516001820190620017d1908262002890565b5060408201516002820190620017e8908262002890565b5060608201516003820190620017ff908262002890565b506080820151600482015560a091820151600590910180546001600160a01b0319166001600160a01b03928316179055908201516040519116907f0e2041cc651cc18ec0a779dc9785f573eb366eaacf6d772cd1d06d97b7e17e2a90600090a25050505050565b600681815481106200086357600080fd5b6000805480602002602001604051908101604052809291908181526020018280548015620018cf57602002820191906000526020600020905b81546001600160a01b03168152600190910190602001808311620018b0575b50505050506000805b82518110156200193757828181518110620018f757620018f762002751565b60200260200101516001600160a01b0316336001600160a01b03160362001922576001915062001937565b806200192e816200277d565b915050620018d8565b506001811515146200195d5760405162461bcd60e51b8152600401620009749062002799565b60005b60055481101562000a6657836001600160a01b0316600582815481106200198b576200198b62002751565b60009182526020909120600560069092020101546001600160a01b03160362001b485760058054620019c0906001906200295d565b81548110620019d357620019d362002751565b906000526020600020906006020160058281548110620019f757620019f762002751565b600091825260209091206006909102018062001a14838262002979565b5060018181019062001a299084018262002979565b5060028181019062001a3e9084018262002979565b5060038181019062001a539084018262002979565b50600482810154908201556005808301805491830180546001600160a01b031981166001600160a01b039094169384178255915460ff600160a01b91829004169391926001600160a81b0319169091179083600181111562001ab95762001ab9620025a6565b0217905550905050600580548062001ad55762001ad562002a63565b6000828152602081206000199092019160068302019062001af78282620020a5565b62001b07600183016000620020a5565b62001b17600283016000620020a5565b62001b27600383016000620020a5565b506000600482015560050180546001600160a81b0319169055905562000a66565b8062001b54816200277d565b91505062001960565b6000600b828154811062001b755762001b7562002751565b6000918252602082200154604080516217962f60e51b815290516001600160a01b03909216935083926302f2c5e09260048084019382900301818387803b15801562001bc057600080fd5b505af115801562001bd5573d6000803e3d6000fd5b50506040513392507f90ba78ed6bd885840baff34286c0ec643c3723dd3eeed0e350e8993105af77909150600090a25050565b62001c12620020e7565b600080548060200260200160405190810160405280929190818152602001828054801562001c6a57602002820191906000526020600020905b81546001600160a01b0316815260019091019060200180831162001c4b575b50505050506000805b825181101562001cd25782818151811062001c925762001c9262002751565b60200260200101516001600160a01b0316336001600160a01b03160362001cbd576001915062001cd2565b8062001cc9816200277d565b91505062001c73565b5060018115151462001cf85760405162461bcd60e51b8152600401620009749062002799565b60005b60055481101562002052576005818154811062001d1c5762001d1c62002751565b60009182526020909120600560069092020101546001600160a01b03908116908616036200203d576005818154811062001d5a5762001d5a62002751565b90600052602060002090600602016040518060e001604052908160008201805462001d859062002715565b80601f016020809104026020016040519081016040528092919081815260200182805462001db39062002715565b801562001e045780601f1062001dd85761010080835404028352916020019162001e04565b820191906000526020600020905b81548152906001019060200180831162001de657829003601f168201915b5050505050815260200160018201805462001e1f9062002715565b80601f016020809104026020016040519081016040528092919081815260200182805462001e4d9062002715565b801562001e9e5780601f1062001e725761010080835404028352916020019162001e9e565b820191906000526020600020905b81548152906001019060200180831162001e8057829003601f168201915b5050505050815260200160028201805462001eb99062002715565b80601f016020809104026020016040519081016040528092919081815260200182805462001ee79062002715565b801562001f385780601f1062001f0c5761010080835404028352916020019162001f38565b820191906000526020600020905b81548152906001019060200180831162001f1a57829003601f168201915b5050505050815260200160038201805462001f539062002715565b80601f016020809104026020016040519081016040528092919081815260200182805462001f819062002715565b801562001fd25780601f1062001fa65761010080835404028352916020019162001fd2565b820191906000526020600020905b81548152906001019060200180831162001fb457829003601f168201915b50505091835250506004820154602082015260058201546001600160a01b0381166040830152606090910190600160a01b900460ff1660018111156200201c576200201c620025a6565b6001811115620020305762002030620025a6565b8152505093505062002090565b8062002049816200277d565b91505062001cfb565b5060405162461bcd60e51b81526020600482015260116024820152702737ba1030b71024b739ba393ab1ba37b960791b604482015260640162000974565b5050919050565b6135228062002a7a83390190565b508054620020b39062002715565b6000825580601f10620020c4575050565b601f016020900490600052602060002090810190620020e4919062002140565b50565b6040518060e00160405280606081526020016060815260200160608152602001606081526020016000815260200160006001600160a01b03168152602001600060018111156200213b576200213b620025a6565b905290565b5b8082111562002157576000815560010162002141565b5090565b6000602082840312156200216e57600080fd5b5035919050565b6000815180845260005b818110156200219d576020818501810151868301820152016200217f565b506000602082860101526020601f19601f83011685010191505092915050565b60c081526000620021d260c083018962002175565b8281036020840152620021e6818962002175565b90508281036040840152620021fc818862002175565b9050828103606084015262002212818762002175565b608084019590955250506001600160a01b039190911660a090910152949350505050565b634e487b7160e01b600052604160045260246000fd5b604051601f8201601f1916810167ffffffffffffffff8111828210171562002278576200227862002236565b604052919050565b80356001600160a01b03811681146200229857600080fd5b919050565b60006020808385031215620022b157600080fd5b823567ffffffffffffffff80821115620022ca57600080fd5b818501915085601f830112620022df57600080fd5b813581811115620022f457620022f462002236565b8060051b9150620023078483016200224c565b81815291830184019184810190888411156200232257600080fd5b938501935b838510156200234b576200233b8562002280565b8252938501939085019062002327565b98975050505050505050565b600082601f8301126200236957600080fd5b813567ffffffffffffffff81111562002386576200238662002236565b6200239b601f8201601f19166020016200224c565b818152846020838601011115620023b157600080fd5b816020850160208301376000918101602001919091529392505050565b600080600080600060a08688031215620023e757600080fd5b853567ffffffffffffffff808211156200240057600080fd5b6200240e89838a0162002357565b965060208801359150808211156200242557600080fd5b6200243389838a0162002357565b95506040880135945060608801359150808211156200245157600080fd5b6200245f89838a0162002357565b935060808801359150808211156200247657600080fd5b50620024858882890162002357565b9150509295509295909350565b600060208284031215620024a557600080fd5b620024b08262002280565b9392505050565b60008060408385031215620024cb57600080fd5b620024d68362002280565b946020939093013593505050565b600080600080600060a08688031215620024fd57600080fd5b853567ffffffffffffffff808211156200251657600080fd5b6200252489838a0162002357565b965060208801359150808211156200253b57600080fd5b6200254989838a0162002357565b955060408801359150808211156200256057600080fd5b6200256e89838a0162002357565b945060608801359150808211156200258557600080fd5b50620025948882890162002357565b95989497509295608001359392505050565b634e487b7160e01b600052602160045260246000fd5b60e081526000620025d160e083018a62002175565b8281036020840152620025e5818a62002175565b90508281036040840152620025fb818962002175565b9050828103606084015262002611818862002175565b608084018790526001600160a01b03861660a0850152915050600283106200264957634e487b7160e01b600052602160045260246000fd5b8260c083015298975050505050505050565b600080600080608085870312156200267257600080fd5b843567ffffffffffffffff808211156200268b57600080fd5b620026998883890162002357565b95506020870135915080821115620026b057600080fd5b620026be8883890162002357565b94506040870135915080821115620026d557600080fd5b620026e38883890162002357565b93506060870135915080821115620026fa57600080fd5b50620027098782880162002357565b91505092959194509250565b600181811c908216806200272a57607f821691505b6020821081036200274b57634e487b7160e01b600052602260045260246000fd5b50919050565b634e487b7160e01b600052603260045260246000fd5b634e487b7160e01b600052601160045260246000fd5b60006001820162002792576200279262002767565b5060010190565b6020808252600b908201526a4f6e6c792041646d696e7360a81b604082015260600190565b602081526000620024b0602083018462002175565b608081526000620027e8608083018762002175565b8281036020840152620027fc818762002175565b9050828103604084015262002812818662002175565b91505082606083015295945050505050565b6000602082840312156200283757600080fd5b5051919050565b601f82111562000c4157600081815260208120601f850160051c81016020861015620028675750805b601f850160051c820191505b81811015620028885782815560010162002873565b505050505050565b815167ffffffffffffffff811115620028ad57620028ad62002236565b620028c581620028be845462002715565b846200283e565b602080601f831160018114620028fd5760008415620028e45750858301515b600019600386901b1c1916600185901b17855562002888565b600085815260208120601f198616915b828110156200292e578886015182559484019460019091019084016200290d565b50858210156200294d5787850151600019600388901b60f8161c191681555b5050505050600190811b01905550565b8181038181111562002973576200297362002767565b92915050565b81810362002985575050565b62002991825462002715565b67ffffffffffffffff811115620029ac57620029ac62002236565b620029bd81620028be845462002715565b6000601f821160018114620029f45760008315620029db5750848201545b600019600385901b1c1916600184901b17845562002a5c565b600085815260209020601f19841690600086815260209020845b8381101562002a30578286015482556001958601959091019060200162002a0e565b508583101562002a4f5781850154600019600388901b60f8161c191681555b50505060018360011b0184555b5050505050565b634e487b7160e01b600052603160045260246000fdfe60806040523480156200001157600080fd5b506040516200352238038062003522833981016040819052620000349162000072565b600080546001600160a01b031916331790556003620000548282620001d6565b5050620002a2565b634e487b7160e01b600052604160045260246000fd5b600060208083850312156200008657600080fd5b82516001600160401b03808211156200009e57600080fd5b818501915085601f830112620000b357600080fd5b815181811115620000c857620000c86200005c565b604051601f8201601f19908116603f01168101908382118183101715620000f357620000f36200005c565b8160405282815288868487010111156200010c57600080fd5b600093505b8284101562000130578484018601518185018701529285019262000111565b600086848301015280965050505050505092915050565b600181811c908216806200015c57607f821691505b6020821081036200017d57634e487b7160e01b600052602260045260246000fd5b50919050565b601f821115620001d157600081815260208120601f850160051c81016020861015620001ac5750805b601f850160051c820191505b81811015620001cd57828155600101620001b8565b5050505b505050565b81516001600160401b03811115620001f257620001f26200005c565b6200020a8162000203845462000147565b8462000183565b602080601f831160018114620002425760008415620002295750858301515b600019600386901b1c1916600185901b178555620001cd565b600085815260208120601f198616915b82811015620002735788860151825594840194600190910190840162000252565b5085821015620002925787850151600019600388901b60f8161c191681555b5050505050600190811b01905550565b61327080620002b26000396000f3fe608060405260043610620001075760003560e01c8063609ebec51162000095578063c4804ef01162000060578063c4804ef014620002ac578063d5fdcfa814620002f1578063d986f2ca1462000316578063dc969c09146200034a57600080fd5b8063609ebec514620002505780636a8ea6e8146200025a5780636e6b7984146200027c578063b2db85f7146200029457600080fd5b8063421928e911620000d6578063421928e914620001a7578063430f75da14620001cc57806359221a681462000204578063593963dc146200022957600080fd5b806302f2c5e0146200010c5780631236939f14620001265780632b85ed9c14620001685780633ccfd60b146200018f575b600080fd5b3480156200011957600080fd5b50620001246200036f565b005b3480156200013357600080fd5b506200014b6200014536600462000ea9565b6200048f565b6040516001600160a01b0390911681526020015b60405180910390f35b3480156200017557600080fd5b506200018060065481565b6040519081526020016200015f565b3480156200019c57600080fd5b5062000124620004ba565b348015620001b457600080fd5b5062000124620001c636600462000ec3565b62000586565b348015620001d957600080fd5b50620001f1620001eb36600462000ea9565b620006b0565b6040516200015f95949392919062000f3d565b3480156200021157600080fd5b506200014b6200022336600462000ea9565b620008b1565b3480156200023657600080fd5b5062000241620008c2565b6040516200015f919062000f9f565b6200012462000958565b3480156200026757600080fd5b506000546200014b906001600160a01b031681565b3480156200028957600080fd5b506200018060055481565b348015620002a157600080fd5b506200012462000a03565b348015620002b957600080fd5b50620002e0620002cb36600462000ec3565b60086020526000908152604090205460ff1681565b60405190151581526020016200015f565b348015620002fe57600080fd5b5062000124620003103660046200105f565b62000bd3565b3480156200032357600080fd5b50620002e06200033536600462000ec3565b60096020526000908152604090205460ff1681565b3480156200035757600080fd5b50620001f16200036936600462000ec3565b62000e7e565b3360008181526008602052604090205460ff16620003aa5760405162461bcd60e51b8152600401620003a190620010f9565b60405180910390fd5b60006002600081548110620003c357620003c36200113f565b9060005260206000200160009054906101000a90046001600160a01b03169050806001600160a01b031663723f53526040518163ffffffff1660e01b81526004016020604051808303816000875af115801562000424573d6000803e3d6000fd5b505050506040513d601f19601f820116820180604052508101906200044a919062001155565b5033600081815260096020526040808220805460ff19166001179055517f7fea4aa4184f18390a26e6b9fb5dc295f3cad41ad8f65daef086a3c74777a3b39190a25050565b60028181548110620004a057600080fd5b6000918252602090912001546001600160a01b0316905081565b6000546001600160a01b0316338114620004e75760405163251c9d6360e01b815260040160405180910390fd5b600080546040516001600160a01b039091169047908381818185875af1925050503d806000811462000536576040519150601f19603f3d011682016040523d82523d6000602084013e6200053b565b606091505b5050905080620005825760405162461bcd60e51b815260206004820152601160248201527015da5d1a191c985dd85b0811985a5b1959607a1b6044820152606401620003a1565b5050565b6000546001600160a01b0316338114620005b35760405163251c9d6360e01b815260040160405180910390fd5b6001600160a01b038216600090815260086020526040902054829060ff16620005f05760405162461bcd60e51b8152600401620003a190620010f9565b600060026000815481106200060957620006096200113f565b600091825260209091200154604051636f24726160e01b81526001600160a01b03868116600483015290911691508190636f24726190602401600060405180830381600087803b1580156200065d57600080fd5b505af115801562000672573d6000803e3d6000fd5b50506040516001600160a01b03871692507f807e367e1e9cf2116fd328021489352a16bb98bf0c0d0a4fe78c59c29b5ee6769150600090a250505050565b60018181548110620006c157600080fd5b9060005260206000209060050201600091509050806000018054620006e6906200116f565b80601f016020809104026020016040519081016040528092919081815260200182805462000714906200116f565b8015620007655780601f10620007395761010080835404028352916020019162000765565b820191906000526020600020905b8154815290600101906020018083116200074757829003601f168201915b5050505050908060010180546200077c906200116f565b80601f0160208091040260200160405190810160405280929190818152602001828054620007aa906200116f565b8015620007fb5780601f10620007cf57610100808354040283529160200191620007fb565b820191906000526020600020905b815481529060010190602001808311620007dd57829003601f168201915b50505050509080600201805462000812906200116f565b80601f016020809104026020016040519081016040528092919081815260200182805462000840906200116f565b8015620008915780601f10620008655761010080835404028352916020019162000891565b820191906000526020600020905b8154815290600101906020018083116200087357829003601f168201915b5050505060038301546004909301549192916001600160a01b0316905085565b60048181548110620004a057600080fd5b60038054620008d1906200116f565b80601f0160208091040260200160405190810160405280929190818152602001828054620008ff906200116f565b8015620009505780601f10620009245761010080835404028352916020019162000950565b820191906000526020600020905b8154815290600101906020018083116200093257829003601f168201915b505050505081565b600554803414620009a15760405162461bcd60e51b8152602060048201526012602482015271496e73756666696369656e742046756e647360701b6044820152606401620003a1565b336000908152600860205260409020805460ff1916905560405162461bcd60e51b8152600401620003a1906020808252601e908201527f596f752068617665207075726368617365642074686973206d6f64756c650000604082015260600190565b6000546001600160a01b031633811462000a305760405163251c9d6360e01b815260040160405180910390fd5b6002546001101562000a9d5760405162461bcd60e51b815260206004820152602f60248201527f63616e277420637265617465206d6f7265207468616e2031206365727469666960448201526e6361746520706572206d6f64756c6560881b6064820152608401620003a1565b6000600160008154811062000ab65762000ab66200113f565b9060005260206000209060050201600001600160008154811062000ade5762000ade6200113f565b9060005260206000209060050201600101600360405162000aff9062000e9b565b62000b0d9392919062001230565b604051809103906000f08015801562000b2a573d6000803e3d6000fd5b506002805460018101825560008281527f405787fa12a823e0f2b7631cc41b3ba8828b3321ca811111fa75cd3aa3bb5ace90910180546001600160a01b0319166001600160a01b038516179055815492935091829062000b8e5762000b8e6200113f565b60009182526020822001546040516001600160a01b03909116925082917f1e823223254f15ab6d83b3b9a0fe5ed8c603c5e549115baf0350ea5e6d4b66f191a2505050565b6000546001600160a01b031633811462000c005760405163251c9d6360e01b815260040160405180910390fd5b848385846000845111801562000c17575060008251115b801562000c25575060008351115b801562000c325750600081115b62000c765760405162461bcd60e51b815260206004820152601360248201527263616e2774206265206c65667420626c616e6b60681b6044820152606401620003a1565b6040805160a0810182528a81526020810189905290810189905260608101879052336080820152600587905560018054111562000d095760405162461bcd60e51b815260206004820152602a60248201527f43616e277420637265617465206d6f7265207468616e20636f757273652070656044820152691c8818dbdb9d1c9858dd60b21b6064820152608401620003a1565b600180548082018255600091909152815182916005027fb10e2d527612073b26eecdfd717e6a320cf44b4afac2b0732d9fcbe2b7fa0cf60190819062000d509082620012cc565b506020820151600182019062000d679082620012cc565b506040820151600282019062000d7e9082620012cc565b5060608201516003820155608090910151600490910180546001600160a01b0319166001600160a01b039092169190911790553360009081526007602052604090208151829190819062000dd39082620012cc565b506020820151600182019062000dea9082620012cc565b506040820151600282019062000e019082620012cc565b506060828101516003830155608090920151600490910180546001600160a01b0319166001600160a01b0390921691909117905581015181516040517f6c612e7e8adeb795f848b3b0d79f960a9734faccc41bd66f784dfcd5decfaf829162000e6a9162000f9f565b60405180910390a250505050505050505050565b600760205260009081526040902080548190620006e6906200116f565b611ea1806200139a83390190565b60006020828403121562000ebc57600080fd5b5035919050565b60006020828403121562000ed657600080fd5b81356001600160a01b038116811462000eee57600080fd5b9392505050565b6000815180845260005b8181101562000f1d5760208185018101518683018201520162000eff565b506000602082860101526020601f19601f83011685010191505092915050565b60a08152600062000f5260a083018862000ef5565b828103602084015262000f66818862000ef5565b9050828103604084015262000f7c818762000ef5565b606084019590955250506001600160a01b03919091166080909101529392505050565b60208152600062000eee602083018462000ef5565b634e487b7160e01b600052604160045260246000fd5b600082601f83011262000fdc57600080fd5b813567ffffffffffffffff8082111562000ffa5762000ffa62000fb4565b604051601f8301601f19908116603f0116810190828211818310171562001025576200102562000fb4565b816040528381528660208588010111156200103f57600080fd5b836020870160208301376000602085830101528094505050505092915050565b600080600080608085870312156200107657600080fd5b843567ffffffffffffffff808211156200108f57600080fd5b6200109d8883890162000fca565b95506020870135915080821115620010b457600080fd5b620010c28883890162000fca565b94506040870135915080821115620010d957600080fd5b50620010e88782880162000fca565b949793965093946060013593505050565b60208082526026908201527f4f6e6c792053756273637269626572732063616e20636c61696d20636572746960408201526566696361746560d01b606082015260800190565b634e487b7160e01b600052603260045260246000fd5b6000602082840312156200116857600080fd5b5051919050565b600181811c908216806200118457607f821691505b602082108103620011a557634e487b7160e01b600052602260045260246000fd5b50919050565b60008154620011ba816200116f565b808552602060018381168015620011da5760018114620011f55762001225565b60ff1985168884015283151560051b88018301955062001225565b866000528260002060005b858110156200121d5781548a820186015290830190840162001200565b890184019650505b505050505092915050565b606081526000620012456060830186620011ab565b8281036020840152620012598186620011ab565b905082810360408401526200126f8185620011ab565b9695505050505050565b601f821115620012c757600081815260208120601f850160051c81016020861015620012a25750805b601f850160051c820191505b81811015620012c357828155600101620012ae565b5050505b505050565b815167ffffffffffffffff811115620012e957620012e962000fb4565b6200130181620012fa84546200116f565b8462001279565b602080601f831160018114620013395760008415620013205750858301515b600019600386901b1c1916600185901b178555620012c3565b600085815260208120601f198616915b828110156200136a5788860151825594840194600190910190840162001349565b5085821015620013895787850151600019600388901b60f8161c191681555b5050505050600190811b0190555056fe60a06040523480156200001157600080fd5b5060405162001ea138038062001ea1833981016040819052620000349162000137565b8282600062000044838262000257565b50600162000053828262000257565b50503360805250600862000068828262000257565b5050505062000323565b634e487b7160e01b600052604160045260246000fd5b600082601f8301126200009a57600080fd5b81516001600160401b0380821115620000b757620000b762000072565b604051601f8301601f19908116603f01168101908282118183101715620000e257620000e262000072565b81604052838152602092508683858801011115620000ff57600080fd5b600091505b8382101562000123578582018301518183018401529082019062000104565b600093810190920192909252949350505050565b6000806000606084860312156200014d57600080fd5b83516001600160401b03808211156200016557600080fd5b620001738783880162000088565b945060208601519150808211156200018a57600080fd5b620001988783880162000088565b93506040860151915080821115620001af57600080fd5b50620001be8682870162000088565b9150509250925092565b600181811c90821680620001dd57607f821691505b602082108103620001fe57634e487b7160e01b600052602260045260246000fd5b50919050565b601f8211156200025257600081815260208120601f850160051c810160208610156200022d5750805b601f850160051c820191505b818110156200024e5782815560010162000239565b5050505b505050565b81516001600160401b0381111562000273576200027362000072565b6200028b81620002848454620001c8565b8462000204565b602080601f831160018114620002c35760008415620002aa5750858301515b600019600386901b1c1916600185901b1785556200024e565b600085815260208120601f198616915b82811015620002f457888601518255948401946001909101908401620002d3565b5085821015620003135787850151600019600388901b60f8161c191681555b5050505050600190811b01905550565b608051611b546200034d600039600081816102860152818161055401526106fe0152611b546000f3fe608060405234801561001057600080fd5b50600436106101375760003560e01c80636f247261116100b8578063aa46a4001161007c578063aa46a40014610277578063b4a99a4e14610281578063b88d4fde146102a8578063c87b56dd146102bb578063e985e9c5146102ce578063f5caa7631461030a57600080fd5b80636f2472611461022057806370a0823114610233578063723f53521461025457806395d89b411461025c578063a22cb4651461026457600080fd5b806323b872dd116100ff57806323b872dd146101cc57806337f902f0146101df57806342842e0e146101f25780636352211e146102055780636c0360eb1461021857600080fd5b806301ffc9a71461013c57806306fdde0314610164578063081812fc14610179578063095ea7b3146101a457806320c5429b146101b9575b600080fd5b61014f61014a3660046114f7565b61032d565b60405190151581526020015b60405180910390f35b61016c61037f565b60405161015b9190611564565b61018c610187366004611577565b610411565b6040516001600160a01b03909116815260200161015b565b6101b76101b23660046115ac565b610438565b005b6101b76101c7366004611577565b610552565b6101b76101da3660046115d6565b6105a9565b61016c6101ed366004611612565b6105da565b6101b76102003660046115d6565b610674565b61018c610213366004611577565b61068f565b61016c6106ef565b6101b761022e366004611612565b6106fc565b610246610241366004611612565b61076b565b60405190815260200161015b565b6102466107f1565b61016c610934565b6101b761027236600461162d565b610943565b6007546102469081565b61018c7f000000000000000000000000000000000000000000000000000000000000000081565b6101b76102b636600461167f565b61094e565b61016c6102c9366004611577565b610986565b61014f6102dc36600461175b565b6001600160a01b03918216600090815260056020908152604080832093909416825291909152205460ff1690565b61014f610318366004611612565b60096020526000908152604090205460ff1681565b60006001600160e01b031982166380ac58cd60e01b148061035e57506001600160e01b03198216635b5e139f60e01b145b8061037957506301ffc9a760e01b6001600160e01b03198316145b92915050565b60606000805461038e9061178e565b80601f01602080910402602001604051908101604052809291908181526020018280546103ba9061178e565b80156104075780601f106103dc57610100808354040283529160200191610407565b820191906000526020600020905b8154815290600101906020018083116103ea57829003601f168201915b5050505050905090565b600061041c82610991565b506000908152600460205260409020546001600160a01b031690565b60006104438261068f565b9050806001600160a01b0316836001600160a01b0316036104b55760405162461bcd60e51b815260206004820152602160248201527f4552433732313a20617070726f76616c20746f2063757272656e74206f776e656044820152603960f91b60648201526084015b60405180910390fd5b336001600160a01b03821614806104d157506104d181336102dc565b6105435760405162461bcd60e51b815260206004820152603d60248201527f4552433732313a20617070726f76652063616c6c6572206973206e6f7420746f60448201527f6b656e206f776e6572206f7220617070726f76656420666f7220616c6c00000060648201526084016104ac565b61054d83836109f3565b505050565b7f0000000000000000000000000000000000000000000000000000000000000000336001600160a01b0382161461059c5760405163251c9d6360e01b815260040160405180910390fd5b6105a582610a61565b5050565b6105b33382610ad4565b6105cf5760405162461bcd60e51b81526004016104ac906117c8565b61054d838383610b53565b600a60205260009081526040902080546105f39061178e565b80601f016020809104026020016040519081016040528092919081815260200182805461061f9061178e565b801561066c5780601f106106415761010080835404028352916020019161066c565b820191906000526020600020905b81548152906001019060200180831161064f57829003601f168201915b505050505081565b61054d8383836040518060200160405280600081525061094e565b6000818152600260205260408120546001600160a01b0316806103795760405162461bcd60e51b8152602060048201526018602482015277115490cdcc8c4e881a5b9d985b1a59081d1bdad95b88125160421b60448201526064016104ac565b600880546105f39061178e565b7f0000000000000000000000000000000000000000000000000000000000000000336001600160a01b038216146107465760405163251c9d6360e01b815260040160405180910390fd5b506001600160a01b03166000908152600960205260409020805460ff19166001179055565b60006001600160a01b0382166107d55760405162461bcd60e51b815260206004820152602960248201527f4552433732313a2061646472657373207a65726f206973206e6f7420612076616044820152683634b21037bbb732b960b91b60648201526084016104ac565b506001600160a01b031660009081526003602052604090205490565b3360009081526009602052604081205460ff166108445760405162461bcd60e51b8152602060048201526011602482015270111959dc9959481b9bdd081a5cdcdd5959607a1b60448201526064016104ac565b610852600780546001019055565b600061085d60075490565b90506108693382610cb7565b6108fd816008805461087a9061178e565b80601f01602080910402602001604051908101604052809291908181526020018280546108a69061178e565b80156108f35780601f106108c8576101008083540402835291602001916108f3565b820191906000526020600020905b8154815290600101906020018083116108d657829003601f168201915b5050505050610e42565b336000908152600a60205260409020610917600882611863565b50336000908152600960205260409020805460ff19169055905090565b60606001805461038e9061178e565b6105a5338383610ed5565b6109583383610ad4565b6109745760405162461bcd60e51b81526004016104ac906117c8565b61098084848484610fa3565b50505050565b606061037982610fd6565b6000818152600260205260409020546001600160a01b03166109f05760405162461bcd60e51b8152602060048201526018602482015277115490cdcc8c4e881a5b9d985b1a59081d1bdad95b88125160421b60448201526064016104ac565b50565b600081815260046020526040902080546001600160a01b0319166001600160a01b0384169081179091558190610a288261068f565b6001600160a01b03167f8c5be1e5ebec7d5bd14f71427d1e84f3dd0314c0f7b2291e5b200ac8c7c3b92560405160405180910390a45050565b33610a6b8261068f565b6001600160a01b031614610acb5760405162461bcd60e51b815260206004820152602160248201527f4f6e6c79204f776e65722063616e2063616c6c20746869732066756e6374696f6044820152603760f91b60648201526084016104ac565b6109f0816110de565b600080610ae08361068f565b9050806001600160a01b0316846001600160a01b03161480610b2757506001600160a01b0380821660009081526005602090815260408083209388168352929052205460ff165b80610b4b5750836001600160a01b0316610b4084610411565b6001600160a01b0316145b949350505050565b826001600160a01b0316610b668261068f565b6001600160a01b031614610b8c5760405162461bcd60e51b81526004016104ac90611944565b6001600160a01b038216610bee5760405162461bcd60e51b8152602060048201526024808201527f4552433732313a207472616e7366657220746f20746865207a65726f206164646044820152637265737360e01b60648201526084016104ac565b826001600160a01b0316610c018261068f565b6001600160a01b031614610c275760405162461bcd60e51b81526004016104ac90611944565b600081815260046020908152604080832080546001600160a01b03199081169091556001600160a01b0387811680865260038552838620805460001901905590871680865283862080546001019055868652600290945282852080549092168417909155905184937fddf252ad1be2c89b69c2b068fc378daa952ba7f163c4a11628f55a4df523b3ef91a4505050565b6001600160a01b038216610d0d5760405162461bcd60e51b815260206004820181905260248201527f4552433732313a206d696e7420746f20746865207a65726f206164647265737360448201526064016104ac565b6000818152600260205260409020546001600160a01b031615610d725760405162461bcd60e51b815260206004820152601c60248201527f4552433732313a20746f6b656e20616c7265616479206d696e7465640000000060448201526064016104ac565b6000818152600260205260409020546001600160a01b031615610dd75760405162461bcd60e51b815260206004820152601c60248201527f4552433732313a20746f6b656e20616c7265616479206d696e7465640000000060448201526064016104ac565b6001600160a01b038216600081815260036020908152604080832080546001019055848352600290915280822080546001600160a01b0319168417905551839291907fddf252ad1be2c89b69c2b068fc378daa952ba7f163c4a11628f55a4df523b3ef908290a45050565b6000828152600260205260409020546001600160a01b0316610ebd5760405162461bcd60e51b815260206004820152602e60248201527f45524337323155524953746f726167653a2055524920736574206f66206e6f6e60448201526d32bc34b9ba32b73a103a37b5b2b760911b60648201526084016104ac565b600082815260066020526040902061054d8282611989565b816001600160a01b0316836001600160a01b031603610f365760405162461bcd60e51b815260206004820152601960248201527f4552433732313a20617070726f766520746f2063616c6c65720000000000000060448201526064016104ac565b6001600160a01b03838116600081815260056020908152604080832094871680845294825291829020805460ff191686151590811790915591519182527f17307eab39ab6107e8899845ad3d59bd9653f200f220920489ca2b5937696c31910160405180910390a3505050565b610fae848484610b53565b610fba8484848461111e565b6109805760405162461bcd60e51b81526004016104ac90611a43565b6060610fe182610991565b60008281526006602052604081208054610ffa9061178e565b80601f01602080910402602001604051908101604052809291908181526020018280546110269061178e565b80156110735780601f1061104857610100808354040283529160200191611073565b820191906000526020600020905b81548152906001019060200180831161105657829003601f168201915b50505050509050600061109160408051602081019091526000815290565b905080516000036110a3575092915050565b8151156110d55780826040516020016110bd929190611a95565b60405160208183030381529060405292505050919050565b610b4b8461121f565b6110e781611293565b600081815260066020526040902080546111009061178e565b1590506109f05760008181526006602052604081206109f091611493565b60006001600160a01b0384163b1561121457604051630a85bd0160e11b81526001600160a01b0385169063150b7a0290611162903390899088908890600401611ac4565b6020604051808303816000875af192505050801561119d575060408051601f3d908101601f1916820190925261119a91810190611b01565b60015b6111fa573d8080156111cb576040519150601f19603f3d011682016040523d82523d6000602084013e6111d0565b606091505b5080516000036111f25760405162461bcd60e51b81526004016104ac90611a43565b805181602001fd5b6001600160e01b031916630a85bd0160e11b149050610b4b565b506001949350505050565b606061122a82610991565b600061124160408051602081019091526000815290565b90506000815111611261576040518060200160405280600081525061128c565b8061126b84611328565b60405160200161127c929190611a95565b6040516020818303038152906040525b9392505050565b600061129e8261068f565b90506112a98261068f565b600083815260046020908152604080832080546001600160a01b03199081169091556001600160a01b0385168085526003845282852080546000190190558785526002909352818420805490911690555192935084927fddf252ad1be2c89b69c2b068fc378daa952ba7f163c4a11628f55a4df523b3ef908390a45050565b60606000611335836113bb565b600101905060008167ffffffffffffffff81111561135557611355611669565b6040519080825280601f01601f19166020018201604052801561137f576020820181803683370190505b5090508181016020015b600019016f181899199a1a9b1b9c1cb0b131b232b360811b600a86061a8153600a850494508461138957509392505050565b60008072184f03e93ff9f4daa797ed6e38ed64bf6a1f0160401b83106113fa5772184f03e93ff9f4daa797ed6e38ed64bf6a1f0160401b830492506040015b6d04ee2d6d415b85acef81000000008310611426576d04ee2d6d415b85acef8100000000830492506020015b662386f26fc10000831061144457662386f26fc10000830492506010015b6305f5e100831061145c576305f5e100830492506008015b612710831061147057612710830492506004015b60648310611482576064830492506002015b600a83106103795760010192915050565b50805461149f9061178e565b6000825580601f106114af575050565b601f0160209004906000526020600020908101906109f091905b808211156114dd57600081556001016114c9565b5090565b6001600160e01b0319811681146109f057600080fd5b60006020828403121561150957600080fd5b813561128c816114e1565b60005b8381101561152f578181015183820152602001611517565b50506000910152565b60008151808452611550816020860160208601611514565b601f01601f19169290920160200192915050565b60208152600061128c6020830184611538565b60006020828403121561158957600080fd5b5035919050565b80356001600160a01b03811681146115a757600080fd5b919050565b600080604083850312156115bf57600080fd5b6115c883611590565b946020939093013593505050565b6000806000606084860312156115eb57600080fd5b6115f484611590565b925061160260208501611590565b9150604084013590509250925092565b60006020828403121561162457600080fd5b61128c82611590565b6000806040838503121561164057600080fd5b61164983611590565b91506020830135801515811461165e57600080fd5b809150509250929050565b634e487b7160e01b600052604160045260246000fd5b6000806000806080858703121561169557600080fd5b61169e85611590565b93506116ac60208601611590565b925060408501359150606085013567ffffffffffffffff808211156116d057600080fd5b818701915087601f8301126116e457600080fd5b8135818111156116f6576116f6611669565b604051601f8201601f19908116603f0116810190838211818310171561171e5761171e611669565b816040528281528a602084870101111561173757600080fd5b82602086016020830137600060208483010152809550505050505092959194509250565b6000806040838503121561176e57600080fd5b61177783611590565b915061178560208401611590565b90509250929050565b600181811c908216806117a257607f821691505b6020821081036117c257634e487b7160e01b600052602260045260246000fd5b50919050565b6020808252602d908201527f4552433732313a2063616c6c6572206973206e6f7420746f6b656e206f776e6560408201526c1c881bdc88185c1c1c9bdd9959609a1b606082015260800190565b601f82111561054d57600081815260208120601f850160051c8101602086101561183c5750805b601f850160051c820191505b8181101561185b57828155600101611848565b505050505050565b81810361186e575050565b611878825461178e565b67ffffffffffffffff81111561189057611890611669565b6118a48161189e845461178e565b84611815565b6000601f8211600181146118d857600083156118c05750848201545b600019600385901b1c1916600184901b17845561193d565b600085815260209020601f19841690600086815260209020845b8381101561191257828601548255600195860195909101906020016118f2565b50858310156119305781850154600019600388901b60f8161c191681555b50505060018360011b0184555b5050505050565b60208082526025908201527f4552433732313a207472616e736665722066726f6d20696e636f72726563742060408201526437bbb732b960d91b606082015260800190565b815167ffffffffffffffff8111156119a3576119a3611669565b6119b18161189e845461178e565b602080601f8311600181146119e657600084156119ce5750858301515b600019600386901b1c1916600185901b17855561185b565b600085815260208120601f198616915b82811015611a15578886015182559484019460019091019084016119f6565b5085821015611a335787850151600019600388901b60f8161c191681555b5050505050600190811b01905550565b60208082526032908201527f4552433732313a207472616e7366657220746f206e6f6e20455243373231526560408201527131b2b4bb32b91034b6b83632b6b2b73a32b960711b606082015260800190565b60008351611aa7818460208801611514565b835190830190611abb818360208801611514565b01949350505050565b6001600160a01b0385811682528416602082015260408101839052608060608201819052600090611af790830184611538565b9695505050505050565b600060208284031215611b1357600080fd5b815161128c816114e156fea2646970667358221220b1cc92dff938e1e5ed64982e88ff69ff895a70f3371bea49f39f9aa145891b5664736f6c63430008110033a2646970667358221220573d96514121f20d40b31c264aad583e9e35357569aec3dcb0997f00a33327af64736f6c63430008110033a26469706673582212205b038bb1e308b65e832e3450d388f845292c08e774b604976ec81093af41a4f764736f6c63430008110033",
  "linkReferences": {},
  "deployedLinkReferences": {}
}