{
  "_format": "hh-sol-artifact-1",
  "contractName": "Certification",
  "sourceName": "contracts/Certification.sol",
  "abi": [
    {
      "inputs": [
        {
          "internalType": "string",
          "name": "_degreeName",
          "type": "string"
        },
        {
          "internalType": "string",
          "name": "_degreeSymbol",
          "type": "string"
        },
        {
          "internalType": "string",
          "name": "_baseURI",
          "type": "string"
        }
      ],
      "stateMutability": "nonpayable",
      "type": "constructor"
    },
    {
      "inputs": [],
      "name": "notOwner",
      "type": "error"
    },
    {
      "anonymous": false,
      "inputs": [
        {
          "indexed": true,
          "internalType": "address",
          "name": "owner",
          "type": "address"
        },
        {
          "indexed": true,
          "internalType": "address",
          "name": "approved",
          "type": "address"
        },
        {
          "indexed": true,
          "internalType": "uint256",
          "name": "tokenId",
          "type": "uint256"
        }
      ],
      "name": "Approval",
      "type": "event"
    },
    {
      "anonymous": false,
      "inputs": [
        {
          "indexed": true,
          "internalType": "address",
          "name": "owner",
          "type": "address"
        },
        {
          "indexed": true,
          "internalType": "address",
          "name": "operator",
          "type": "address"
        },
        {
          "indexed": false,
          "internalType": "bool",
          "name": "approved",
          "type": "bool"
        }
      ],
      "name": "ApprovalForAll",
      "type": "event"
    },
    {
      "anonymous": false,
      "inputs": [
        {
          "indexed": true,
          "internalType": "address",
          "name": "to",
          "type": "address"
        },
        {
          "indexed": false,
          "internalType": "uint256",
          "name": "tokenId",
          "type": "uint256"
        }
      ],
      "name": "Attest",
      "type": "event"
    },
    {
      "anonymous": false,
      "inputs": [
        {
          "indexed": true,
          "internalType": "address",
          "name": "to",
          "type": "address"
        },
        {
          "indexed": false,
          "internalType": "uint256",
          "name": "tokenId",
          "type": "uint256"
        }
      ],
      "name": "Revoke",
      "type": "event"
    },
    {
      "anonymous": false,
      "inputs": [
        {
          "indexed": true,
          "internalType": "address",
          "name": "from",
          "type": "address"
        },
        {
          "indexed": true,
          "internalType": "address",
          "name": "to",
          "type": "address"
        },
        {
          "indexed": true,
          "internalType": "uint256",
          "name": "tokenId",
          "type": "uint256"
        }
      ],
      "name": "Transfer",
      "type": "event"
    },
    {
      "inputs": [],
      "name": "Owner",
      "outputs": [
        {
          "internalType": "address",
          "name": "",
          "type": "address"
        }
      ],
      "stateMutability": "view",
      "type": "function"
    },
    {
      "inputs": [],
      "name": "_tokenIds",
      "outputs": [
        {
          "internalType": "uint256",
          "name": "_value",
          "type": "uint256"
        }
      ],
      "stateMutability": "view",
      "type": "function"
    },
    {
      "inputs": [
        {
          "internalType": "address",
          "name": "to",
          "type": "address"
        },
        {
          "internalType": "uint256",
          "name": "tokenId",
          "type": "uint256"
        }
      ],
      "name": "approve",
      "outputs": [],
      "stateMutability": "nonpayable",
      "type": "function"
    },
    {
      "inputs": [
        {
          "internalType": "address",
          "name": "owner",
          "type": "address"
        }
      ],
      "name": "balanceOf",
      "outputs": [
        {
          "internalType": "uint256",
          "name": "",
          "type": "uint256"
        }
      ],
      "stateMutability": "view",
      "type": "function"
    },
    {
      "inputs": [],
      "name": "baseURI",
      "outputs": [
        {
          "internalType": "string",
          "name": "",
          "type": "string"
        }
      ],
      "stateMutability": "view",
      "type": "function"
    },
    {
      "inputs": [],
      "name": "claimDegree",
      "outputs": [
        {
          "internalType": "uint256",
          "name": "",
          "type": "uint256"
        }
      ],
      "stateMutability": "nonpayable",
      "type": "function"
    },
    {
      "inputs": [
        {
          "internalType": "uint256",
          "name": "tokenId",
          "type": "uint256"
        }
      ],
      "name": "getApproved",
      "outputs": [
        {
          "internalType": "address",
          "name": "",
          "type": "address"
        }
      ],
      "stateMutability": "view",
      "type": "function"
    },
    {
      "inputs": [
        {
          "internalType": "address",
          "name": "owner",
          "type": "address"
        },
        {
          "internalType": "address",
          "name": "operator",
          "type": "address"
        }
      ],
      "name": "isApprovedForAll",
      "outputs": [
        {
          "internalType": "bool",
          "name": "",
          "type": "bool"
        }
      ],
      "stateMutability": "view",
      "type": "function"
    },
    {
      "inputs": [
        {
          "internalType": "address",
          "name": "_to",
          "type": "address"
        }
      ],
      "name": "issueDegrees",
      "outputs": [],
      "stateMutability": "nonpayable",
      "type": "function"
    },
    {
      "inputs": [
        {
          "internalType": "address",
          "name": "",
          "type": "address"
        }
      ],
      "name": "issuedDegrees",
      "outputs": [
        {
          "internalType": "bool",
          "name": "",
          "type": "bool"
        }
      ],
      "stateMutability": "view",
      "type": "function"
    },
    {
      "inputs": [],
      "name": "name",
      "outputs": [
        {
          "internalType": "string",
          "name": "",
          "type": "string"
        }
      ],
      "stateMutability": "view",
      "type": "function"
    },
    {
      "inputs": [
        {
          "internalType": "uint256",
          "name": "tokenId",
          "type": "uint256"
        }
      ],
      "name": "ownerOf",
      "outputs": [
        {
          "internalType": "address",
          "name": "",
          "type": "address"
        }
      ],
      "stateMutability": "view",
      "type": "function"
    },
    {
      "inputs": [
        {
          "internalType": "address",
          "name": "",
          "type": "address"
        }
      ],
      "name": "personToDegree",
      "outputs": [
        {
          "internalType": "string",
          "name": "",
          "type": "string"
        }
      ],
      "stateMutability": "view",
      "type": "function"
    },
    {
      "inputs": [
        {
          "internalType": "uint256",
          "name": "tokenId",
          "type": "uint256"
        }
      ],
      "name": "revoke",
      "outputs": [],
      "stateMutability": "nonpayable",
      "type": "function"
    },
    {
      "inputs": [
        {
          "internalType": "address",
          "name": "from",
          "type": "address"
        },
        {
          "internalType": "address",
          "name": "to",
          "type": "address"
        },
        {
          "internalType": "uint256",
          "name": "tokenId",
          "type": "uint256"
        }
      ],
      "name": "safeTransferFrom",
      "outputs": [],
      "stateMutability": "nonpayable",
      "type": "function"
    },
    {
      "inputs": [
        {
          "internalType": "address",
          "name": "from",
          "type": "address"
        },
        {
          "internalType": "address",
          "name": "to",
          "type": "address"
        },
        {
          "internalType": "uint256",
          "name": "tokenId",
          "type": "uint256"
        },
        {
          "internalType": "bytes",
          "name": "data",
          "type": "bytes"
        }
      ],
      "name": "safeTransferFrom",
      "outputs": [],
      "stateMutability": "nonpayable",
      "type": "function"
    },
    {
      "inputs": [
        {
          "internalType": "address",
          "name": "operator",
          "type": "address"
        },
        {
          "internalType": "bool",
          "name": "approved",
          "type": "bool"
        }
      ],
      "name": "setApprovalForAll",
      "outputs": [],
      "stateMutability": "nonpayable",
      "type": "function"
    },
    {
      "inputs": [
        {
          "internalType": "bytes4",
          "name": "interfaceId",
          "type": "bytes4"
        }
      ],
      "name": "supportsInterface",
      "outputs": [
        {
          "internalType": "bool",
          "name": "",
          "type": "bool"
        }
      ],
      "stateMutability": "view",
      "type": "function"
    },
    {
      "inputs": [],
      "name": "symbol",
      "outputs": [
        {
          "internalType": "string",
          "name": "",
          "type": "string"
        }
      ],
      "stateMutability": "view",
      "type": "function"
    },
    {
      "inputs": [
        {
          "internalType": "uint256",
          "name": "tokenId",
          "type": "uint256"
        }
      ],
      "name": "tokenURI",
      "outputs": [
        {
          "internalType": "string",
          "name": "",
          "type": "string"
        }
      ],
      "stateMutability": "view",
      "type": "function"
    },
    {
      "inputs": [
        {
          "internalType": "address",
          "name": "from",
          "type": "address"
        },
        {
          "internalType": "address",
          "name": "to",
          "type": "address"
        },
        {
          "internalType": "uint256",
          "name": "tokenId",
          "type": "uint256"
        }
      ],
      "name": "transferFrom",
      "outputs": [],
      "stateMutability": "nonpayable",
      "type": "function"
    }
  ],
  "bytecode": "0x60a06040523480156200001157600080fd5b5060405162001d8238038062001d828339810160408190526200003491620001fc565b8251839083906200004d90600090602085019062000089565b5080516200006390600190602084019062000089565b5050336080525080516200007f90600890602084019062000089565b50505050620002ca565b82805462000097906200028d565b90600052602060002090601f016020900481019282620000bb576000855562000106565b82601f10620000d657805160ff191683800117855562000106565b8280016001018555821562000106579182015b8281111562000106578251825591602001919060010190620000e9565b506200011492915062000118565b5090565b5b8082111562000114576000815560010162000119565b634e487b7160e01b600052604160045260246000fd5b600082601f8301126200015757600080fd5b81516001600160401b03808211156200017457620001746200012f565b604051601f8301601f19908116603f011681019082821181831017156200019f576200019f6200012f565b81604052838152602092508683858801011115620001bc57600080fd5b600091505b83821015620001e05785820183015181830184015290820190620001c1565b83821115620001f25760008385830101525b9695505050505050565b6000806000606084860312156200021257600080fd5b83516001600160401b03808211156200022a57600080fd5b620002388783880162000145565b945060208601519150808211156200024f57600080fd5b6200025d8783880162000145565b935060408601519150808211156200027457600080fd5b50620002838682870162000145565b9150509250925092565b600181811c90821680620002a257607f821691505b60208210811415620002c457634e487b7160e01b600052602260045260246000fd5b50919050565b608051611a8e620002f4600039600081816102860152818161055501526106ff0152611a8e6000f3fe608060405234801561001057600080fd5b50600436106101375760003560e01c80636f247261116100b8578063aa46a4001161007c578063aa46a40014610277578063b4a99a4e14610281578063b88d4fde146102a8578063c87b56dd146102bb578063e985e9c5146102ce578063f5caa7631461030a57600080fd5b80636f2472611461022057806370a0823114610233578063723f53521461025457806395d89b411461025c578063a22cb4651461026457600080fd5b806323b872dd116100ff57806323b872dd146101cc57806337f902f0146101df57806342842e0e146101f25780636352211e146102055780636c0360eb1461021857600080fd5b806301ffc9a71461013c57806306fdde0314610164578063081812fc14610179578063095ea7b3146101a457806320c5429b146101b9575b600080fd5b61014f61014a366004611611565b61032d565b60405190151581526020015b60405180910390f35b61016c61037f565b60405161015b9190611686565b61018c610187366004611699565b610411565b6040516001600160a01b03909116815260200161015b565b6101b76101b23660046116ce565b610438565b005b6101b76101c7366004611699565b610553565b6101b76101da3660046116f8565b6105aa565b61016c6101ed366004611734565b6105db565b6101b76102003660046116f8565b610675565b61018c610213366004611699565b610690565b61016c6106f0565b6101b761022e366004611734565b6106fd565b610246610241366004611734565b61076c565b60405190815260200161015b565b6102466107f2565b61016c610942565b6101b761027236600461174f565b610951565b6007546102469081565b61018c7f000000000000000000000000000000000000000000000000000000000000000081565b6101b76102b63660046117a1565b61095c565b61016c6102c9366004611699565b610994565b61014f6102dc36600461187d565b6001600160a01b03918216600090815260056020908152604080832093909416825291909152205460ff1690565b61014f610318366004611734565b60096020526000908152604090205460ff1681565b60006001600160e01b031982166380ac58cd60e01b148061035e57506001600160e01b03198216635b5e139f60e01b145b8061037957506301ffc9a760e01b6001600160e01b03198316145b92915050565b60606000805461038e906118b0565b80601f01602080910402602001604051908101604052809291908181526020018280546103ba906118b0565b80156104075780601f106103dc57610100808354040283529160200191610407565b820191906000526020600020905b8154815290600101906020018083116103ea57829003601f168201915b5050505050905090565b600061041c8261099f565b506000908152600460205260409020546001600160a01b031690565b600061044382610690565b9050806001600160a01b0316836001600160a01b031614156104b65760405162461bcd60e51b815260206004820152602160248201527f4552433732313a20617070726f76616c20746f2063757272656e74206f776e656044820152603960f91b60648201526084015b60405180910390fd5b336001600160a01b03821614806104d257506104d281336102dc565b6105445760405162461bcd60e51b815260206004820152603d60248201527f4552433732313a20617070726f76652063616c6c6572206973206e6f7420746f60448201527f6b656e206f776e6572206f7220617070726f76656420666f7220616c6c00000060648201526084016104ad565b61054e8383610a01565b505050565b7f0000000000000000000000000000000000000000000000000000000000000000336001600160a01b0382161461059d5760405163251c9d6360e01b815260040160405180910390fd5b6105a682610a6f565b5050565b6105b43382610ae2565b6105d05760405162461bcd60e51b81526004016104ad906118eb565b61054e838383610b61565b600a60205260009081526040902080546105f4906118b0565b80601f0160208091040260200160405190810160405280929190818152602001828054610620906118b0565b801561066d5780601f106106425761010080835404028352916020019161066d565b820191906000526020600020905b81548152906001019060200180831161065057829003601f168201915b505050505081565b61054e8383836040518060200160405280600081525061095c565b6000818152600260205260408120546001600160a01b0316806103795760405162461bcd60e51b8152602060048201526018602482015277115490cdcc8c4e881a5b9d985b1a59081d1bdad95b88125160421b60448201526064016104ad565b600880546105f4906118b0565b7f0000000000000000000000000000000000000000000000000000000000000000336001600160a01b038216146107475760405163251c9d6360e01b815260040160405180910390fd5b506001600160a01b03166000908152600960205260409020805460ff19166001179055565b60006001600160a01b0382166107d65760405162461bcd60e51b815260206004820152602960248201527f4552433732313a2061646472657373207a65726f206973206e6f7420612076616044820152683634b21037bbb732b960b91b60648201526084016104ad565b506001600160a01b031660009081526003602052604090205490565b3360009081526009602052604081205460ff166108455760405162461bcd60e51b8152602060048201526011602482015270111959dc9959481b9bdd081a5cdcdd5959607a1b60448201526064016104ad565b610853600780546001019055565b600061085e60075490565b905061086a3382610cc5565b6108fe816008805461087b906118b0565b80601f01602080910402602001604051908101604052809291908181526020018280546108a7906118b0565b80156108f45780601f106108c9576101008083540402835291602001916108f4565b820191906000526020600020905b8154815290600101906020018083116108d757829003601f168201915b5050505050610e50565b336000908152600a602052604090206008805461091a906118b0565b6109259291906114b1565b50336000908152600960205260409020805460ff19169055905090565b60606001805461038e906118b0565b6105a6338383610eea565b6109663383610ae2565b6109825760405162461bcd60e51b81526004016104ad906118eb565b61098e84848484610fb9565b50505050565b606061037982610fec565b6000818152600260205260409020546001600160a01b03166109fe5760405162461bcd60e51b8152602060048201526018602482015277115490cdcc8c4e881a5b9d985b1a59081d1bdad95b88125160421b60448201526064016104ad565b50565b600081815260046020526040902080546001600160a01b0319166001600160a01b0384169081179091558190610a3682610690565b6001600160a01b03167f8c5be1e5ebec7d5bd14f71427d1e84f3dd0314c0f7b2291e5b200ac8c7c3b92560405160405180910390a45050565b33610a7982610690565b6001600160a01b031614610ad95760405162461bcd60e51b815260206004820152602160248201527f4f6e6c79204f776e65722063616e2063616c6c20746869732066756e6374696f6044820152603760f91b60648201526084016104ad565b6109fe816110f5565b600080610aee83610690565b9050806001600160a01b0316846001600160a01b03161480610b3557506001600160a01b0380821660009081526005602090815260408083209388168352929052205460ff165b80610b595750836001600160a01b0316610b4e84610411565b6001600160a01b0316145b949350505050565b826001600160a01b0316610b7482610690565b6001600160a01b031614610b9a5760405162461bcd60e51b81526004016104ad90611938565b6001600160a01b038216610bfc5760405162461bcd60e51b8152602060048201526024808201527f4552433732313a207472616e7366657220746f20746865207a65726f206164646044820152637265737360e01b60648201526084016104ad565b826001600160a01b0316610c0f82610690565b6001600160a01b031614610c355760405162461bcd60e51b81526004016104ad90611938565b600081815260046020908152604080832080546001600160a01b03199081169091556001600160a01b0387811680865260038552838620805460001901905590871680865283862080546001019055868652600290945282852080549092168417909155905184937fddf252ad1be2c89b69c2b068fc378daa952ba7f163c4a11628f55a4df523b3ef91a4505050565b6001600160a01b038216610d1b5760405162461bcd60e51b815260206004820181905260248201527f4552433732313a206d696e7420746f20746865207a65726f206164647265737360448201526064016104ad565b6000818152600260205260409020546001600160a01b031615610d805760405162461bcd60e51b815260206004820152601c60248201527f4552433732313a20746f6b656e20616c7265616479206d696e7465640000000060448201526064016104ad565b6000818152600260205260409020546001600160a01b031615610de55760405162461bcd60e51b815260206004820152601c60248201527f4552433732313a20746f6b656e20616c7265616479206d696e7465640000000060448201526064016104ad565b6001600160a01b038216600081815260036020908152604080832080546001019055848352600290915280822080546001600160a01b0319168417905551839291907fddf252ad1be2c89b69c2b068fc378daa952ba7f163c4a11628f55a4df523b3ef908290a45050565b6000828152600260205260409020546001600160a01b0316610ecb5760405162461bcd60e51b815260206004820152602e60248201527f45524337323155524953746f726167653a2055524920736574206f66206e6f6e60448201526d32bc34b9ba32b73a103a37b5b2b760911b60648201526084016104ad565b6000828152600660209081526040909120825161054e9284019061153c565b816001600160a01b0316836001600160a01b03161415610f4c5760405162461bcd60e51b815260206004820152601960248201527f4552433732313a20617070726f766520746f2063616c6c65720000000000000060448201526064016104ad565b6001600160a01b03838116600081815260056020908152604080832094871680845294825291829020805460ff191686151590811790915591519182527f17307eab39ab6107e8899845ad3d59bd9653f200f220920489ca2b5937696c31910160405180910390a3505050565b610fc4848484610b61565b610fd084848484611135565b61098e5760405162461bcd60e51b81526004016104ad9061197d565b6060610ff78261099f565b60008281526006602052604081208054611010906118b0565b80601f016020809104026020016040519081016040528092919081815260200182805461103c906118b0565b80156110895780601f1061105e57610100808354040283529160200191611089565b820191906000526020600020905b81548152906001019060200180831161106c57829003601f168201915b5050505050905060006110a760408051602081019091526000815290565b90508051600014156110ba575092915050565b8151156110ec5780826040516020016110d49291906119cf565b60405160208183030381529060405292505050919050565b610b5984611233565b6110fe816112a7565b60008181526006602052604090208054611117906118b0565b1590506109fe5760008181526006602052604081206109fe916115b0565b60006001600160a01b0384163b1561122857604051630a85bd0160e11b81526001600160a01b0385169063150b7a02906111799033908990889088906004016119fe565b6020604051808303816000875af19250505080156111b4575060408051601f3d908101601f191682019092526111b191810190611a3b565b60015b61120e573d8080156111e2576040519150601f19603f3d011682016040523d82523d6000602084013e6111e7565b606091505b5080516112065760405162461bcd60e51b81526004016104ad9061197d565b805181602001fd5b6001600160e01b031916630a85bd0160e11b149050610b59565b506001949350505050565b606061123e8261099f565b600061125560408051602081019091526000815290565b9050600081511161127557604051806020016040528060008152506112a0565b8061127f8461133c565b6040516020016112909291906119cf565b6040516020818303038152906040525b9392505050565b60006112b282610690565b90506112bd82610690565b600083815260046020908152604080832080546001600160a01b03199081169091556001600160a01b0385168085526003845282852080546000190190558785526002909352818420805490911690555192935084927fddf252ad1be2c89b69c2b068fc378daa952ba7f163c4a11628f55a4df523b3ef908390a45050565b60606000611349836113d9565b600101905060008167ffffffffffffffff8111156113695761136961178b565b6040519080825280601f01601f191660200182016040528015611393576020820181803683370190505b5090508181016020015b600019016f181899199a1a9b1b9c1cb0b131b232b360811b600a86061a8153600a85049450846113cc576113d1565b61139d565b509392505050565b60008072184f03e93ff9f4daa797ed6e38ed64bf6a1f0160401b83106114185772184f03e93ff9f4daa797ed6e38ed64bf6a1f0160401b830492506040015b6d04ee2d6d415b85acef81000000008310611444576d04ee2d6d415b85acef8100000000830492506020015b662386f26fc10000831061146257662386f26fc10000830492506010015b6305f5e100831061147a576305f5e100830492506008015b612710831061148e57612710830492506004015b606483106114a0576064830492506002015b600a83106103795760010192915050565b8280546114bd906118b0565b90600052602060002090601f0160209004810192826114df576000855561152c565b82601f106114f0578054855561152c565b8280016001018555821561152c57600052602060002091601f016020900482015b8281111561152c578254825591600101919060010190611511565b506115389291506115e6565b5090565b828054611548906118b0565b90600052602060002090601f01602090048101928261156a576000855561152c565b82601f1061158357805160ff191683800117855561152c565b8280016001018555821561152c579182015b8281111561152c578251825591602001919060010190611595565b5080546115bc906118b0565b6000825580601f106115cc575050565b601f0160209004906000526020600020908101906109fe91905b5b8082111561153857600081556001016115e7565b6001600160e01b0319811681146109fe57600080fd5b60006020828403121561162357600080fd5b81356112a0816115fb565b60005b83811015611649578181015183820152602001611631565b8381111561098e5750506000910152565b6000815180845261167281602086016020860161162e565b601f01601f19169290920160200192915050565b6020815260006112a0602083018461165a565b6000602082840312156116ab57600080fd5b5035919050565b80356001600160a01b03811681146116c957600080fd5b919050565b600080604083850312156116e157600080fd5b6116ea836116b2565b946020939093013593505050565b60008060006060848603121561170d57600080fd5b611716846116b2565b9250611724602085016116b2565b9150604084013590509250925092565b60006020828403121561174657600080fd5b6112a0826116b2565b6000806040838503121561176257600080fd5b61176b836116b2565b91506020830135801515811461178057600080fd5b809150509250929050565b634e487b7160e01b600052604160045260246000fd5b600080600080608085870312156117b757600080fd5b6117c0856116b2565b93506117ce602086016116b2565b925060408501359150606085013567ffffffffffffffff808211156117f257600080fd5b818701915087601f83011261180657600080fd5b8135818111156118185761181861178b565b604051601f8201601f19908116603f011681019083821181831017156118405761184061178b565b816040528281528a602084870101111561185957600080fd5b82602086016020830137600060208483010152809550505050505092959194509250565b6000806040838503121561189057600080fd5b611899836116b2565b91506118a7602084016116b2565b90509250929050565b600181811c908216806118c457607f821691505b602082108114156118e557634e487b7160e01b600052602260045260246000fd5b50919050565b6020808252602d908201527f4552433732313a2063616c6c6572206973206e6f7420746f6b656e206f776e6560408201526c1c881bdc88185c1c1c9bdd9959609a1b606082015260800190565b60208082526025908201527f4552433732313a207472616e736665722066726f6d20696e636f72726563742060408201526437bbb732b960d91b606082015260800190565b60208082526032908201527f4552433732313a207472616e7366657220746f206e6f6e20455243373231526560408201527131b2b4bb32b91034b6b83632b6b2b73a32b960711b606082015260800190565b600083516119e181846020880161162e565b8351908301906119f581836020880161162e565b01949350505050565b6001600160a01b0385811682528416602082015260408101839052608060608201819052600090611a319083018461165a565b9695505050505050565b600060208284031215611a4d57600080fd5b81516112a0816115fb56fea26469706673582212200b9ae8a0edf571e7bff97288a6d5f18eecccf5311c4d35f9d6271580c34fa42b64736f6c634300080c0033",
  "linkReferences": {},
  "deployedLinkReferences": {}
}